:020000041000EA
:1000000000B5324B212058609868022188439860DF
:10001000D860186158612E4B002199600221596106
:100020000121F02299502B49196001219960352056
:1000300000F044F80222904214D00621196600F024
:1000400034F8196E01211966002018661A6600F04E
:100050002CF8196E196E196E052000F02FF8012189
:100060000842F9D1002199601B49196000215960AB
:100070001A491B48016001219960EB211966A021F2
:10008000196600F012F800219960164914480160C1
:100090000121996001BC002800D000471248134993
:1000A000086003C880F30888084703B5996A0420EC
:1000B0000142FBD001200142F8D103BD02B5186610
:1000C0001866FFF7F2FF186E186E02BD00000240BE
:1000D000000000180000070000035F00212200005C
:1000E000F4000018222000A00001001008ED00E03C
:1000F00000000000000000000000000074B24E7A12
:1001000000200420F7010010C3010010C5010010F9
:10011000C1010010C1010010C1010010C101001097
:10012000C1010010C1010010C1010010C701001081
:10013000C1010010C1010010C9010010CB01001065
:10014000CD010010CD010010CD010010CD01001037
:10015000CD010010CD010010CD010010CD01001027
:10016000CD010010CD010010CD010010CD01001017
:10017000CD010010CD010010CD010010CD01001007
:10018000CD010010CD010010CD010010CD010010F7
:10019000CD010010CD010010CD010010CD010010E7
:1001A000CD010010CD010010CD010010CD010010D7
:1001B000CD010010CD010010CD010010CD010010C7
:1001C00000BE00BE00BE00BE00BE00BEEFF3058054
:1001D000103800BEF2EB88710C3205102C3205107D
:1001E0003402001090A31AE700201F49086006C8D7
:1001F00081F3088810471D48006800282FD10DA4FE
:100200000ECC002902D000F012F8F9E71849194A7B
:10021000002000E001C19142FCD1174988471749ED
:1002200088471749884700BEFDE701C901C29A42C5
:10023000FBD370472C320510C000002000120020B4
:100240008C43051000000420000004208C4305109E
:10025000001004200010042000000000704709482E
:1002600000F010FF0047000008ED00E0000000D0A3
:1002700020120020ACDD0020B14901106D040010F7
:10028000A54A01105756000006005250ABB3605308
:10029000C82F051006005250861C0302D82F0510E7
:1002A000060052505422A29DEC2F0510050052501A
:1002B000DE65F4688C430510F8B5C04610B5064CF1
:1002C0002378002B07D1054B002B02D0044800E017
:1002D00000BF0123237010BD78140020000000002F
:1002E00018920110044B10B5002B03D003490448A9
:1002F00000E000BF10BDC046000000007C140020DC
:100300001892011030B503000C00150083B00128CD
:1003100006D00020022B43D0002B2BD003B030BDE1
:1003200004228021274B49001A60274A13680B4298
:10033000FCD050680004000C16F0BCFA234916F0FB
:10034000B2FAE621890516F0AEFA214916F091FAC3
:10035000204916F094FA011C1F4816F08AFA16F08C
:10036000CBFA1E4A009001912900200015F07AFE78
:1003700080B2D3E704228021124B49001A60124A4E
:1003800013680B42FCD050680004000C16F092FA7F
:100390000E4916F088FAE621890516F084FADEE7A0
:1003A0000EF0FEFA002806D0290020000C4A15F0B5
:1003B00059FE80B2B2E7290020000A4A15F052FE29
:1003C00080B2ABE700E0044000C004403333534048
:1003D0006ABC343F2D93E13A0000D84118920110D5
:1003E0001C9201102092011010B510680D491C00DC
:1003F00018F0C2FD00280CD123681A78302A0AD0E0
:10040000312A06D15B78002B03D1012100200EF0A8
:10041000BDFA054810BD59780029F1D10EF0B6FAA1
:10042000F7E7C04668B001102492011010B518F02B
:1004300027FD0222084B09491A60094B09481A682E
:100440008023DB015340E022D2011340064A1360AF
:10045000032214F071FA10BD00E00440A81000203F
:1004600000C004400503001000D0044070B516F031
:100470009DFC0EF0ABFA0EF02DFA124E124D134CFD
:1004800002E0300016F0E4FB29002000104B114A76
:100490000EF02EFA0028F4D10F4816F0D9FB14F014
:1004A0001DFA0E4816F0D4FBFFF7C0FF0C4816F0FB
:1004B000CFFB0C48012114F063FA0B4816F0C8FB7F
:1004C000FEE7C04634920110C0920110D092011094
:1004D000204E000004004000509201105C92011078
:1004E00074920110D89201108C92011010B508F08E
:1004F0005FFB10BD0123F0B50B7283B0040008F060
:100500008BFB0500431C0DD11249134B1A685B6825
:10051000009201938A60CB60236820005B69984752
:1005200003B0F0BD01F000FFFA2206000F00002327
:1005300028000021920016F07FF936184F41002F55
:1005400003DB04498E60CF60E6E70126034F764265
:10055000F7E7C046C010002018930110FFFFFF7F8F
:1005600070B5094D04002B78002B08D001230749F2
:1005700020000B722368DB699847012070BD02F0F0
:100580005BFA01232B70F1E79ADD0020B410002004
:1005900010B50400036804499B699847236820004C
:1005A0001B6A0249984710BDC0100020B4100020FB
:1005B000002070477047C04610B501F0B5FE002915
:1005C00005D0FA220023920015F0FCFD10BDFA219F
:1005D000890015F0B9FDF9E7020083680832002BA5
:1005E00004D107E01A001B68002B03D09942F9D10F
:1005F000002003E00023012011600B607047C0461B
:100600008368002B08D0994202D107E0994207D0B5
:100610001A001B68002BF9D1002070470200083235
:100620000B6801201360F8E74368021D002B04D11A
:1006300007E01A001B68002B03D09942F9D1002073
:1006400003E00023012011600B6070474368002B1A
:1006500008D0994202D107E0994206D01A001B68DF
:10066000002BF9D100207047021D0B680120136098
:10067000F9E7C046F8B54746CE468368804680B560
:10068000002B29D008234344994601F04DFE4346F0
:100690009E6804000D00002E58D000234F469C4653
:1006A000B268F36820002900801A9941002902DB12
:1006B00014001D00BC4637003668002EF0D163469A
:1006C000002B43D0196840460A681A604B68984767
:1006D00043469B68002BD8D143465C68002C31D040
:1006E0000025237A002B29D021006368257240461B
:1006F00098472468002CF4D1174B18685968434672
:100700009E68002E04D112E020002900002E0ED099
:10071000330002009C68DD680B00121BAB41366899
:10072000002BF1DCF2D1002AEED1002EF0D14346AD
:1007300018615961C0BCB946B046F8BD2468002CA8
:10074000CFD1D9E7044B18685968F0E743465C6895
:10075000002CC5D1D0E7C04618930110024B186891
:100760008007C00F7047C04600C00640104A114BBA
:1007700010B512184B419900900F0843990F504043
:1007800059400D4A0D4B16F057F803004A01C00EB0
:100790001043CA0E58405140094B0A4A16F04CF813
:1007A00003004A00C00F1043CA0F5840514010BD0B
:1007B000157C4A7FB979379EB9E5E41C6D4758BF6F
:1007C000BB49D094EB113113F0B5046845680600BD
:1007D00023002A00C6468068F16803430A4300B537
:1007E000134304D101F0A0FD03000B43FAD02A0605
:1007F000230A6040270613432A0A3A43070CBC46E3
:1008000069404B40984663460F041F43424003042F
:100810005A4043467B4032607360C20E4B01134323
:10082000C90E40010843B360A10FAB000B43A20007
:10083000A4185D41EB01620E1A43E4016B0E2343E1
:10084000F0601E0017005B0FD100F0001943801903
:10085000794180BCB846F0BDF0B5DE4657464E46FD
:100860004546E0B5B84B8DB01B78002B00D1ECE0CD
:1008700008AB9846B54BB64C0393B64BB64F0493B2
:1008800010220499404616F07FF8B44B1B78DBB277
:10089000059301F049FDFFF769FF089B5840434667
:1008A0005B680890594043465960AD4B9B69DB0437
:1008B00000D5C0E014F012F9EFF305839B46B9466A
:1008C0005F46A84B256866689A4628003100002FCD
:1008D0001AD001F033FDEFF3108272B653461B6855
:1008E000002BFBD0BFF35F8F2368AB420FD0BFF369
:1008F0005F8F00215346196082F31088256866686F
:1009000028003100002FE4D101F0ECFBE3E763683D
:10091000B342ECD10125924B1600D8694F460540F1
:1009200001F002FD0A22002380185941002900DA53
:100930007DE03A687B6892185B4120606160280026
:100940001C00130010430093019438607C60BFF3D7
:100950005F8F0024834A146086F310880199FFF7A3
:1009600005FF43469B68804A58404346DB689446EF
:10097000594043469860D960039B7C4A1B78DB0052
:100980006344986890425ED00021FFF7EFFE089B19
:10099000184043465B680890194043465960EFF39E
:1009A000108572B66F4A1368002BFCD0BFF35F8FBF
:1009B0006A4B059A1B78934219D0049940460B68FC
:1009C00040681A00089B5A40089242464B684340D0
:1009D00053608B6800934346009A9B685A40CB68EB
:1009E0004146C96800934B4041468A60CB6040460F
:1009F000FFF7EAFE102206000C000498414615F0AD
:100A0000C3FF564B554A1B780133DBB21370BFF35B
:100A10005F8F0022534B1A6085F31088300021004D
:100A20000DB0F0BCBB46B246A946A046F0BD0120C1
:100A30004F4940427DE74F4BDA6BE0231340402B98
:100A400000D039E736E79C609EE74B4B9946186823
:100A500059684A4B9C464A4B9846830E8F011F4368
:100A60008601030C0D041D4332003B0004041219DF
:100A70006B41121A8B41614601C98C4600210090DE
:100A800001910098019980185941C445E5D14B4620
:100A900018605960FFF76AFE08AB9846089B5840FB
:100AA00043465B6808905940434606A8596000F0E9
:100AB00021F906980799FFF759FE43469B6858406D
:100AC0004346DB68594043469860D960244B9B6994
:100AD000DB0436D5274BDA6BE0231340402B30D0B4
:100AE000EFF305839A4640230024039300231D4F10
:100AF00000930194164C00239B4653462568666874
:100B000028003100002B19D001F018FCEFF31089F8
:100B100072B63B68002BFCD0BFF35F8F2368AB42FB
:100B200030D0BFF35F8F5B463B6089F3108853463C
:100B30002568666828003100002BE5D101F0D2FA63
:100B4000E4E713F0CBFFCBE7A4DD002095DD002028
:100B500070130020081200201812002096DD0020DB
:100B600000000640300100D000000340FFFFFF00FE
:100B7000FFFFFF7F0080004000120020001C0420C7
:100B8000002004206368B342CBD1009A019B10007F
:100B9000190080185941484BDA6901231340034377
:100BA0000093019101F0C0FB0A22002380185941F3
:100BB000002949DB039B20606160012B3AD100983A
:100BC00001993E4F38607960BFF35F8F00233C4D41
:100BD0002B6089F31088FFF7C9FD089B58404346F6
:100BE0005B68089059404346596001F09DFBFFF750
:100BF000BDFD43469B6858404346DB685940434629
:100C00009860D960EFF3108672B62B68002BFCD089
:100C1000BFF35F8F2B4B1B78002B19D02A4B03930C
:100C20002A4B0493BFF35F8F0022254B1A6086F393
:100C3000108825E6BFF35F8F00233B6089F310889F
:100C4000039B013B039356E7012021494042B1E752
:100C5000204BDA681F2A23D05A691F2A22D0DA696A
:100C60001F2A25D05B6A1F2B1FD013F037FFFF22EE
:100C7000FF231549DB000A70174A039194460522A9
:100C800063445A604046FFF79FFD104B1022180046
:100C90004146049315F078FE01230A4A1370C1E718
:100CA00000230393039BDAB2E3E71C3B0393F9E7CA
:100CB00002230393F6E7C046000006401812002006
:100CC000300100D0A4DD002095DD002008120020B6
:100CD000FFFFFF7F000003400800034010B5FFF74F
:100CE000BBFD10BD10B5024800F0E0F810BDC046D5
:100CF00014DC002010B50822014915F045FE10BD96
:100D000014DC002030B54B1E012900D1A7E0664A53
:100D100011780D112C0030349F2900D9A2E0047005
:100D2000012B00D1BEE00F21147821400C0030349B
:100D3000092900DD98E04470022B00D1B2E054781C
:100D40002511290030319F2C00D990E08170032BB0
:100D500000D1A7E00F2121400C003034092900DD2B
:100D600087E0C470042B00D19CE094782511290001
:100D700030319F2C00D97FE00171052B00D191E02B
:100D80000F2121400C003034092900DD76E0447148
:100D9000062B00D186E0D4782511290030319F2C14
:100DA00000D96EE08171072B00D17BE00F2121403B
:100DB0000C003034092966DCC471082B00D171E0C5
:100DC00014792511290030319F2C5FD80172092B2D
:100DD00068D00F2121400C003034092958DC4472BE
:100DE0000A2B5FD054792511290030319F2C52D81D
:100DF00081720B2B56D00F2121400C003034092971
:100E00004BDCC4720C2B4DD0947925112900303164
:100E10009F2C00D9073101730D2B43D00F212140A6
:100E20000C003034092901DD37310C0044730E2BDE
:100E300038D0D1790C11220030329F2900D90732E5
:100E400082730F2B2ED00F220A4011003731092A4E
:100E500001DC30321100C173102B23D0103000237D
:100E6000037030BD07345AE737310C0063E70731B0
:100E70006CE737310C0074E707317DE737310C0040
:100E800085E707318EE737310C0095E707319DE79D
:100E900037310C00A3E70731AAE737310C00C472E1
:100EA0000C2BB1D1C018DAE714DC002030B50025D6
:100EB00089B004000922002101A8009515F05EFD0B
:100EC0000922002105A8049515F058FD4B236A4618
:100ED0006846137004A90D2218F006F9152108229E
:100EE0002000694415F050FD09B030BDEFF31080CB
:100EF00072B6034A1368002BFCD0BFF35F8F7047B4
:100F00002C0100D0BFF35F8F0022024B1A6080F3E8
:100F1000108870472C0100D070B5EFF3108C72B6BA
:100F20000D4D2B68002BFCD0BFF35F8F0724CB083F
:100F3000C618C05C01230C40A3401C0004400342BF
:100F400007D103433370BFF35F8F2C608CF310889D
:100F500070BD100013F0AAFD2C0100D0F8B5474673
:100F6000CE46884680B5EFF3108C72B6214D2C68C2
:100F7000002CFCD0BFF35F8F9A422CD8D4080727EF
:100F8000055D061901241740BC402C421FD00721E3
:100F90000127894609E0D408055D06194C46390049
:100FA0001440A1400C00294211D001329342F2D2E8
:100FB00001204042BFF35F8F00220E4B1A608CF37A
:100FC000108800280FDBC0BCB946B046F8BD2C43E2
:100FD00010003470EEE7BFF35F8F00232B608CF3BB
:100FE0001088012040424346002BECD0089813F0B3
:100FF0005DFDC0462C0100D030B5EFF3108C72B609
:101000000A4C2368002BFCD0BFF35F8F072301221B
:10101000CD0819408A40435D93434355BFF35F8F2A
:10102000002323608CF3108830BDC0462C0100D013
:101030000021044B044ABFF35F8F02C39342FAD1ED
:101040007047C046000100D0800100D0044A1078EB
:10105000431CDBB2172B00D9102313707047C04616
:10106000D810002000B5054B83B001000093182272
:101070001F230348FFF772FF03B000BDE092011089
:10108000141B0020142310B50100188804331B889A
:10109000984710BD162310B50100188802331B882D
:1010A000984710BDF8B54746CE4680B50F1E19D0FB
:1010B00014239946043304000025012698464B4624
:1010C0001888434621681B88984701C4431E9841ED
:1010D000013540420640AF42F1D13000C0BCB946B4
:1010E000B046F8BD0126F8E730B50C2083B001F01A
:1010F0003BFCFFF733FB00280ED0944B944A1A6058
:101100005A609A60DA601A615A619A61DA611A6209
:10111000904A5A6203B030BD8F4CA06701F078FC52
:1011200001228E4B1A60636C012BFCD103228C4B85
:101130001A60894A936B012BFCD101330121894A42
:1011400089480093043301F0B7FB0523874A0093D5
:101150000121874801F0B0FB864B5A68FF2A02D86C
:10116000802252005A608022784C7D4B2169120106
:10117000804D1A60002905D0606914F0E5FF013048
:101180000138FDD1E0217B4B02201A6811408022FA
:1011900052012A431160196848400321014011603F
:1011A00004219A681142FCD08022802192012A43B6
:1011B00009011160802252005A606F4B23616F4B0E
:1011C0005968FF2900D85A600321644A6B4B1160AB
:1011D00002399A681142FCD0E0201A68104080223F
:1011E00052011A4310601868484003210140022050
:1011F000116062498A681042FCD080229201134338
:10120000802212011A6080225D4B52004A606361A5
:101210005C4B5968FF2900D85A6080225A4BE1691B
:101220001201584D1A60002905D0606914F08CFF36
:1012300001300138FDD1E02252490B681A40802369
:101240005B012B431A60802380229B012B431201F8
:101250001A6080223E4B52004A60E3614B4B596852
:10126000FF2900D85A608022494B216A1201474D5C
:101270001A60002905D0606914F066FF013001385A
:10128000FDD1E02241490B681A4080235B012B43CA
:101290001A60802380229B012B4312011A60802355
:1012A00080225B004B602A4BD2022362394B596883
:1012B000914200D25A608022374B616A1201354D4B
:1012C0001A60002905D0606914F03EFF0130013832
:1012D000FDD1E0222F490B681A4080235B012B438C
:1012E0001A60802380229B012B4312011A60802305
:1012F000DB024B60174B6362284B5A68FF2A02D807
:10130000802252005A608022254BA1691201234D90
:101310001A60002905D0606914F016FF0130013809
:10132000FDD1E0221D490B681A4080235B012B434D
:101330001A60802380229B012B4312011A608023B4
:101340005B004B600E4BA361E4E6C046181B002017
:10135000006CDC021BB70000008000403CB0004085
:1013600030B00040002F685900800240008C864752
:1013700000C0024030800040001BB7003C800040AD
:10138000405973075480004054B0004060800040D2
:1013900060B000406C8000406CB00040488000406D
:1013A00048B00040014B8000C0587047181B002017
:1013B000094A830094464022634410B51C68C0006B
:1013C0006240C02414408022520113431C60034B2E
:1013D0009C466044416010BD04C001400040014093
:1013E0000A4B80009C4604236044002901D00C2352
:1013F0000821002A00D10B00026853400C221A4039
:1014000080235B01184302607047C04604C001405E
:10141000084B80009C466044002905D080239B0136
:101420001843022303607047C0239B011843022323
:101430000360F8E704C00140D0231B061B6830B5E9
:101440000500581E83410F485C4284460720302324
:10145000284023408000EC08814020000A4D3C30A9
:1014600063448000A40041511B19002A04D080224B
:1014700092011343196030BDC022920113431960D9
:10148000F9E7C0460041014000400140D023F0B5DB
:10149000C64604001B0698461B680C4F9B00F85874
:1014A0000D00160000B5044209D1044332002900A2
:1014B000FC500D2000F09CF880BCB846F0BD13F045
:1014C0000DFB43461B689B00F858EEE700DC00204C
:1014D00010B504000D2000F07FF9D0231B061B6817
:1014E00002499B005A58A2435A5010BD00DC00200C
:1014F0000123D0228340120693629361094A83003C
:101500009446402263441968C0004A40C0211140FB
:101510008022520113431960034B9C46052360440B
:101520004360704704C001400040014001238340F4
:10153000002904D0034A1360034A13607047034A2A
:101540001360FBE780E200E000E100E080E100E002
:1015500001238340014A13607047C04600E200E067
:10156000084B10309B688000C358002B07D0064AF8
:1015700000209B1A2F229A424041C0B2704700209F
:10158000FCE7C04600ED00E0DC100020024B10300C
:101590009B688000C058704700ED00E070B50D00FA
:1015A000EFF3108672B60F4A1368002BFCD0BFF31E
:1015B0005F8F0D4B10309B6884001B590B4A934280
:1015C00003D09D4201D013F089FA074B9B681D514F
:1015D000BFF35F8FBFF35F8F0022024B1A6086F369
:1015E000108870BD240100D000ED00E0CD01001096
:1015F000F0B557464E46DE464546E0B585B0060096
:1016000002911700EFF3108B72B6674A1368002B34
:10161000FCD0BFF35F8F0025644B5D579A46002DC9
:1016200000DAA4E06B00624C03935B199B009846C0
:10163000A146C1444B4652469B79103613705D4B10
:10164000B2009B68019299580B1B2F2B34D95A4B2F
:10165000994200D0A4E0039B584A9C46584B6544ED
:10166000AD006353434602336519E418554B01211D
:10167000043B1B1B1B055B0D13436B80524BEF712F
:10168000AB80FF23AB71029BAB604B460B43190051
:10169000484B019A9B689950BFF35F8FBFF35F8FF0
:1016A0000022414B1A608BF3108805B0F0BCBB469A
:1016B000B246A946A046F0BD01200A008243D37974
:1016C000BB422FD845464E46130040491B1B5B4189
:1016D0005943090D3A4B63533A4B02356519043BA4
:1016E0005B1B1B05354D5B0D2B4373800426B446F5
:1016F000E0444444131F1B1B4C46A17102991B0577
:10170000A16049465B0D2B43A380314BE771014338
:101710001360BDE75800C01880002018C679BE428B
:101720002BD902000623D356002BF3DA101D824674
:101730002848804604267642B446E14450464E4648
:10174000361A3005400D824656461C4895710643B0
:101750009680039A944665441D4AAD006419226040
:101760004246A371029BA280E771A36090E713F049
:10177000B5F9002553465D5754E7101D8246908801
:101780004005001584464046D4446646043020187F
:10179000301AE0260005400D360230438046C9E786
:1017A00013F09CF957E7C046240100D09DDD0020CE
:1017B000DC10002000ED00E0CD01001000E0FFFF94
:1017C00000A1FFFF0C11002001BDFFFFAAAA00002D
:1017D0000148804701BD0000F0B5DE4657464E4641
:1017E0004546E0B50C0083B0EFF3108972B6584A55
:1017F0001368002BFCD0BFF35F8F564B9A68030031
:1018000010339F00D559544A9046954232D0A54294
:1018100043D0524EAA1B2F2A2CD801228240924636
:1018200051464F4A12681140019151464D4A11608C
:10183000BFF35F8FEFF305829346002A33D1012374
:101840002A009A4393689C4208D177E04B005B18CA
:101850009B00F3189968A1422AD01A00062151561C
:101860000029F3DA019B002B19D052463E4B1A6037
:101870003B4B1A60374B9B68DD51BFF35F8FBFF363
:101880005F8F0022324B1A6089F3108803B0F0BCDE
:10189000BB46B246A946A046F0BD1500EAE752464F
:1018A000304B1A60E6E79342C9D013F017F9C6E748
:1018B00006215956002921DB4A00501880003418AF
:1018C0008046A0689860E079D8710620205698710B
:1018D000002824DBA488F01A640524154444001968
:1018E000E0240005400D24022043988052181F4B2D
:1018F0009200B6181A781970B271B3E759460029E8
:101900000FD1FF3191711A49918018490A789A7163
:10191000184A9B1B5B415A43120D0A70A2E71648F6
:10192000E3E7164A1649D21A083A5002400D01431D
:101930009980144952080A43DA8093E706215156E8
:1019400013000029B8DA5A46002AEAD14546DCE7F6
:10195000240100D000ED00E0CD010010DC100020DB
:1019600000E100E080E100E080E200E09DDD002099
:1019700001BDFFFFAAAA000001BD00001611002052
:1019800000F0FFFF00F8FFFF032310B50400074A33
:1019900018409446C0009C43FC3383406444226852
:1019A00081409A4313000B43236010BD00E400E024
:1019B00070B5EFF3058101240443EFF3108C72B688
:1019C000214A1368002BFCD0BFF35F8F1F4B05002B
:1019D0001F4AED1A6D416A43120D1E4D8900AE6813
:1019E00052B27658A6421CD00621595691421CD0BC
:1019F00012215956914222D01E215956914220D08F
:101A00002A2159560324914210D0134B19781A7089
:101A10008171BFF35F8F00220B4B1A608CF310882B
:101A200070BDAB680D4C5C50EFE7002461000919F4
:101A300089005B18FF21997109499980E5E7012424
:101A4000F4E70224F2E7C046240100D0DC100020B5
:101A5000AAAA000000ED00E09DDD0020CD010010ED
:101A600001BDFFFF054B064A1360064A1360536031
:101A70009360D3601361536193617047808080806D
:101A800000E400E004E400E01F2110B5091A024858
:101A9000FFF7B2FA10BDC046A9DD002000B5074B24
:101AA00083B001000093002205230548FFF756FA92
:101AB000002801DB1F23181A03B000BDFC9201109F
:101AC000A9DD002070B504000E001500FFF7BEFA76
:101AD0000100200000F006F8A680E580BFF35F8FCC
:101AE00070BDC046024B9C4661448900016070474E
:101AF0004000003410B50400FFF7A8FA01002000F0
:101B0000FFF7F0FFFF232371BFF35F8F10BDC046C7
:101B100010B50400FFF79AFA01002000FFF7E2FF7A
:101B2000FF23A380BFF35F8F10BDC04610B5040034
:101B30000120FFF797FA044B9C4660448000206028
:101B4000BFF35F8F10BDC04640000034034B9C467E
:101B5000614489000160BFF35F8F7047400000342B
:101B600083680B4810B58446614462440901120140
:101B70009A18591854684B6801209C4201D802D029
:101B80000020C0B210BD12680B689A42F9D8F7E77E
:101B9000FFFFFF0F0A4B1968EFF3108072B60A6857
:101BA000002AFCD0BFF35F8F1B68BFF35F8F00225A
:101BB0001A6080F3108840BF002000217047C046A3
:101BC00024DD0020F8B557464E464546DE46E0B5D2
:101BD00099460CAB1C780DAB1B78060090469A46D4
:101BE0000768002C11D1BC7B002C42D065003B68FB
:101BF0002D19033D59194B78BB73002B00D1FB7392
:101C000000238B704B700B7004E065003B682D194E
:101C1000033D5919B2682A4B94464246E3181B010A
:101C200063441A604A465A600A9A9A600B9ADA60CC
:101C300000238B704B700B707B7B9B46002B2BD053
:101C400022005946B8687B6898473A68002816D041
:101C50005B4658465B005B445519033BA870D1189E
:101C6000D35C002B00D06B705B460C707B73A3457C
:101C700013D0F0BCBB46B246A946A046F8BD5B46B1
:101C80005B005B44033BD3189C705119525D002AE2
:101C900000D05A705B460B707C7342464B46307DD9
:101CA00000F0A2FB051E06D05346002B03D12100F5
:101CB000306800F0C3FD0E9B002BDAD01D70D8E712
:101CC000FFFFFF0FF0B5DE4657464E464546002360
:101CD000E0B58BB00893664B8200D45800239B4636
:101CE000099000F021FB626806000F00EFF31085F9
:101CF00072B61368002BFCD0BFF35F8F23689C463D
:101D00005B7B9946002B68D0A2685A4B90464B44A7
:101D10001B01984443461A685B6810001900801B39
:101D2000B941002963DD099800F05EFB0023002221
:101D3000984600230692079300239A466368BFF3F0
:101D40005F8F5A461A6085F310885346002B08D1DE
:101D50000028C6D10BB0F0BCBB46B246A946A0468F
:101D6000F0BD089B414618024B461843D0476268B5
:101D700006000F00EFF3108572B61368002BFCD03D
:101D8000BFF35F8F002F4FDB33003B4302D023694B
:101D9000002B60D12368D97B002907D04A00521854
:101DA00019688C4649466244033A51709A7B002A6E
:101DB00001D14A469A734A46DA734B46E168013BC1
:101DC000CA5C0132CA545B4623616368BFF35F8F0C
:101DD0005A461A6085F3108883E70023002298464C
:101DE000002306920793002300209A46A6E70029C5
:101DF00001D1002897D10021604600F09DFC4346A8
:101E00001A685B680692079343469B689A46434666
:101E1000DB689846E3684B44013B1B7808931B0240
:101E200003432361002089E72369002BB2D0069A7F
:101E3000079B921BBB41002B15DB594604910121E6
:101E4000039149460291414601915146200000917B
:101E5000FFF7B8FEB7E700F067FA32003B00121850
:101E60004B41002BE9DA0122034B5242E5E7C04621
:101E700034CC0020FFFFFF0FFFFFFF7F10B5144C95
:101E80006368002B04D00A211248FFF72BFE10BD17
:101E90002300114A1021206800F068FB032000F0A5
:101EA00037FA032000F010FB03200C4900F056FA2B
:101EB000FFF7CCF80A4B9C4603232375D0231B065F
:101EC0001B6860446375074B80006060DC60DAE784
:101ED0002411002024DD0020611B0010C51C00100F
:101EE0004000003434CC002000487047241100200A
:101EF000F0B557464E464546DE46E0B585B00193FF
:101F000010AB1B780600039300239A469846009274
:101F10007268EFF3108972B61368002BFCD0BFF320
:101F20005F8F3568AC7B002C49D067002B683F1968
:101F3000033FDB195A78AA73002A00D1EA73B1680B
:101F4000484A8C4600980199A21812016244106018
:101F500051600E9991600F99D16042469A705A7003
:101F60001A706B7B9B46002B45D022001900A86895
:101F70006B6898472A68002830D05B4658465B005B
:101F80005B44D719033BB870D118D35C002B00D049
:101F90007B705B460C706B735C452DD0F3681B192E
:101FA000013B18787368BFF35F8F42461A6089F36C
:101FB00010885346002B2CD10002204307E07368A1
:101FC000BFF35F8F1C6089F310880120404205B089
:101FD000F0BCBB46B246A946A046F0BD5B465B00DE
:101FE0005B44033BD3189C70D119D25D002A00D00A
:101FF0005A705B460B706C73307D009A019B00F049
:10200000F3F982460028C9D02100306800F016FCA0
:10201000C4E7039B002B23D00E9B00200F99984709
:10202000030004000D000B431AD000290ADA009ABD
:10203000019B121BAB4100920193002B0ADB039B17
:102040009A4665E700F070F924184D410094019517
:10205000002DF4DA0123044C5B4200930194EEE777
:102060000020B4E7FFFFFF0FFFFFFF7F70B542685E
:102070000400EFF3108572B61368002BFCD0BFF399
:102080005F8F2068CEB2437BB3420AD0FF230B4060
:102090005A00D318026894466344033B9B78002B94
:1020A00013D0E268FF2394460B406344013B0A0AC5
:1020B0001978D2B291420ED000206368BFF35F8FCF
:1020C00000221A6085F3108870BD22698A42F3D11C
:1020D00000202361F1E7310000F0B0FBEDE7C046DE
:1020E000407D7047F0B504000D0006267642F717D4
:1020F000C64636196F4100B584B08F4214D811D04E
:1021000000F012F932003B00121A8B41002B15DC53
:10211000002B3ED02000290000F010F904B080BC54
:10212000B846F0BD8642EBD90026002700F0FCF847
:1021300032003B00121A8B41002BE9DD0023029391
:102140000193154B3200009314483B00FFF7D0FE7B
:102150000028DFDB00239846BC46114A114F7B6AFA
:102160009C4504D8B96A8E42D4D99C45D2D1116815
:10217000EFF3108072B60B68002BFCD0BFF35F8FBB
:102180001368BFF35F8F4146196080F3108820BF4A
:10219000E5E7002ABED0D1E7951B001024110020EE
:1021A00024DD00200040054070B5060000F0BCF8BA
:1021B000FA2204000D00002330000021920014F0E8
:1021C0003BFB00196941002902DBFFF78BFF70BD63
:1021D000012001494042F8E7FFFFFF7F70B5EFF3B0
:1021E000058305000C0084B0002B0AD0164A00209D
:1021F000536A9C4203D8926A0130AA421FD304B0AA
:1022000070BD124E02930193114B020000933000F7
:102210000B00FFF76DFE011EE8DD20BF3000FFF769
:1022200025FF094B0020596A8C42E8D89B6A01308F
:10223000AB42E4D2641A631E9C41E0B2DFE7E41AC9
:10224000631E9C41E0B2DAE7004005402411002003
:10225000951B0010F0B5EFF30582D6464F46464673
:102260001000C0B51038EFF3108872B6214C236807
:10227000002BFCD0BFF35F8F0123190081401E4D5E
:102280001F006963AA461D4D29601D4D2E78AC467E
:102290003500C5402F402B4209D1BFF35F8F276027
:1022A00088F31088E0BCBA46B146A846F0BD534654
:1022B000144D5F6A83005D59AF420ED3124A8E43BC
:1022C0009B5862461670BFF35F8F0022226088F32E
:1022D0001088002BE6D09847E4E70C4B92009C4610
:1022E000624413681360BFF35F8F0023236088F399
:1022F0001088D7E7280100D0004005403C70054019
:10230000A8DD002030DD0020E4180020D03F05408B
:1023100010B50100024A0348FEF7FEFD10BDC0469D
:102320002093011097DD0020034B596A0A00986A38
:10233000596A8A42FAD1704700400540064A536AFA
:102340009942FCD807D1044B02E05A6A914202D16B
:102350009A6A8242F9D370470040054070B5040084
:102360000D00EFF3108672B61A4A1368002BFCD0EA
:10237000BFF35F8F002D1BD02000FFF707F9164930
:1023800081420AD02000FFF709F901212000FFF760
:10239000CDF80123A340114A1360114BA400E5506E
:1023A000BFF35F8F00220B4B1A6086F3108870BD5D
:1023B0000B4BA200D5500122A2400A4920000B7805
:1023C00093430B700449FFF707FA00212000FFF741
:1023D000ADF8E5E7280100D055220010386005402F
:1023E000E4180020A8DD0020F0B54F46D64646464A
:1023F000C0B507002F4C616A0D00A66A616AA94248
:10240000FAD18B4208D805D00120E0BCBA46B146CB
:10241000A846F0BDB242F7D9EFF3108A72B626484B
:1024200001680029FCD0BFF35F8F0125BD4023491F
:10243000204C8846097889462943C9B28C464146D2
:1024400060460870391D1E48890065630A51B9004D
:102450000B50216A0020294219D0616A0800A66A3F
:10246000616A8142FAD18B4219D801D1B24216D8A1
:10247000CC451DD00F4B1F201D625D63012307401B
:10248000BB40104A1E38136043464A461A70BFF3D9
:102490005F8F0022084B1A608AF31088B5E700208E
:1024A000BFF35F8F0022044B1A608AF31088ACE7F9
:1024B0000120ECE700400540280100D0A8DD002005
:1024C00030DD002080E200E0EFF3108C72B60A49A4
:1024D0000B68002BFCD0BFF35F8F01238340074ABA
:1024E0000748136202789A430270BFF35F8F00239C
:1024F0000B608CF310887047280100D00040054025
:10250000A8DD002070B5050014001600002915D0C4
:102510000C00002A12D080686B6898472968002850
:102520000ED073009B196200033B1219CB18033ABB
:102530009C7088188A5C002A15D10670200070BD36
:1025400063001B197200033B9219CB18033A9E706B
:1025500088188A5C002A02D104703400EEE75A70B1
:1025600004703400EAE75A700670E7E730B583601C
:102570000023CCB243730133047342608373C4738A
:102580000D000068012C06D9421C0133DBB2137028
:1025900003329C42F9D1FF2129404B0059180023F6
:1025A00040180338437030BDF8B5CE4647460600A4
:1025B0000C0080B5002907D04D0003686D18033D5D
:1025C0005A195778002F04D12000C0BCB946B04634
:1025D000F8BD7900C91903398846434459788946BA
:1025E00000215970517073683A0021008068984743
:1025F0003368002814D042469A18947059195B5DCC
:10260000002B00D053700F70270049463000FFF7B1
:10261000CBFF390002003000FFF774FF0400D3E75E
:10262000424641465D19AF709A185B5C002B00D0A2
:102630006B701470E9E7C046F0B557464546DE4674
:102640004E46E0B50D006B0001685B19DF1E04000B
:10265000C85D83B00192CA19002850D043001B18EE
:10266000033BCB185E78B446002E1AD1019E002E93
:1026700042D0E67B002E04D073009B19CB18033B9D
:102680005D70A37B002B00D1A573E57300282FD1CB
:102690000023537003B0F0BCBB46B246A946A04627
:1026A000F0BD72006244033A89184A7890460022CD
:1026B0004A7091465A70010032002000FFF722FF55
:1026C00043468246002B07D05B0021684344033B0E
:1026D000CB185A78002A16D1424651462000FFF7FF
:1026E00011FF2168019BCA19002BC2D10028CFD04D
:1026F00043001B18033BCB1800219970C8E7019BCE
:10270000002BB6D1C4E75000801803380918487868
:10271000834648464870587041462000FFF7F2FE55
:10272000594680462000FFF73FFF41460200200047
:10273000FFF7E8FE8046CFE7F0B557464546DE4650
:102740004E46E0B583B00191457B04006B00006804
:102750005B19DF1EC15DC219002952D04B005B1806
:10276000033BC3185E78B446002E1CD1019E002E98
:1027700044D0E67B002E04D073009B19C318033BA2
:102780005D70A37B002B00D1A573E573002931D1C7
:10279000002328005370617303B0F0BCBB46B246FF
:1027A000A946A046F0BD72006244033A8018427800
:1027B00090460022427091465A7020003200FFF786
:1027C000A1FE43468246002B07D05B0021684344AC
:1027D000033BCB185A78002A17D1424651462000B5
:1027E000FFF790FE019B01002068C219002BC0D1A9
:1027F0000029CDD04B005B18033BC3180020987014
:10280000C6E7019B002BB4D1C2E750008018033803
:102810000918487883464846487058704146200059
:10282000FFF770FE594680462000FFF7BDFE414687
:1028300002002000FFF766FE8046CEE770B5040078
:1028400000292CD0437B8B422ED0056848004018CD
:10285000033828188278002A21D053009B18033BA4
:10286000EA5CEE188A4202D11BE0002A08D053002D
:102870009B18033BEB185A788A42F6D142785A707B
:1028800000230122837043702000FFF7D5FE617B97
:1028900002002000FFF736FE6073012000E00020F8
:1028A00070BD43783370EBE701221900FFF7C4FED7
:1028B00060730120F4E7C046F0B5C646040000B5D9
:1028C0000C2090461F000E0013F03EFC4101091A37
:1028D0008D01691AC90009188901404613F034FCBA
:1028E000069B3F041A0323681743002B22DB1A4B75
:1028F0001A4DE21853425A4180235B019C46120351
:10290000174B62441A60174B1A601100AB68994369
:10291000FBD1C022231D92011A4321232660A0600F
:1029200013602368002BFCDA0823E760136080BC87
:10293000B846F0BD3F2322681340B342D7D1A36805
:102940001B051B0D8342D2D1EE22E368D202134055
:10295000BB42CCD1EBE7C0460040FDBF00C0004009
:1029600000E0004000F000408023024A9B00034347
:10297000D36270470080054010B5140080221B4BC5
:10298000D2051A6000281AD00123194A1843194B9E
:10299000DA61194A42401A62596298628022134BE6
:1029A000D2051A601549164A1160E022D2041A6055
:1029B000002C07D18022134B12061A6010BD0D4B5C
:1029C000D861EBE763011B1B9A00802312191201E7
:1029D0005B049A4200D30C4A0C4B1A60054B5A60B8
:1029E0008022084BD2051A60E8E7C04600B00540D7
:1029F000D3C007B0008005402D3FF84FFCFF010019
:102A00000820014000A00540FFFFFF009C3200208D
:102A1000AA23064A1B0113602F230549D360054BE7
:102A200019605368002BFCDA7047C0460040024032
:102A300000B0FA000060024010B501F003FC00F0A5
:102A400067FB00F02BFD00F0D5FD06F0F9F801F072
:102A500089FC00F09FF906F063F810BD40BA80B21F
:102A60007047C04600BA7047F0B5C646040000B5CE
:102A700008008846160016F0C3FA05002000002D55
:102A80001AD02378002B1AD0A6196219964216D3B1
:102A90004246177806E063780134002B0FD06219A4
:102AA00096420CD39F42F6D12A004146200016F0F0
:102AB000D5FA0028EFD1200080BCB846F0BD002038
:102AC000FAE7C046F0B500222026845C8B5C9C426D
:102AD0000AD025003543EDB22F00613F192F08D8E9
:102AE0003343DBB29D4204D10132002CEDD10020F2
:102AF00000E00120F0BDC046F8B54746CE4680B59F
:102B0000070104003818000110308146404D414E45
:102B10002B688846B144002B02D02A7AA24258D0B2
:102B2000EB68002B02D02A7DA2424BD0AB69002B70
:102B300003D02022AA5CA2423DD06B6A002B03D0B6
:102B40002C22AA5CA2422FD03B191B01F318DB7B7D
:102B5000002C04D0B27A022A41D0012C06D08D225A
:102B60005200B25C022A43D0022C05D02A4AB25C41
:102B7000022A43D0032C03D0284AB25C022A42D056
:102B8000032B0DD8264D9B00585906F047FB002219
:102B90003C1924013619F37B9B005A510423F3732B
:102BA000C0BCB946B046F8BD41464846AA6A9847F7
:102BB00000236B62C8E741464846EA69984700230C
:102BC000AB61BAE7414648462A6998470023EB6063
:102BD000ACE748466A68984700232B60A0E7F27B81
:102BE0009A42BAD104233C1924013619F373D7E76A
:102BF0002022FF32B25C9A42B6D1F3E7094AB25CB6
:102C00009A42B7D1EEE7084AB25C9A42B8D1E9E7F6
:102C100094250020CC2500202A0200003A03000061
:102C2000842500202F0200003F030000F0B5DE469F
:102C30004E46574645468346E0B5030187B04F4AA6
:102C400001935B441B01D618F27A012A00D992E065
:102C50004B4992008C58002C00D17FE010331D00AE
:102C6000464B9C466544280016F0CAF9A022123053
:102C700081B29200362000F0CDFE8146002866D059
:102C800003AC0C220021200013F078FE3089FFF7FE
:102C9000E5FE01232080A3700C22FF33210048466B
:102CA000A38001F075F9374B0C269A464F46013D3B
:102CB0006B1C98466B78002445462E2B06D156E0B7
:102CC0006B7801340135E4B22E2B01D0002BF7D103
:102CD0004346EB1A9BB299462300F318534542DC56
:102CE00022003100380001F007FA731C4A469BB2FB
:102CF00034194146380001F087F9A3B22A785E1CE6
:102D0000B6B2002AD4D11C003100380001F0F4F929
:102D10001D4B02340422029302A9A3B2380001F031
:102D200073F9164A019B944615495B441B016344A1
:102D30008C46DA7ADB7B15499B0092005858624436
:102D40003523390006F0F4F9380000F0C5FF07B06C
:102D5000F0BCBB46B246A946A046F0BD0021FFF735
:102D6000CBFEB472F3E7380000F0B6FFEFE70022C5
:102D700000239146B1E7064811F098FECC250020CB
:102D8000C4250020FEFF0000000100018425002072
:102D9000449301107047C04682B0012801D902B0A7
:102DA00070478000002903D00A68044BC250F6E740
:102DB000034A024B12680192C250F0E7C42500207A
:102DC000DCAD0110F0B546464F46D646464BC0B581
:102DD000464E8D273400002598467F00A37A022BAB
:102DE00035D02CD8002B1FD0414B9946414B9A46E9
:102DF000FDF774FFB37A80B2022B40D0F35D022B53
:102E000043D04B46F35C022B48D05346F35C022B75
:102E10004DD002230122A37200232081E3722800F7
:102E200022736373FFF702FF01351134EDB2FF34F3
:102E3000042DD3D1E0BCBA46B146A846F0BD032B61
:102E40004ED12368002B13D10023A372ECE7237B20
:102E5000013BDBB22373002BE6D1637B0133DBB292
:102E60006373042B29D023732800FFF7DFFEDBE711
:102E7000013B2360002BD7D10023A372D4E7338911
:102E80008342B5D0F35D022BBBD11733FF33F35A26
:102E90008342ADD04B46F35C022BB6D18A239B0014
:102EA000F35A8342A4D05346F35C022BB1D1CE2314
:102EB0009B00F35A8342ACD19AE7E37A002B08D106
:102EC00042465268002A04D001226373E2722273E0
:102ED000CAE700212800FFF70FFE0023A372A3E733
:102EE000054811F0E3FDC046C4250020CC25002094
:102EF0002A0200003A03000078930110F0B583B075
:102F00006B469C1D0023238001331E00064018429F
:102F100005D0002903DD03780139637001300322F5
:102F200013000340104205D00023012938DD038837
:102F30000239023007294BDD083907220F00974379
:102F4000020005000832BF182A689A189A429B416D
:102F50005B42D2186B680835D318934292415242B3
:102F60009B18AF42F0D1CA08551CD200ED00891A57
:102F70001A044019120C1B0C9B18012910DD028841
:102F80009B188A1E012A05DD45885B19052901DD8C
:102F900081885B1851084D1C6D0049004019511A79
:102FA000012901D1027822702288D218130C120450
:102FB000120C9B18180C1B041B0CC018002E04D0FC
:102FC000030600041B0C000E184380B203B0F0BDD2
:102FD0001A00D0E7F0B54F46D6464646C0B59146F2
:102FE0001A68089B8A46196804000B041B0C090C1C
:102FF0005B181104090C5918130C5B18180C1B04EE
:103000001B0CC318180C1B041F0CC719002C21D053
:10301000FF2300260125984661896068FFF76EFF4F
:10302000C019030C0004070CDF1963891D4207D087
:1030300042463B06380A1B0C104003431F006E40FB
:103040002468002CE8D1002E04D03B063F041B0C62
:103050003F0E1F43534698B2FFF700FD0400484659
:10306000FFF7FCFC2018C019030C0004000C181812
:10307000030C0004000C1818C04380B2E0BCBA4630
:10308000B146A846F0BDC04610B582B0049C00947D
:10309000FFF7A0FF02B010BD10B5FFF72FFFC04330
:1030A00080B210BDF0B5C646040000B500282AD095
:1030B000FF23002600270125984661896068FFF7F5
:1030C0001DFFC019030C0004070CDF1963891D42A2
:1030D00007D042463B06380A1B0C104003431F0032
:1030E0006E402468002CE8D1002E09D03B0638043D
:1030F0001B0C000E1843C04380B280BCB846F0BD24
:10310000F84380B2F9E70148F7E7C046FFFF000047
:1031100003220A4B002103339343094A09481360F1
:10312000FA22120119719918016001201A600871C0
:1031300005499950054A13607047C0464CCC0020A1
:1031400044CC002048CC0020A00FA00F98320020D3
:10315000F0B5D6464F464646C0B500285DD0830739
:1031600000D069E00300394A083B12689A4260D8EF
:1031700037490C30096881425BD31879002861D047
:10318000FA201D88000185420CD85C88A246844242
:1031900008D8981A80B280461619A04205D0308807
:1031A000404502D02B4811F081FC5019814202D0D9
:1031B00044884445F6D100241C71274CA446246859
:1031C0009C4202D9644623601C00994237D983424D
:1031D00013D00779002F10D181420ED0A04224D005
:1031E00005881D800188FA200001814205D04046F3
:1031F0005118488059888A465618B3420DD0317903
:1032000000290AD1A3420DD0FA2135801B8809017B
:103210008B4202D0D31852465A80E0BCBA46B1461F
:10322000A846F0BD61460E60EEE761461C000B60EB
:10323000D6E70A4811F03AFC094811F037FC094872
:1032400011F034FC084811F031FCC04644CC002099
:1032500048CC00200094011098320020BC9301104B
:103260009893011034940110D8930110F0B5C6461C
:103270003B4BCA1C00B513400B2B3FD9FA2212015D
:1032800093423ED899423CD8364A146884425ED86C
:10329000354A126882425AD90500083D291B8AB274
:1032A00090462E8841463200083A521A92B29A420B
:1032B00050D320D0A7193979002924D1FA2212013C
:1032C00096424AD03A88294E9446424608329B1884
:1032D00032689BB2BA4237D0E2186146118041464B
:1032E00000265180FA2116712B80128809018A422A
:1032F00001D0A218538080BCB846F0BD0C2399427F
:10330000C2D90020F7E71F001437BFB2BA42F2D388
:10331000424608329B18FA229BB2120196421CD0F8
:10332000124FE2183968914200D93A6041460027AD
:103330005180FA21177116802B80128809018A4268
:10334000D9D0A4186380D6E7E2183260C5E70848F0
:1033500011F0ACFB074811F0A9FB074811F0A6FBE0
:10336000FCFF000044CC002048CC00209832002014
:10337000509401106894011088940110F0B5D6465D
:103380004F464646C0B500282FD03D4CC31C1C40BC
:103390000B2C30D9FA231B019C4226D8A04224D8FA
:1033A000384BFA229C461B6812019A46364B121B78
:1033B0001E6853469B1B98B21B0490461B0C9A42F6
:1033C00013D908277F4208E01588FB1A5B19A3422E
:1033D00013D22B002800434507D2F2181179002997
:1033E000F2D0108803004345F7D30020E0BCBA4672
:1033F000B146A846F0BD0C24D0E71427B846A04437
:103400004746BFB2BB421CD2012308341371A4B299
:103410001E4B1868130092450ED0A418A0422CD35E
:10342000100008309307E1D0194811F03FFB1B88CA
:10343000F318197900291AD09842F8D16346186018
:10344000EBE7FA270834A4B203193F019BB2B9464F
:10345000BB420FD0F718397101213D80788013806D
:10346000117139884945D3D071184B80D0E7614636
:103470000B60D2E7074811F019FB074811F016FB63
:10348000FCFF00009832002044CC002048CC0020F3
:10349000CC940110889401109C94011024230022E4
:1034A000F0B54746CE4690469946033204259446E9
:1034B00080B5124F124B134CB94441463A68216013
:1034C000614603338B43002D0BD016880021002268
:1034D00000E0030001321960981919002360AA4224
:1034E000F7DB0437B94504D03A68946853685588C7
:1034F000E3E7C0BCB946B046F0BDC046C095011078
:10350000D8C3002000CC002010B5082810D80B4BE1
:103510008000C458FDF74CF8A3681C68002C03D049
:1035200022681A60A30705D1FDF744F8200010BDFA
:103530000024FBE7024811F0B9FAC046C09501101B
:103540001095011070B50C0008280ED800290CD079
:10355000084B8000C5588B0708D1FDF729F8AB68E8
:103560001A6822601C60FDF725F870BD024811F052
:103570009DFAC046C0950110349501100C204042C0
:103580007047C04670B505000C00160082B00029D7
:103590002AD043680A689A4201D102B070BD3360F4
:1035A000300001A9019202F001F9300001A905F0F3
:1035B00061FE01A9300000F025FE392322686A600F
:1035C000E95C343B0B40052B05D0EB69002BE4D0C4
:1035D00028009847E1E7002AF7D00B07F5D5280027
:1035E000291D09F0DBFEF0E7014811F05FFAC04643
:1035F000E49501107047C046F0B5C64600B504001A
:103600000E001700984682B000286AD0099B002B54
:1036100067D0002900D174E0002F00D16FE043464D
:10362000002B69D03F4B0025636100223923200025
:103630006560A560E56025860021E25428300422FB
:1036400013F09CF9089BE56163623C232562364DCB
:103650002A78E2540A9B23613368002B3AD1310067
:10366000200001AAFFF78EFF0122A168E0683B68F5
:10367000994200D0A36043461B68984200D0E360A3
:10368000002A33D02000099B9847002829D1274BD6
:103690003C2698461F683C23E05C00239C46FF289C
:1036A00002D163460020A355002F2CD0BC4236D057
:1036B0003B00FF2207E01B68002B24D09C422ED049
:1036C000013A002A0AD0995D8142F4D10130C0B29A
:1036D000A055E4E7002000210022C8E7144811F0BB
:1036E000E5F9002002B080BCB846F0BD31002000F2
:1036F00001AAFFF747FFC5E70E4B984692E70D4F2B
:103700008DE70C4E88E7FE2807D00130C0B2434653
:103710002870276020001C60E4E70020F7E70648D7
:1037200011F0C4F97D350010A0DD002020CC002070
:1037300008960110DCAD0110F4950110F0B50400FD
:103740000D0016001F0083B000294ED0002E4AD075
:10375000002F46D02B680022002B0CD03368A168C4
:103760008B4200D0A3603B68E1688B4230D1002AD5
:1037700031D003B0F0BD616801220029EED0684667
:10378000009101A9019302F011F8684601A905F022
:1037900071FD01A9684600F035FD39232A68626091
:1037A000E15C343B0B40052B07D1002A05D00B0709
:1037B00003D52000211D09F0F1FDE369002B01D0A4
:1037C000200098473368A16801228B42CBD0C9E71B
:1037D000E360002ACDD16A4629002000FFF7D2FE1F
:1037E000C7E7034FB6E7024EB2E7014DAEE7C0466A
:1037F000DCAD011070B5041E16D04368002B17D144
:1038000039220121A35C194224D11D4B1A68A2421E
:103810002ED01C4A1368A34204D126E01A68A242A3
:1038200003D01300002BF9D170BD22681A60FBE7AA
:10383000051D0021280001F0B9FF0021280005F036
:1038400019FD0021280000F0DDFC39220121A35CD4
:103850001942DAD018008843A0541B070BD4E3693F
:10386000002BD2D020009847CFE723681360DBE716
:1038700000221A60CDE7200009F0EEF9EFE7C0461C
:103880001CCC002020CC0020014B18607047C046A3
:103890001CCC002070B5041E15D03925435DDA0715
:1038A00011D401221343DBB24355C269002A01D06F
:1038B0009047635D05221A40052A04D16268002AF8
:1038C00001D01B0700D470BD2000211D09F066FD4A
:1038D000F9E7C04670B5041E03D03925435D5A0789
:1038E00000D570BD04221343435506F079FC05232F
:1038F000625D1340052B05D0236A002BF1D0200018
:103900009847EEE76368002BF6D01307F4D5200044
:10391000211D09F043FDEFE710B500280AD0392238
:103920000421835C194205D08B438354036A002B26
:1039300000D0984710BDC046021E0ED0084B186834
:10394000002809D03C2102E00068002804D0435C34
:103950000133DBB29342F7D170470020FCE7C04649
:1039600020CC0020F8B505000026002826D00F271F
:103970000BE0012B24D0002B2AD12800FFF7E8FB15
:103980000136F6B2002C19D02500FCF711FEAC7BF5
:10399000002C1AD0013CE4B2AC73FCF70BFE002CF7
:1039A0000CD12B7B2C683B40022BE2D12900082054
:1039B0000136FFF7C7FDF6B2002CE5D13000F8BDA7
:1039C00029000720FFF7BEFDDAE7034811F06EF883
:1039D000024811F06BF8C04638960110509601105D
:1039E00010B5FCF7E5FD0022084B1A70FCF7E2FD6C
:1039F000074B1868002803D107E0C068002804D0EE
:103A0000436F002BF9D001F01FFF10BDA2DD002095
:103A100040DD0020F0B5C1234F464646D6468046DD
:103A2000C0B50D00170084B25B009A423FD008D8A1
:103A30001400433BFF3B9C43012C6AD03C4811F0EF
:103A400035F8A0239B009A42F8D1E31C0324CA1C3A
:103A5000A343A2439B189BB21800103080B293423C
:103A60001ED382421CD8FFF789FC061E19D0002302
:103A700003604346C71813372E4B2904A7430D4351
:103A800047608560C3600CE0FCF792FD01222A4B81
:103A90001A70FCF78FFD002E02D03000FFF762FF96
:103AA00000263000E0BCBA46B146A846F0BD00236F
:103AB0009846224B00269A4600230327994607E0A2
:103AC00043466D1AADB21860002DEAD0804600243E
:103AD0000820FFF719FD0028D6D05246E31CBB434F
:103AE000D31A1A1C9BB2AB4200D92A1C4B460419AC
:103AF00003601334124BBC4391B244600581428190
:103B0000C360002EDCD16D1AADB20600002DDDD1F0
:103B1000C7E70720FFF7F8FC061EC2D000232904E0
:103B20000D4303604360856007734373C481B8E746
:103B30006496011080000100A2DD0020EC05000069
:103B40008200010070B5041E34D002898A421CD95B
:103B50000D008A1A07E023896D1A9B1823812468B7
:103B6000ADB2002C20D06189A942F4D3237B1B077E
:103B700001D1A9420AD1290420682943A160002863
:103B800001D0FFF7EFFE0023236070BD63682000C3
:103B9000191B691889B2FFF769FB002807D0844216
:103BA000E9D0064810F082FF054810F07FFF054875
:103BB00010F07CFF044810F079FFC046CC9601104D
:103BC00098960110B096011080960110030070B510
:103BD000002820D08022520291421AD2002916D009
:103BE00002898CB2A21892B2944212D8057B0120AD
:103BF0007F2D0DD95D68691A1D001035A94207D3C4
:103C000059605989002064185C811A8100E0002005
:103C100070BD0120FCE7014810F048FFE896011054
:103C200010B5002818D080235B02994212D20029D7
:103C30000ED043898AB29A420CD844689B1AA44693
:103C40004381038961449A1A41600281002010BDBA
:103C50000020FCE70120FAE7014810F027FFC046EA
:103C6000E896011010B5002915DB00282FD0002997
:103C700023D003898AB2D3189BB29A4225D8047BF9
:103C80007F2C1CD84468611A416041890381521815
:103C90004281002010BD002819D0494243898AB2D0
:103CA0009A4212D844689B1AA4464381038961440E
:103CB0009A1A416002810020ECE70020EAE744689C
:103CC000611A04001034A142DED20120E2E701486B
:103CD00010F0ECFEE896011010B5002802D0FFF7B6
:103CE00041FE10BD014810F0E1FEC046E89601100B
:103CF00003000020002B04D01B68013080B2002B91
:103D0000FAD1704710B5041E09D0FCF751FCA37B13
:103D10000133A373FCF74EFCA37B002B00D010BD36
:103D2000014810F0C3FEC046F496011010B50028FB
:103D300014D0002912D00368002B07D002890C8907
:103D40001219028118001B68002BF7D102894389E0
:103D5000934204D10A8901609B18038110BD014878
:103D600010F0A4FE0897011010B50C0000281FD019
:103D700000291CD00368002B07D002892189521822
:103D8000028118001B68002BF7D1028943899342F6
:103D900014D1228904609B180381FCF709FCA37BE2
:103DA0000133A373FCF706FCA37B002B03D010BDEB
:103DB0000029FCD0F1E7034810F078FE024810F02B
:103DC00075FEC046F496011008970110F0B54F46F5
:103DD000D64646468146C0B5884692461F00002911
:103DE00000D184E00B89934200D280E0002800D10A
:103DF0007DE053460289FB189A4200DA77E00026FC
:103E000044890CE043465A891B899A423DD04B466F
:103E10005C891B899C424DD05346002B57D04346AA
:103E20005B89E41B9B1B9C4200D91C005546A245A4
:103E300000D925004B465B682A00D81943465B68C9
:103E40007F19991912F0A0FD534676195D1BABB28C
:103E50009A464B465C89BC424CD343465B89B3428D
:103E60004BD305D143461B6800269846002B17D03C
:103E7000BC42C7D14B461B689946002B1FD0434616
:103E80005A891B8900279A42C1D143461B68002BDF
:103E9000BDD006204042E0BCBA46B146A846F0BDBF
:103EA0005346002B23D1BC4219D04B461B899C4260
:103EB0000DD100264B461B68002BADD0E9E75346D9
:103EC000002B14D143461A895B899A4201D0002005
:103ED000E1E743461B68002BDBD10020DBE74B46C4
:103EE0001B689946002BF2D000275C89DDE7102083
:103EF0004042D0E7024810F0D9FD024810F0D6FD4C
:103F0000389701105097011010B5002904D00023F4
:103F10000A89FFF75BFF10BD10204042FBE7C04657
:103F2000F0B5C6460500884616001900002700B502
:103F3000002828D04346002B25D0002A05D122E0B6
:103F40002D68091B89B2002D1DD06C89002901D074
:103F5000A142F5D2641AA4B2321CA64200D9221C96
:103F60004346D8196B6894B29C46361B22006144C4
:103F7000E719B6B212F008FDBFB22D68002E02D0CC
:103F80000021002DE1D1380080BCB846F0BDC0460C
:103F9000F8B5CE46474605008846914680B50028CC
:103FA00024D0002922D0038993421CD31600002775
:103FB000002A02D112E0002D1BD06C89B44200D936
:103FC000340043466868D919220012F0DDFC361B24
:103FD0002D683F19002EEED1B9450DD10020C0BC8F
:103FE000B946B046F8BD01204042F8E710204042F3
:103FF000F5E7034810F05AFD024810F057FDC0469F
:104000006C97011084970110F0B5D6464F4646468E
:1040100004008A46C0B5002805D13AE024685B1B3D
:104020009BB2002C35D065899D42F7D921899F1814
:10403000B9422EDBE91A8A4232DD8AB290466268C2
:104040005146D0187D1B424612F09EFCABB29946F9
:10405000002B1CD02568002D29D02B894B4518D367
:104060004F46002601E0002D24D06C89BC4200D9C7
:104070003C004346F11868682200514412F084FC69
:104080003F1B2D683619002FEDD1B14515D1002009
:1040900001E001204042E0BCBA46B146A846F0BD6E
:1040A00060685146C01812F06FFC0020F3E7102042
:1040B0004042F0E7024810F0F9FC024810F0F6FC2C
:1040C0006C970110849701100B0070B515001189D1
:1040D0001A00FFF79FFC041E06D0002329002A893E
:1040E000FFF774FE002801D1200070BD014810F0D8
:1040F000DDFCC0469C97011005E043898B4205D842
:10410000C91A006889B20028F7D1704743685A5429
:10411000FBE7C046F0B5DE46454657464E4681466B
:10412000E0B5344F83B0396878690AF0A5FA4B4698
:104130005A68314B80461C689B460020557A002CFB
:104140003AD00026844604E0E3682600002B32D0F3
:104150001C00237CAB42F7D1217A002906D03C23F6
:104160007868C35C0133DBB29942EDD14346002B42
:1041700029D02368002BE7D10121637C194203D0A9
:10418000636839698B42DFD163699A46002BDBD0C3
:10419000019221004A46194BA069D047002819D145
:1041A0004B465A68019B9A4221D102239C46E36800
:1041B0002600002BCCD1604603B0F0BCBB46B24613
:1041C000A946A046F0BD2368002BD5D079698B4263
:1041D000BAD1D1E7002E08D0E3680120F3605B4636
:1041E0001B68E3605B461C60E6E70120E4E70448E7
:1041F00010F05CFC7C32002008DC00208C320020B7
:10420000B097011010B5002811D00268002A0ED016
:1042100000290CD00B68002B09D0094B1B68002B20
:1042200005D01C68944203D0DB68002BF9D110BD87
:104230000A681A60DB68002BF9D00268F1E7C04613
:1042400008DC00207047C04610B5041E23D0037D53
:10425000042B05D0072B0FD00020032B00D010BD5E
:10426000200003F025FD00280AD105232375200036
:1042700004F04AF80020F2E703F01AFD002807D006
:10428000431CECD10822638B002013436383E6E7D1
:1042900009232375EBE7014810F008FCFC97011097
:1042A00070B50600806F002803D0FFF715FD0023CE
:1042B000B367746F002C18D06068256800280CD094
:1042C000FFF70AFD21000420FFF73CF9002D0AD07A
:1042D0002C00606825680028F2D121000420FFF737
:1042E00031F9002DF4D1002373670123F46E5B4292
:1042F0003386002C16D06068256800280CD0FFF7A4
:10430000EBFC21000420FFF71DF9002D0AD02C0042
:10431000606825680028F2D121000420FFF712F917
:10432000002DF4D1346F002C16D060682568002869
:104330000CD0FFF7D1FC21000420FFF703F9002D7A
:104340000AD02C00606825680028F2D121000420E2
:10435000FFF7F8F8002DF4D100236822F3663367E5
:10436000B35270BD10B5FCF7B9FC044B80049C46F9
:10437000800C034B6044188010BDC04600C0FFFF96
:104380005011002010B5037D0100012B03D0022045
:10439000FFF7D8F810BD014810F088FB089801100D
:1043A000F8B5CE46474680B5002963D0002866D0D0
:1043B000037D002B60D1002A2BD0324E37001037FE
:1043C00033681B68002B03D113E0DB68002B10D08F
:1043D000DC8A9442F9D11C68002C04D00D68002DB1
:1043E00001D0AC42F1D108204042C0BCB946B04631
:1043F000F8BD0436BE42E3D10B68002B00D0036049
:10440000214BC2821A681860C26004F069FB002068
:10441000EBE71E4B802698461A881D4B194F9C4689
:1044200010239946F601B944013292B2624514D084
:104430003D002B681B68002B03D111E0DB68002BCB
:104440000ED0DC8A9442F9D1013EB6B2002EEBD1F7
:10445000434602201A804042C7E7C0221202E7E723
:1044600004354D45E5D143461A80002AC4D10220C7
:104470004042BAE7074999E706204042B5E71020D5
:104480004042B2E7889C011044DD0020501100201A
:10449000FFFF0000DCAD011070B5041E33D0037DBA
:1044A000002B30D10320FFF72FF8051E2BD001225F
:1044B00023690361E38A0275C382627D4275A26843
:1044C000826022680260002B0CD0154A13689C425F
:1044D00004D11FE0DA68944217D01300002BF9D101
:1044E0000023E360237D012B17D021000220FFF77A
:1044F00029F80C4BAB610C4B1A681D60EA6004F0A4
:10450000EFFA280070BD0025FBE7E268DA600023BF
:10451000E360E7E7E3681360E2E7044810F0C6FAF7
:1045200044DD0020B14E00104CDD00200898011041
:10453000F8B5031E1FD0078DC16A456A5C8E114E07
:10454000781A4019221CB4420BD892B2821A0CD5A8
:10455000491B0CD48022520291420FD2002059856F
:10456000F8BD321C92B2821AF2D45F85F8E70022BD
:1045700000205A85F4E7044810F098FA034810F038
:1045800095FAC046D01600001C9801104098011002
:10459000F8B500281DD0037D012B34D0028D1D4BB2
:1045A000511889B299421BD91900466A458E1A4F93
:1045B000C46A0185F3182A1CBD420BD892B21219A5
:1045C0009A1A11D5A41B1BD48022520294421DD2E8
:1045D0004485F8BD3A1C92B212199A1AF2D403E03B
:1045E0008A42E1D80B00E0E70C4A41851B1B93424D
:1045F000EFD90222438B1343438303F085FEE8E7A0
:1046000000234385E5E7064810F050FA054810F00E
:104610004DFAC046A02D0000D0160000670B000028
:104620005C98011040980110F0B5DE4645465746AB
:104630004E46E0B5BF4DC04A2B6887B001332B60B2
:10464000BD4B1B7801331370BC4B9B465B461C680B
:10465000002C00D1CCE000230593237D002B00D15A
:1046600012E2012B00D115E20A2B00D10FE2B24A6F
:10467000A17F1278914200D158E1A2774222A25C38
:10468000022B00D1FDE00B2A00D9F7E0A122A65CA5
:10469000002E00D15AE1226F002A00D012E2E26E11
:1046A000002A00D10BE2A222A25C0B2A00D9E5E08D
:1046B000A020A34A9619013E3178225C8A4200D29A
:1046C0008DE16023E15A002900D0B9E0200004F018
:1046D00025F9002800D0BFE0A0230022E254A13237
:1046E000A35C062B00D9B7E0012700260133A354B1
:1046F000237D062B00D1B5E008210800627A104026
:104700008046114227D0042B00D05EE12B68226A3C
:10471000FA219B1A99469423E35849009A46982314
:10472000E35898469C23E05843465843504411F0C0
:104730000BFD814500D93EE1A3274346E05DFA2108
:10474000434318004900504411F0FEFC00239846F2
:10475000814500D94AE1676F002F0AD02B68226A91
:104760009A1A4023E15E4B005B185B009A4200D32B
:1047700005E1237D032B00D18AE0092B00D0AEE0B8
:104780002B68226A9B1AF02B00D887E09023E6580A
:104790002000FFF785FD059B002B00D1ADE05B46B7
:1047A0001B68A34200D17EE1059BE268DA604346C4
:1047B000002B00D0ADE023699946E3689846237D3D
:1047C000012B00D16CE121000220FEF7BBFE00238B
:1047D0005C4C2370002E07D00D2148464942B0475B
:1047E0002378002B00D031E74446002C00D034E77A
:1047F000554F00243968002904D11AE00C00C9681B
:10480000002916D00B7D0A2B00D046E12B680A6ADE
:104810009B1AF02BF2D9002C00D1DAE03B688B42D6
:1048200000D143E1CE68E6600220FEF78BFE311E28
:10483000E8D107B0F0BCBB46B246A946A046F0BDE1
:10484000200003F053F9002800D045E7200003F0D2
:104850005BFD002800D03FE7237D01270026062BC3
:1048600000D049E7638BDB0605D52B68226A9B1ACB
:10487000282B00D93E00002398466CE7022701262A
:1048800037E7052A00D801E700230126984662E7AA
:104890002B68226A9B1A282B00D977E7002E00D0BC
:1048A00074E7237F627F0133DBB2E66823779A42A5
:1048B00012D80023234A237713708C33E358002B3C
:1048C00000D17CE02100206998471E4B1B78002B0B
:1048D00000D0BBE6002872D00594340085E7002E96
:1048E000DFD09022A658012B00D854E70A2B00D025
:1048F0004EE7059B002B00D051E75B461B68A342A7
:1049000000D0D9E05B46E2681A604346002B00D134
:1049100051E7238B626A216D0293E38A20000193A1
:10492000231D0093230003F0B9FB44E70594E468DA
:104930005BE7C04650DD0020A7DD002040DD002001
:10494000989C0110A5DD002054DD00203022A15EDE
:104950005E48228E824202D8013211B22186402264
:10496000A25E01278A4200DDC3E6200003F0C8FAF8
:10497000002848D0236F002B42D0237DB9E6786809
:10498000A1463C6800280CD0FFF7A6F939000420A6
:10499000FEF7D8FD002C0AD0270078683C68002874
:1049A000F2D139000420FEF7CDFD002CF4D14C46A5
:1049B00000236367DDE601233E009846CBE6200036
:1049C00003F0A2FC059434000FE7072B00D19DE60D
:1049D00051E73B688B426CD1CE683E6024E70132E0
:1049E000D2B222548A4200D237E76AE6200003F0AE
:1049F00025FF002800D0AEE6E35D0133E355AAE6CB
:104A0000E36E002BB9D0237D022B13D03C22A35E92
:104A10003E21625EDB109B184222A15C0A1C0C291D
:104A200029D82B49D2B28A5C9340284A934220DC91
:104A30004022A3520023482123866033E25A605A61
:104A4000131C824200D9031C4A209BB25B082352EC
:104A5000618E4A0092B2934200D222524823002231
:104A6000E1522233E252200003F084FE0127237D2D
:104A70003FE6184BDCE70C221549D2B28A5C934022
:104A8000124A9342D4DDF4E7134810F00FF81348AC
:104A900010F00CF8124810F009F8124810F006F85F
:104AA000114810F003F8114810F000F810480FF00A
:104AB000FDFF10480FF0FAFF0F480FF0F7FF0F4807
:104AC0000FF0F4FF0E480FF0F1FFC046FE7F00002C
:104AD000789C0110FF7F000084980110DC98011081
:104AE000B0980110CC990110089801107499011028
:104AF000FC990110249A0110A09901103C99011011
:104B00000899011070B5041E16D060682568002849
:104B10000CD0FFF7E1F821000420FEF713FD002D73
:104B20000AD02C00606825680028F2D121000420FA
:104B3000FEF708FD002DF4D170BDC04610B5041E6F
:104B400008D04068002801D0FFF7C6F821000420F3
:104B5000FEF7F8FC10BDC046002800D04175704734
:104B600070B5051E0DD00420FEF7CEFC041E06D045
:104B70001022290011F008FF6068FFF7C3F8200039
:104B800070BD01480FF092FF4C9A0110002800D030
:104B90000161704710B5002804D0037D012B02D0BD
:104BA0008423C15010BD01480FF080FF689A0110A6
:104BB00010B5002804D0037D012B02D08023C15002
:104BC00010BD01480FF072FF909A011010B5002837
:104BD00004D0037D012B02D09023C15010BD0148A9
:104BE0000FF064FFB89A0110002802D0037D012B5A
:104BF00000D070478161FCE710B5002805D0037D27
:104C0000012B03D08C23C150427710BD01480FF017
:104C10004DFFC046E09A011010B5002806D0037D74
:104C2000012B03D90A2B01D0FFF73AFB10BDC04678
:104C300010B50C1E47D0002848D003688B4204D121
:104C40002FE0DA68A24224D01300002BF9D1002310
:104C5000E360237D002B0FD1638BDA0729D4E36E49
:104C6000002B36D1236F002B36D1636F002B36D14A
:104C700000232375E38210BD0A2BF0D0012BF7D05F
:104C80002000FFF70DFB237D0A2BE8D0012BEFD08E
:104C9000E2E7E268DA600023E360237D002BEBD1DA
:104CA000DAE7CB6803600023E360237D002BE3D1C8
:104CB000D2E7022213436383200003F025FB237D08
:104CC000012BD5D0CBE707480FF0F0FE06480FF0D8
:104CD000EDFE06480FF0EAFE05480FF0E7FE054836
:104CE0000FF0E4FE009B01101C9B01103C9B011087
:104CF000549B0110709B0110F0B54E464546DE46B0
:104D00005746E0B505000E0087B0002867D0037D48
:104D1000012B00D1B3E00A2B00D1A1E0026D924635
:104D2000426A059290228258934602699146002B6E
:104D300063D1C38A00269846002B67D0534A136874
:104D4000834257D1C368136000232C6F9846002616
:104D5000EB60002C5DD1EC6E002C16D060682768EB
:104D600000280CD0FEF7B8FF21000420FEF7EAFB74
:104D7000002F0AD03C00606827680028F2D121008B
:104D80000420FEF7DFFB002FF4D16C6F002C16D04F
:104D90006068276800280CD0FEF79EFF21000420E1
:104DA000FEF7D0FB002F0AD03C006068276800287F
:104DB000F2D121000420FEF7C5FB002FF4D1002E14
:104DC00041D12B7D012B5DD029000220FEF7BAFBDB
:104DD0005B46002B03D00D2148464942D84707B017
:104DE000F0BCBB46B246A946A046F0BDDA68AA426E
:104DF00042D01300002BF9D1A6E7C38A0100244852
:104E00009846FFF715FF0122224B1A702C6F002CD9
:104E1000A1D06068276800280CD0FEF75DFF210054
:104E20000420FEF78FFB002F95D03C0060682768B8
:104E30000028F2D121000420FEF784FB002F00D1CE
:104E400089E73C00F2E72B8B5146029343460193DE
:104E50002B1D009328002B00059A03F01FF9B0E7E3
:104E600001000D48FFF7E4FE2B7D012B0AD029003D
:104E70000220FEF767FBB2E7EA68DA6064E70748FA
:104E80000FF014FE06480FF011FEC04644DD00206E
:104E900040DD0020A5DD002054DD0020889B0110AE
:104EA0000898011010B50121FFF726FF10BDC0467C
:104EB000080010B5002905D00121FFF71DFF0D20C6
:104EC000404210BD01480FF0F1FDC046BC9B0110EF
:104ED000F0B5C646050000B50220FEF715FB041E1E
:104EE0002AD0A4220021200011F048FD6423604A4A
:104EF0006575E2525F4B4022A362FF23E372F93BE8
:104F0000A352E3875C4B5D4A23635D4B1B682362BE
:104F10005C4B1B78A3775C4BA3648423E2505B4A11
:104F20001033E2505A4A0433E25009220433E2506B
:104F3000200080BCB846F0BD0827564E3468002CCF
:104F40000AD02000438BE4681F42F8D0BB43438360
:104F5000FFF77AF9002CF4D14F4B1868002812D0D3
:104F6000474B1C68036AE11AC368002B08D01A6A11
:104F7000A21A914201D811001800DB68002BF6D16B
:104F80000121FFF7B9FE0220FEF7BEFA041EA8D1E8
:104F90003368002B16D03A4A0021106802E0DB6823
:104FA000002B09D01A7D092AF9D11A6A821A914276
:104FB000F5D811001C00F2E7002C03D000212000DE
:104FC000FFF79AFE0220FEF79FFA041E00D088E742
:104FD0003368002B16D02A4A0021106802E0DB68F3
:104FE000002B09D01A7D082AF9D11A6A821A8A423E
:104FF000F5D311001C00F2E7002C03D000212000A3
:10500000FFF77AFE0220FEF77FFA041E00D068E761
:105010006BB2002B2ADB002D21D02A003368013A25
:10502000D2B2002B1BD016490F680021884607E03A
:10503000186A3A1A90461C000A00DB68002B08D058
:10504000597D8A42F4D8F8D1186A3E1A4645F4D3FD
:10505000EFE7002C03D001212000FFF74DFE0220D6
:10506000FEF752FA041E00D162E73AE77F22D5E745
:10507000A02D0000A02DA02DFFFF1802D553001079
:1050800050DD0020A7DD00200100A02D00DD6D0017
:10509000F824010040DD002054DD0020F8B5022096
:1050A000FEF732FA041E28D0A4220021200011F0BD
:1050B00065FC4022642359496275E152584BA36252
:1050C000FF23E372F93BA352E387564B564A23630F
:1050D000564B1B682362564B1B78A377554BA36432
:1050E0008423E250544A1033E250544A0433E250CD
:1050F00009220433E2502000F8BD0826504D2C68E8
:10510000002C0AD02000438BE4681E42F8D0B34341
:105110004383FFF799F8002CF4D14A4B1868002814
:1051200012D0424B1C68036AE11AC368002B08D0F6
:105130001A6AA21A914201D811001800DB68002BEC
:10514000F6D10121FFF7D8FD0220FEF7DDF9041E9C
:10515000AAD12B68002B16D0344A0021106802E037
:10516000DB68002B09D01A7D092AF9D11A6A821A44
:105170009142F5D811001C00F2E7002C03D0002169
:105180002000FFF7B9FD0220FEF7BEF9041E00D093
:105190008AE72B68002B16D0244A0021106802E011
:1051A000DB68002B09D01A7D082AF9D11A6A821A05
:1051B0009142F5D811001C00F2E7002C03D0002129
:1051C0002000FFF799FD0220FEF79EF9041E00D093
:1051D0006AE72B68002B1AD0144A00253F21166875
:1051E00006E0186A11001C00351ADB68002B08D095
:1051F0005A7D9142F5D8F8D1186A371AAF42F4D3E4
:10520000F0E7002C03D001212000FFF775FD0220FC
:10521000FEF77AF9041E00D16DE745E7A02D0000E6
:10522000A02DA02DFFFF1802D553001050DD002047
:10523000A7DD00200100A02D00DD6D00F824010095
:1052400040DD002054DD002030B5040085B000288A
:1052500000D19FE0037D002903D0042B0DD0072B44
:105260000BD0012B00D169E0022B4ED0002B3BD09C
:105270002000FEF7E9FF05B030BDA26F002A54D030
:10528000638BDB0600D488E0238B20000293E38A43
:10529000626A0193231D0093216D230002F0FEFE3C
:1052A000237D012B04D90A2B02D02000FEF7F8FF42
:1052B0003D4A1368A34214D1E3681360002301221E
:1052C000E3603A4B1A703A4B1B68A34232D0237DFD
:1052D000012B24D137480FF0E9FBDA68A24250D005
:1052E0001300002BF9D1E9E7E38A002B17D0324AEB
:1052F0001368A34204D14AE0DA68A24244D0130002
:10530000002BF9D10023E36009E021002648FFF7D4
:105310008FFC0122254B1A70237D012BDAD002204D
:105320002100FEF70FF90020A5E7244A218D9142C4
:10533000A6D196E702F046F800209CE7204A00211B
:1053400010000C3053681B68002B05D0DD6FAC4299
:1053500012D0DB68002BF9D104329042F2D1210047
:105360001848FFF765FC237D012B19D0032021008D
:10537000FEF7E8F800207EE7D967DB68002BE5D16F
:10538000EAE7E268DA6099E7E268DA60BAE7E368D8
:105390001360B7E70C480FF089FB0C480FF086FB51
:1053A0000B480FF083FBC04640DD0020A5DD002048
:1053B00048DD00200898011044DD0020A02D0000E9
:1053C000889C01104CDD0020DC9B0110FC9B01102F
:1053D000189C0110F0B5C6460C00150000B5002958
:1053E0004ED0002A2AD00B7D012B4CD01389098D79
:1053F000284ACB189BB293421CD913009046676A87
:10540000668E254AE06A2385B844311C964200D94D
:10541000111C424689B20918511A18D5C01B13D461
:1054200080235B02984231D260852800FEF754FC4D
:10543000002006E09942E0D81A00DFE70020002BA8
:1054400012D080BCB846F0BD00236385EDE76385CC
:10545000124B121A9A42E8D90222638B200013439E
:10546000638302F051FFE0E70B7D012B03D0102294
:105470004B8B13434B8301212000FFF7E5FEE0E750
:1054800010204042DDE706480FF010FB05480FF002
:105490000DFBC046A02D0000D0160000670B0000D9
:1054A0005C98011040980110F8B5041E32D000231A
:1054B000856F6F7B83678433C658002E0CD0010044
:1054C00000232A000069B04700280BD00D301ED001
:1054D0000520A5674042F8BD2989FFF759F8280043
:1054E000FEF7FAFBBB0610D5238D0C4A934201D080
:1054F000013323858423E558002D06D000230022A4
:1055000021002069A8470D3001D00020E3E70D20DD
:105510004042E0E710204042DDE7C046A02D0000F9
:10552000F0B54F464646D646C0B5204D204F2B78A5
:1055300001332B701F4B9946012398464B461C683C
:10554000002C1BD008262B78A27F9A421BD0424603
:10555000A377638B1A421ED11E4216D1E3689A4686
:10556000A36F002B07D0002320003B70FFF79CFFA8
:105570003B78002BE2D15446002CE4D1E0BCBA4683
:10558000B146A846F0BDE468F6E7B3432000638364
:10559000FEF75AFEE2E7022213436383200002F083
:1055A000B3FE0322638B93436383D5E7A7DD00201B
:1055B000A5DD002040DD002010B5FFF7B1FF054A52
:1055C00013780133DBB21370DB0700D410BDFFF793
:1055D0002BF8FBE7A6DD002030B5040085B00028DD
:1055E00000D19BE0037D012B52D01021428B0A4356
:1055F0004283042B36D1A26F002A3DD0238B20009A
:105600000293E38A626A0193231D0093216D2300B4
:1056100002F044FD237D012B04D90A2B02D0200087
:10562000FEF73EFE404A13689C4218D1E3681360BF
:1056300000230122E3603D4B1A703D4B1B689C42E6
:105640001FD0237D012B63D002202100FDF77AFFBC
:10565000002005B030BDDA68944216D01300002B4C
:10566000F9D1E5E7072BC6D0022B47D0002B32D06B
:105670002000FEF7E9FDECE72E4A218D9142BDD1D5
:10568000F2E701F09FFE0020E3E7E268DA60CFE78F
:10569000294A002110000C3053681B68002B05D0EC
:1056A000DD6FAC4212D0DB68002BF9D104328242AC
:1056B000F2D121002148FFF7BBFA237D012B30D026
:1056C00003202100FDF73EFF0020C2E7D967DB6819
:1056D000002BE5D1EAE7E38A002BB5D0184A13681E
:1056E0009C4208D1E36813600023E360ACE7DA680A
:1056F000944210D01300002BF9D1F5E721000A489D
:10570000FFF796FA0122094B1A70237D012B9BD1DA
:105710000C480FF0CBF9E268DA60E5E71020404270
:1057200097E709480FF0C2F940DD0020A5DD002011
:1057300048DD0020A02D0000889C01104CDD0020D9
:1057400044DD002008980110189C011010B50028B5
:1057500007D0054B054A10681A68944660441860E3
:1057600010BD03480FF0A2F94C11002050DD0020BD
:10577000349C011010B5002A12D000290AD00B8EDB
:10578000002B07D0282B06D9283B1A1C9BB283423A
:1057900003D890B210BD0020FCE7021C90B2F9E7DC
:1057A00001480FF083F9C046509C011070B5040009
:1057B0000D00002802D00368002B00D170BD1F4AE5
:1057C0001068002805D00268934226D0C0680028DF
:1057D000F9D11B4B1868002806D0236802689A424A
:1057E00024D0C0680028F9D1002DE7D02B68002B09
:1057F000E4D0144B1A68002AE0D02368116899425B
:1058000005D0D268002AD9D011689942F9D12B6805
:105810001360D268002AF0D1D0E7C6680121FFF7F3
:105820006BFA002ED5D030002368CCE7C668012182
:10583000FFF762FA002ED7D03000CEE740DD00201F
:1058400044DD00204CDD002070B5446F0600002CC4
:1058500018D06068256800280CD0FEF73DFA2100BA
:105860000420FDF76FFE002D0AD02C00606825682B
:105870000028F2D121000420FDF764FE002DF4D1B0
:105880000023736770BDC046F8B5DE4657464E46E6
:105890004546E0B5002800D1ABE0574B1D88002DF0
:1058A00046D0564B994600234A461380544B00225B
:1058B0001E68544B1F881B7898464146C943524B7B
:1058C0008A461B6851499C468B460023002E1FD0F8
:1058D000140014346444954200D87EE0531C9BB2FB
:1058E00097422BD85146C918C9B2715C012928D0FA
:1058F00002292AD0002919D09F4252D963441B7D26
:10590000012B00D871E0D218012392B2002EDFD112
:1059100011001431614495425FD90C78531C9BB23D
:10592000012C50D0022C4BD0002CE7D14A461380DA
:10593000F0BCBB46B246A946A046F8BD2178012975
:10594000D6D11A0001340123C5E7911C89B29F42C8
:1059500022D963441B7D042B44D14B1CAB4241DA5A
:10596000D31C9BB2002E32D08F421FD84446091B55
:10597000C9B2715C0432090292B29F421DD84446FA
:105980001B1BDBB2F35C0B43591E89B2594500D98E
:105990001F4B43860123B9E744461B1BDBB2F35C74
:1059A000D9E741465B1ADBB2F35CA9E76144097DA4
:1059B0000432090292B29F42E1D963441B7DE2E7BF
:1059C000911C89B2C5E71A0001310123A3E76144A4
:1059D000097D0432090292B2EFE7002BA8D04B46B2
:1059E0001A80A5E74B461980A2E74B4602321A807F
:1059F0009EE708480FF05AF88EDD00208ADD00206F
:105A00005CDD00208CDD002058DD0020B3050000A7
:105A1000B4050000A09C0110F0B5D6464F4646469E
:105A200005000C00C0B500285FD0C368587B1A7B06
:105A300000021043FDF712F8C30751D401239A4620
:105A4000FE3398462A4E336899462B894B449C4630
:105A5000E36858791A7999790002104309040843D8
:105A60006146DA791206024320898018081A2DD47B
:105A7000587B1A7B00021043FCF7F0FF53460342A9
:105A800007D127682000FFF759F8002F17D03C00F6
:105A9000D9E7EB6801201F7B5B7B1B021F43FCF7F0
:105AA000DDFF41463843EA6883B2276808401B0A95
:105AB000107353732000FFF741F8002FE7D1002443
:105AC0002C60E0BCBA46B146A846F0BD531AF7D5E3
:105AD0004B46D21A91B268682981FEF733F8EFE796
