:020000041000EA
:1000000000B5324B212058609868022188439860DF
:10001000D860186158612E4B002199600221596106
:100020000121F02299502B49196001219960352056
:1000300000F044F80222904214D00621196600F024
:1000400034F8196E01211966002018661A6600F04E
:100050002CF8196E196E196E052000F02FF8012189
:100060000842F9D1002199601B49196000215960AB
:100070001A491B48016001219960EB211966A021F2
:10008000196600F012F800219960164914480160C1
:100090000121996001BC002800D000471248134993
:1000A000086003C880F30888084703B5996A0420EC
:1000B0000142FBD001200142F8D103BD02B5186610
:1000C0001866FFF7F2FF186E186E02BD00000240BE
:1000D000000000180000070000035F00212200005C
:1000E000F4000018222000A00001001008ED00E03C
:1000F00000000000000000000000000074B24E7A12
:1001000000200420F7010010C3010010C5010010F9
:10011000C1010010C1010010C1010010C101001097
:10012000C1010010C1010010C1010010C701001081
:10013000C1010010C1010010C9010010CB01001065
:10014000CD010010CD010010CD010010CD01001037
:10015000CD010010CD010010CD010010CD01001027
:10016000CD010010CD010010CD010010CD01001017
:10017000CD010010CD010010CD010010CD01001007
:10018000CD010010CD010010CD010010CD010010F7
:10019000CD010010CD010010CD010010CD010010E7
:1001A000CD010010CD010010CD010010CD010010D7
:1001B000CD010010CD010010CD010010CD010010C7
:1001C00000BE00BE00BE00BE00BE00BEEFF3058054
:1001D000103800BEF2EB88717C470410A847041069
:1001E0003402001090A31AE700201F49086006C8D7
:1001F00081F3088810471D48006800282FD10DA4FE
:100200000ECC002902D000F012F8F9E71849194A7B
:10021000002000E001C19142FCD1174988471749ED
:1002200088471749884700BEFDE701C901C29A42C5
:10023000FBD37047A8470410C0000020D80E002050
:10024000C05504100000042000000420C055041014
:10025000001004200010042000000000704709482E
:1002600000F0BAFA0047000008ED00E0000000D0FE
:10027000D80E0020C8290020515E00103D04001057
:100280000D5E00105756000006005250ABB360538D
:10029000F441041006005250861C0302044204106C
:1002A000060052505422A29D1042041005005250E4
:1002B000DE65F468C0550410F8B5C04610B5064CAC
:1002C0002378002B07D1054B002B02D0044800E017
:1002D00000BF0123237010BD281000200000000083
:1002E00080A70010044B10B5002B03D0034904482D
:1002F00000E000BF10BDC046000000002C10002030
:1003000080A7001010B507F0D5FCC0B210BD70B5C5
:10031000050000240EE00121002000F0F9F8FA2089
:1003200004F080F90021002000F0F2F8FA2004F037
:1003300079F90134AC42EEDB70BD000070B5040009
:10034000012004F06BFD2D4B0C283AD82C4A1340A9
:10035000C20213430C218B4308221343294D2B4027
:10036000294D2B40294D2B4001252B43284D2B4057
:100370000225AB438B4304318B4310310B4325499A
:100380000B40902149030B4323490A608201A021BD
:10039000C9058C466244214911602149516094602D
:1003A000D3608301A022D205944663441B69DB011C
:1003B000F7D41C4B08221A601B4B1B68DB05FBD5CE
:1003C00007E01A4B1A4AC3211A4805F023FD164BC1
:1003D000DB68154B9B68DB05F9D5002408E0104B62
:1003E000195D154807F052FC3B2007F0EBFB013488
:1003F000FA239B009C42F2DB70BDC04610801F00B8
:10040000FF87FFFF3FF8FFFFFFFFBFFFFFFFDFFF9B
:10041000FFFF7FFFFF7FE0FF00E004400CC00440CF
:10042000C815002000F0044000C0044080A7001060
:1004300020A80010A0A7001004A8001070B507F0B5
:1004400031FC00F099F8051E45D1002410E026008B
:100450001A361F21300002F0F3FE00220021300086
:1004600002F006FF0021300002F0AEFF0134E4B2DA
:10047000032CECD91B4B02221A6009F0E9FF1A4B3E
:100480001A681A4B53401A4A13401A4A13601A4BFF
:1004900000221A611B68E022D2011340174A136040
:1004A0000320FFF734FF06E0FA208000FFF746FF45
:1004B0000134042CF8DDFFF725FF04000120FFF7CD
:1004C00026FF532C05D0732CF5D16420FFF736FF9F
:1004D000F1E72C00EDE70A4807F0D8FB0120404285
:1004E00070BDC04600E0044008C004400B0000019D
:1004F0000F00000F08D0044000C0044000D00440AA
:100500000CA80010014B18607047C046A0140020D2
:1005100010B50A000100024802F0B8FC10BDC04648
:10052000F8190020014B18687047C046A01400203D
:1005300000B583B0684605F0B5F86946034805F094
:10054000B7F8002800D0014803B000BDD80E002045
:1005500010B5FFF7E7FF040004F0CCFD054B9C420B
:1005600000D010BD23685B6B200098470020FFF788
:10057000C9FFF6E7D80E002010B5FFF7D3FF041E21
:1005800006D0200004F09AFD002808D0002010BDFD
:10059000FFF7CEFF041E07D0FFF7B4FFF1E7FFF728
:1005A000D7FF02204042F2E702204042EFE700007E
:1005B00010B5024800F03CF810BDC046742700207A
:1005C00010B50822014907F0BBF910BD74270020BF
:1005D00010B5002901D000230AE0114B114A1F3148
:1005E000114805F017FC00240DE03732C2540133E6
:1005F0004A1E9A420FD90F2B0DD85A080B4CA25CF9
:10060000DC07F0D40424224114000F222240092ADE
:10061000EBDC3032EAE7C0180023037010BDC0469F
:100620003CA80010A0A8001044A8001074270020C7
:1006300070B588B0040004AD00260496092200219C
:1006400005A807F077F900960922002101A807F014
:1006500071F94B232B700D22694628000AF000F82F
:10066000002304E05A1D69468A5CE2540133072BDB
:10067000F8DD08B070BD0000034B1B680220184075
:10068000431E9841C0B2704700C00640EFF310808F
:1006900072B6034B1B68002BFBD0BFF35F8F704714
:1006A0002C0100D0BFF35F8F024B00221A6080F351
:1006B000108870472C0100D0F8B506000C0015001A
:1006C000FFF7E4FFE308F718F15C0722224001235B
:1006D00093400B4205D1DBB20B433B70FFF7E2FFC7
:1006E000F8BD2100280005F02FFCF0B583B006000E
:1006F000019114001F00FFF7C9FF00E00134BC4264
:100700000CD8E308F518F35C0721214001228A4048
:100710001A42F3D1D2B21A432A7001E00124644292
:10072000FFF7C0FF002C02DB200003B0F0BD019BEF
:10073000002BF9D0089805F007FC000070B5050003
:100740000C00FFF7A3FFE308EE18EA5C07210C405A
:100750000123A340134204D09A433270FFF7A2FF53
:1007600070BD034B034A2C31034805F053FBC046D0
:1007700040AA0010B8AA001060AA0010002307E0E9
:10078000054A9A189200BFF35F8F00211160013370
:100790001F2BF5D97047C04640000034054A107839
:1007A000431CDBB21370172B02D9130010221A70EE
:1007B0007047C046A00D002000B583B00100044B77
:1007C00000931F2318220348FFF78FFF03B000BDDB
:1007D000C8AA0010C019002010B5010018231B88FA
:1007E00014221088984710BD10B5010018231B88EB
:1007F00016221088984710BDF0B5C64600B5070010
:100800000E0000250123984600E00135B5420AD2CA
:10081000AC003C192068FFF7DFFF20600028F4D10E
:1008200000239846F1E7404680BCB846F0BD00285A
:1008300005D0D0231B06802292045A617047D02332
:100840001B06802292049A61F8E710B584231B01ED
:10085000C4582179182002F0F3FC21791D2002F000
:10086000EFFC012200211D2002F002FD0020FFF715
:10087000DEFF10BD10B50400052005F0A3F9000C43
:100880006043034906F054FC0338FDD210BDC04656
:100890009A3B000010B50120FFF7C9FF6420FFF765
:1008A000E9FF10BD70B5050084231B01C458002C5E
:1008B00018D00623E356002B08DB0522A256531C52
:1008C00011D106216156206802F090FB07202056C6
:1008D00000280DDA0820205600280EDA84231B0198
:1008E0000022EA5070BD0749206802F0DDFBE8E70E
:1008F00004F08CFAFF23E371ECE704F087FAFF239E
:100900002372EBE7DCAD0010F0B5DE4657464E46ED
:100910004546E0B593B0824610AA874B03CB03C28D
:100920008649874802F090FB002800D1E6E00123C9
:100930008422120151468A58002A00D0E6E0814CF8
:10094000842212018C50990010AA88582060FF223E
:100950002272E27106332371002102F057FB40B28C
:10096000A071002800DAD7E0764C7449206802F0C4
:100970007FFB43B2984663711022002108A806F05D
:10098000D9FF80256D020895F8235B020993802327
:10099000DB020A93C0273F030A97102208A904A884
:1009A00006F0CEFF43465A1D059B03936648184048
:1009B0004346DB011843120310430590079B039342
:1009C000DB00DB08802292059046134307935F4BC0
:1009D000994618400590102204A90CA806F0B0FF13
:1009E00080239B020C935A48016830228A4359495C
:1009F0000A60006801229346160086430E600F9934
:100A0000039155480840554901430F91544801400E
:100A10000F430F9753493940534F0F430F97FF0030
:100A2000FF0841460F430F970D99039149460398DC
:100A3000014089460D914D4F0F970E9903914C49F6
:100A4000039801400D430E954A490D401D430E95F4
:100A50002168383180239B010B43802149041960B0
:100A60002068062161564B005B18DB00C318C826BE
:100A7000B4469C4466460C9A3260CC2294469C4410
:100A800062464E461660D02294469C4462461560EB
:100A9000DC331F605B4600931D2202F07FFB21794F
:100AA000182002F0CDFB01220021182002F0E0FB0B
:100AB0000121182002F0F6FB0622A25653009B18D3
:100AC000DB00226894466344D8332B4A1A60002026
:100AD00004F0A4F9E071002004F0A0F940B2207203
:100AE0000723E356002B1DDB00281BDB002013B07F
:100AF000F0BCBB46B246A946A046F0BD0F491F4810
:100B000002F0A2FA002813D0002311E71C4B1D4A63
:100B100068211D4805F07EF95046FFF7C3FE062008
:100B20004042E4E75046FFF7BDFE06204042DEE7C4
:100B300006204042DBE7C04640AD0010DCAD0010AF
:100B400000003050BC1500207F00FEFFFFFFFF9F1C
:100B500078C0014078D00140E0FF0FFC1800100081
:100B6000FF7FF0FF1FFCFFE30003000418771C2445
:100B7000FFFF0AFEFFFFF5C101E00000000020506A
:100B8000E4AA0010CCAD0010F4AA0010F0B5DE46C7
:100B900057464E464546E0B583B00D0016009946CF
:100BA000002900D183E184231B01C458FFF74DFEC7
:100BB0004B46002B00D1F1E1002D00D17DE1B307C0
:100BC00000D087E1A846AB0700D089E14B469B07E0
:100BD00000D08BE10C9B9B0700D08DE122680621A1
:100BE000615613680125280088408343136006215D
:100BF00061560523E3565A1D924648004218D2001A
:100C00002768BC466244CC321268CB4F3A40DB01C5
:100C100013435246120313434018C0006246111892
:100C2000CC310B600622A25653009B18DB00D03358
:100C30001A0023689C46624480235B011343802290
:100C400012061A601A6006216156802252041300AF
:100C5000206802F055FA0623E35604332900994030
:100C600080239B0122681A4311600622A256083293
:100C7000290091400A0021680B431A600623E356BD
:100C8000F200013A04339B0021685A500622A25612
:100C900053009B18DB00226894466344D833A74A6C
:100CA0001A600623E3560C9A921BD200013A0433D1
:100CB0009B0021685A500622A25653009B18DB0065
:100CC000226894466344D8339D4A1A6006216156CF
:100CD0000523E3561F221A404B005B18DB002168F6
:100CE0008C466344D8331A600722A2562B009340E7
:100CF000A020C005934943509101A023DB059C46E9
:100D00006144CB68DB01F7D40820205601238340DF
:100D100061468C4A8B508101A023DB059C466144CF
:100D2000CA6880235B04110019401A42F3D10722DC
:100D3000A256854B0C2A00D9E4E084480340D20235
:100D400013430C229343043A1343814A1340814ACC
:100D50001340814A134001221343804A1340022268
:100D600093438022D20313430622A2567C4825686F
:100D7000854200D1CCE0082012183F2A00D9C9E0F2
:100D800078480340D2031343072020560622A25678
:100D900004329500226894466544B2088001A02779
:100DA000FF05BC4660444746076045608260C360FB
:100DB00008202056644B0C2800D9B1E0634D2B402D
:100DC000C00203430C2083430438034360480340BC
:100DD0006048034060480340012003435F480340EC
:100DE000022083438020C0030343062020560430A2
:100DF0005B4D2768AF4200D0082141183F2900D938
:100E000094E058480340C9030B4320210B43103999
:100E10008B43082020564946891906256557083511
:100E2000AD002768BC46AC440C9DAD08AA1A8001F1
:100E3000A025ED05A84640446546056041608260F6
:100E4000C3602168062020560B680122824093432C
:100E500013430B600722A2569301A021C9058C46BB
:100E600063441B69DB01F7D40822A2569301A02139
:100E7000C9058C4663441B69DB01F7D432000021AD
:100E8000484606F057FD2368062161564A0052186D
:100E9000D2009B18D833344A1A60FFF7FBFC0020BD
:100EA00003B0F0BCBB46B246A946A046F0BD002B3D
:100EB00000D078E605204042F2E7002E04D00C9BDB
:100EC0009E4201D24D467AE6284B294AEB21294819
:100ED00004F0A0FF284B264AF121264804F09AFF8F
:100EE000264B234AF221234804F094FF244B204A46
:100EF000F321204804F08EFF224B1D4AF4211D48A7
:100F000004F088FF204B214AC321214804F082FFCE
:100F1000080031E71F4B204AB5211D4804F07AFF35
:100F2000194B1A4AC3211A4804F074FF194B1A4A84
:100F3000B521174804F06EFF7F00FEFF206000001F
:100F4000406000004404000010801F00FF87FFFF86
:100F50003FF8FFFFFFFFBFFFFFFFDFFFFFFF7FFF48
:100F600000002050FF7FE0FF03A000005CAB0010FA
:100F7000B8AD0010F4AA001080AB001094AB0010C4
:100F8000ACAB0010C4AB001080A700109CAD0010EB
:100F9000A0A70010D8AB001084AD0010002D00D128
:100FA00071E7A946AB0700D0FDE0B30700D001E12F
:100FB0002268062161561368012738008840834360
:100FC00013600622A256052565576B1C98465000F3
:100FD0008118C90023689C466144CC310B687F4965
:100FE0000B40E9010B43414609030B438018C00045
:100FF00062461218CC3213600622A25653009B1888
:10100000DB00D0331A0023689C46624480235B01D6
:101010001343802212061A601A600621615680224C
:1010200052041300206802F06BF80623E3560433E1
:101030003900994080239B0122681A4311600622DF
:10104000A2560832390091400A0021680B431A6009
:101050000623E356F200013A04339B0021685A50FC
:101060000622A25653009B18DB0022689446634474
:10107000D8335B4A1A600623E35604339B000022F0
:1010800021685A500622A25653009B18DB002268A2
:1010900094466344D833534A1A60062161560523A7
:1010A000E3561F221A404B005B18DB0021688C4678
:1010B0006344D8331A60072020568740A022D20507
:1010C000494BD7508301A022D20594466344DA6885
:1010D00080235B04110019401A42F3D10722A25663
:1010E000424B0C2A6DD842480340D20213430C22D3
:1010F0009343043A13433F4A13403F4A13403F4A45
:101100001340012213433E4A13400222934380229C
:10111000D20313430622A2563A482568854200D0DE
:10112000082151183F2952D8374A1340C9030B43AD
:101130000722A256062161560431890020688446A0
:101140006144B6089201A020C00584466244484626
:10115000106051609660D3600622A25618320123B7
:10116000190091400A0021688A60206806256557A9
:101170000168AB4099430B43036023689B681A42A4
:10118000FBD02168062020560B6801228240934341
:101190000B6006216156206800230093013318225A
:1011A00001F0FCFF6FE68F21184B194A49001948DE
:1011B00004F030FE2021184B154AFF31154804F089
:1011C00029FE164B164AC321164804F023FE164B7F
:1011D000164AB521134804F01DFEC0467F00FEFFED
:1011E00020600000406000004404000010801F00E8
:1011F000FF87FFFF3FF8FFFFFFFFBFFFFFFFDFFF9E
:10120000FFFF7FFF00002050FF7FE0FF94AB001046
:10121000B8AD0010F4AA001080AB001080A7001039
:101220009CAD0010A0A70010D8AB001084AD00103A
:1012300010B5172002F0E0F8D024240680231B0408
:10124000636200220121172002F012F8182002F038
:10125000D3F880235B046362A361192002F0CCF809
:1012600080239B046362636110BD70B5D0242406A3
:1012700080252D04A561142003F0D4F96561FA20BE
:1012800003F0D0F9182002F0B7F880235B04A362C2
:1012900070BD000070B584B005000E001400082277
:1012A000002102A806F046FB012E18D03607802345
:1012B000DB053343E2020D4C224013430422134367
:1012C0005BBA02930823009302AB00212800FFF7CA
:1012D0005DFC002801D1039840BA04B070BD8421A0
:1012E000034B044AFF31044804F094FD00F8FF0F5B
:1012F000ECAB001070AD0010F4AA001030B587B050
:1013000001291DD00024231D09078025ED0529434F
:10131000D2020D4D2A400A4313430393230008339E
:10132000009303AB04220021FFF730FC002805D115
:10133000002C07D002239B0003AA985807B030BDA9
:101340000424E0E70123F6E700F8FF0F30B587B08B
:1013500001291DD00024A31C09078025ED05294380
:10136000D2020D4D2A400A4313430393230008334E
:10137000009303AB04220021FFF708FC002805D1ED
:10138000002C07D002239B0003AA985807B030BD59
:101390000424E0E70123F6E700F8FF0F30B587B03B
:1013A00001291DD00024631C09078025ED05294370
:1013B000D2020D4D2A400A431343039323000833FE
:1013C000009303AB04220021FFF7E0FB002805D1C6
:1013D000002C07D002239B0003AA985807B030BD09
:1013E0000424E0E70123F6E700F8FF0F10B584B00E
:1013F0000C07C02109062143D202084C22400A43AF
:1014000004210A4352BA02925BBA03930023009369
:10141000082202A9FFF7BAFB04B010BD00F8FF0FC5
:1014200030B585B00D07C02424062C43D2020E4DE2
:101430002A4022430424224302920393012907D025
:1014400000230093082202A9FFF7A0FB05B030BDDE
:1014500006490434445006494250064A83508523C5
:101460001B018268C250EBE700F8FF0F4C08000038
:10147000440800004808000030B585B00D07C024BE
:1014800024062C43D2020E4D2A402243022422433A
:1014900002920393012907D000230093082202A996
:1014A000FFF774FB05B030BD0649063444500649C9
:1014B0004250064A835085231B018268C250EBE7E5
:1014C00000F8FF0F4C080000440800004808000026
:1014D00030B585B00D07C02424062C43D2020E4D32
:1014E0002A4022430124224302920393012907D078
:1014F00000230093082202A9FFF748FB05B030BD86
:1015000006490734445006494250064A8350852311
:101510001B018268C250EBE700F8FF0F4C08000087
:101520004408000048080000F0B5CE4600B582B07F
:101530000F001D00012941D0012F4DD000239C46F2
:10154000EC1C03218C43611EFF23DB00994246D231
:1015500006001C36089B9E4205D004D8294BC318B0
:1015600008998B4242D8A946E14463465942594101
:101570003F078023DB051F43D302234A13401F4349
:101580004B461F430431890041180B1D4F60220058
:1015900062440432009204220021FFF7F7FA071E8A
:1015A0002BD1089B9E4204D02A003100180006F07F
:1015B000C7F9380002B080BCB946F0BD402B04D852
:1015C0009B18802109028B42B6D9F3210F4B104A98
:1015D0004900104804F01EFC04239C46B0E7EA21B1
:1015E0000D4B0B4AFF310B4804F014FCF5210B4B5B
:1015F000074A4900074804F00DFC0100084806F0BE
:1016000045FBD6E71C08000000F8FF0F08AC0010EF
:101610005CAD0010F4AA00104CAC001074AC0010CB
:10162000D8AC0010F0B5D646474680B583B005006B
:101630000F0090469A46012934D05346DE1C0323FE
:101640009E43721EFF23DB009A4238D2022F3CD009
:1016500028001C300A9B98424CD00A9B984204D820
:10166000324BEB180A9A934259D83B07C02109061E
:1016700019434346DF022E4A17400F4353461F4388
:10168000AF6152460A9906F05BF929001831321D04
:10169000002300932800FFF779FA03B0C0BCBA46D4
:1016A000B046F0BD402B04D843448022120293423E
:1016B000C3D9204B204A2149214804F0ABFB214BE0
:1016C0001D4A21491E4804F0A5FBFA24A40020006D
:1016D000013C002806DD082200212800FFF70EFE4D
:1016E0008306F4D5002CB3DC184806F09FFA0620D8
:1016F0004042D2E73F07C0231B063B434246D70286
:101700000B4A17403B4352461A43AA61290018313D
:10171000321D002300932800FFF738FABDE70C4B79
:10172000054A0C49064804F075FBC0461C08000039
:1017300000F8FF0F08AC001048AD001001020000D7
:10174000F4AA00104CAC0010030200009CB300107F
:10175000F4AC00101D020000012805D0022801D0C1
:10176000002070470148FCE70148FAE700401018E4
:1017700000301018F8B507000C0016001D000B888B
:101780004988C9430904090C8B4225D10B2B29D95F
:10179000817B227A91422BD1237ABB7362790F230A
:1017A0001340022B06D8627A7B7BD31ADBB2142B50
:1017B00000D87A7320880C281ED062790F2313403A
:1017C000012B52D0022B39D0002B1BD03F4806F002
:1017D0002DFA0B204042F8BD3D4806F027FA0220C2
:1017E0004042F8E73B4806F021FA03204042F2E786
:1017F000394806F04BFACFE7384806F017FA0420CC
:101800004042E8E71B280DD9E379E3185A89110013
:101810003A8A8A420CD110331C1B001B30602B60AB
:101820000020D8E72E4806F001FA05204042D2E712
:101830002C4806F02BFA06204042CCE710280ED99F
:10184000E379E3189A78D978890004315B181C1B76
:10185000041BD007204330602B600220BBE72248E6
:1018600006F0E4F907204042B5E710281CD9E379D7
:10187000E318DA78920004329B181C1B041B1A7BB5
:10188000882A1DD15A7B6C2A1DD1DA7C002A11D1FD
:101890001A7D102A0ED15A7D182A0BD1183C3460BB
:1018A00018332B60012096E7104806F0BFF9082096
:1018B000404290E70E4806F0B9F90A2040428AE714
:1018C0000920404287E70920404284E708AF001022
:1018D000F0AD001008AE001024AE00104CAE0010A9
:1018E0006CAE001090AE0010B8AE0010D8AE001074
:1018F000F8AE0010F8B5CE46474680B50700B023D5
:10190000C35AB42286589A19016C8A4207D8040037
:101910003C34E418A61900239946984606E00123B2
:101920005B4283602DE0A04602356419B44212D2B6
:1019300022786578AB1CE318B342F5D8302AF2D090
:10194000DD2AF1D1A01CD93A104908F09BFD0028EE
:10195000EAD1A146E8E74346002B00D004234A46DB
:10196000002A01D0022213434C22BA5AD20601D5D2
:10197000012213438421785AFF2202407A5288229E
:10198000BB54C0BCB946B046F8BDC046C4B3001095
:10199000F8B58D1E033086080A002B0006E010887B
:1019A00054882404204301C30432013E002EF6D1A2
:1019B0008C1E0B881A021B0A13430B8061680A0EE7
:1019C0000B0AFF273F023B401A430B02FF26360457
:1019D00033401A4309060A436260A068010E030AF5
:1019E0003B40194303023340194300060143A16001
:1019F000E068030E9C46030A3B4067463B430702F0
:101A00003E40334300060343E360452A01D02800EB
:101A1000F8BD0829FBD12800FFF76CFFF7E70000AD
:101A200010B5012906D1012B0BD0042B0CD1FFF7E7
:101A300065FC10BD9121084B084A4900084804F094
:101A4000E9F9FFF7ABFCF4E79321064B034A4900A1
:101A5000034804F0DFF9C04618AF001068B4001066
:101A600034AF001088AF0010F8B5CE46474680B5B9
:101A700005008946002916D1002426001E4F2300A8
:101A80003A0001212800FFF723FD23003A0001213D
:101A90002800FFF71DFD4B46002B06D00323984678
:101AA000032700240FE00124E7E7012398460027DD
:101AB000F7E7012003F0BCFB33000F4A01212800A7
:101AC000FFF706FD01343F2C0DDC0B4A01212800F5
:101AD000FFF764FC0028ECDB43460340BB42E8D13F
:101AE000FF28E6D003E04946044806F0CFF8C0BC22
:101AF000B946B046F8BDC0461F00010094AF0010C3
:101B000010B501235940C9B2FFF7AEFF10BD000068
:101B100010B5012907D1012B0CD0042B0ED1029B4B
:101B2000FFF77EFC10BD9621084B094A4900094881
:101B300004F070F9029BFFF7CBFCF3E79821064B0A
:101B4000034A4900034804F065F9C04618AF001085
:101B500058B4001034AF001088AF001030B583B017
:101B60000500CC0BE4038368A3420FD063401B0E37
:101B70000ED1AB686340FF221204134210D1AB6850
:101B80006340FF221202134213D1AC6003B030BD98
:101B9000230E009301230B4A0121FFF7B9FFE8E769
:101BA000230C00930123084A01212800FFF7B0FF0E
:101BB000E5E7230A00930123044A01212800FFF7E7
:101BC000A7FFE2E70C0001000B0001000A00010082
:101BD00070B505000C001600FFF7C0FF6404620C2E
:101BE000042E0CD0330001212800FFF719FF040058
:101BF000C02149052800FFF7B1FF200070BD8023F8
:101C00001B021A43EEE7000070B504000800FFF75E
:101C1000A3FD80231B01C518012229002000FFF726
:101C2000D7FF012229002000FFF7D2FFC30701D50B
:101C3000002070BD024805F0F9FF06204042F8E799
:101C4000B8AF001070B505000800FFF785FD04006F
:101C50008123DB00C11801222800FFF7B9FF03230D
:101C60000340012B09D180231B01E1180122280028
:101C7000FFF7AEFFC30704D470BD044805F0D6FFDC
:101C8000F1E7024805F0D2FFF6E7C046D4AF0010F6
:101C9000F0B583B005000C0016001F00FFF75EFFD3
:101CA0006404620C042E0CD000973300012128003C
:101CB000FFF72EFFC02149052800FFF74FFF03B0B3
:101CC000F0BD80231B021A43EEE7F8B504000D00B7
:101CD0001600FFF799FF2800FFF73EFD050081235E
:101CE000DB00C718002E26D0232301223900200054
:101CF000FFF7CEFF012239002000FFF769FF8023A4
:101D00001B01E918002301222000FFF7C1FF012079
:101D100003F08EFA002E10D021230122390020007A
:101D2000FFF7B6FF012239002000FFF751FF012025
:101D300003F07EFAF8BD0323D7E70123EDE70000A7
:101D4000F0B5DE4657464E464546E0B585B081467D
:101D5000039114009B461300FF33FF2293439846E0
:101D60005B46002B2FD140230293039B002B4AD1CB
:101D70005B46002B2FD10E9B9C466444474BE518D5
:101D8000C824A4002700103F2B191A00123A127819
:101D9000113B1E7836021643FA235B009E4234D272
:101DA0002C19133C2378002B2FD15024A64221DD7F
:101DB000381B033828180922394908F00BFC002881
:101DC0001AD00134F2E780252D012900354805F0AD
:101DD0005DFF0295C9E7661E760A4D461C350E9BCF
:101DE000991901390222280003F0B6F9013E760262
:101DF000A41BC7E701246442631C06D0381B0338C8
:101E0000281805F013FF002423E0274805F00EFFF3
:101E1000062040423BE0029E039BE1184D046D0CFE
:101E2000AA1980231B029A421CD84846FFF796FE47
:101E30005B46002B1DD10E9B9A46A244534600934D
:101E400033002A0001214846FFF7ECFB00281ED191
:101E50003C0044451AD2029B1F194745DBD9434633
:101E60001E1BD9E7BE21114B114AFF31114803F067
:101E7000D1FF1C234B449A46610A0E9B9C46614449
:101E8000029B5A0A504603F067F9D7E7002005B0D5
:101E9000F0BCBB46B246A946A046F0BDE0FCFFFF41
:101EA00020B00010E8AF00102CB0001054B00010AB
:101EB00040B4001034AF001001600023836003734E
:101EC000012242738373038200228274C2748422CB
:101ED00012018350704710B5FEF7E4FC10BD10B539
:101EE0000400002909D0837C002B00D110BD002301
:101EF00083740121FFF704FEF8E700F0D9FEA37C0C
:101F0000002BF3D100212000FFF7FAFD0123A37479
:101F1000ECE70000F0B585B0070003911500C37C25
:101F2000002B05D1006800F0BBFE002800D189E03D
:101F300000213800FFF7D3FFFB7C002B0ED00026DA
:101F40000020FA239B009E422CDA08220021380050
:101F5000FFF7D4F9431C25D10136F2E70422002112
:101F60003800FFF7F3F9060084B2394B1B88A3420F
:101F700004D00104090C86230B4208D1002C0AD19D
:101F8000334B1C80B306DAD40120404236E031489E
:101F900005F07CFEF2E72300042200213800FFF761
:101FA0006BFAEDE7431C50D0C30538D5430A5B05F7
:101FB0005B0D591EC022D200914221D282071FD44C
:101FC0003E001C360096002202213800FFF7ACFAD2
:101FD000002813D1B98B002902D1FB8B002B23D011
:101FE0000123FB74FA8B080050401B4B984223D10D
:101FF0002B00039A31003800FFF7BCFB05B0F0BDA1
:102000001900164805F042FE0123154A0121380047
:10201000FFF75EFA0023FB7401204042EEE7002345
:10202000FB7401204042E9E70E4805F02FFE002333
:10203000FB7401204042E1E70B4805F027FE012038
:102040004042DBE701204042D8E701204042D5E78B
:10205000B82900209CB00010FFFF0000C8B000109D
:102060000D000100E8B0001004B1001010B582B0FE
:1020700004000BE001990098FFF78AFC01002000A2
:1020800000F01CFE02E00E4805F000FE01AA6946C1
:102090002000FFF73FFF0100431C0ED0031DF5D0C9
:1020A0000128E7D00228EED1009AD10F5200520841
:1020B000019B206803F0FBF8E8E702B010BDC046C2
:1020C00030B10010F0B5D6464F4680B587B0040059
:1020D0008A4603921E00002902D0022900D08EE019
:1020E00000212000FFF7FBFEA37B002B28D1627BA1
:1020F000237B9A4224D0039B0C339AB23280D24382
:102100007280227B3271524672710022B271524645
:10211000022A00D171E00C22F27100223272727236
:10212000B272F272227B01322273009600220221E7
:102130002000FFF777FA07B0C0BCBA46B146F0BD41
:1021400002F024FB002913DB18D0FA2292000023AE
:1021500005F02CF80100A27B237B607B00902948CE
:1021600005F094FD284B9F6A284B9946B94426E018
:10217000274B284A3F21284803F04CFEFA218900CA
:1021800004F0D6FF0100E6E7A17B227B637BE81B1E
:102190000090224805F07AFDA94617E005990498B9
:1021A000FFF7F6FB0100200000F088FD15E0ED1BB5
:1021B0001B4B9D4219D8FA20800003F009F8124BFE
:1021C0009D6A4B46EA1A174B9A42DDD805AA04A924
:1021D0002000FFF79FFE0128E0D0A17B0029E6D177
:1021E000627B237B9A42E2D085E7227B637B0E48A9
:1021F00005F04CFD012040429DE70C328CE70520A4
:10220000404298E7CCB10010004005406079FEFFE5
:1022100054B1001078B4001070B10010E8B1001093
:1022200040420F009F8601000CB20010F8B5060076
:102230001F0018001C3080231B0198421ED8358ACD
:102240000135ACB2348224040C43079B19030C43C0
:10225000B2623B041B0CF3623463002373633000EF
:1022600038303A00069905F06BFB33001C333A0016
:10227000103200213000FFF725FFF8BD0520404255
:10228000FBE70000F0B5CE46474680B585B00500B7
:10229000884691461F000D9B01930C9B00933B00C9
:1022A000FFF7C4FF234B9E6A14E0029ABA4200D99A
:1022B0003A0003990C9808F009F934E00399029860
:1022C000FFF766FB0100280000F0F8FCFA20800010
:1022D00002F07EFF174B9C6AA41B174B9C421AD836
:1022E00003AA02A92800FFF715FE041EDDD001286D
:1022F000E4D0022806D00028E8DB01000F4805F0F2
:10230000C5FCE3E7029AD10F52005208039B2868EC
:1023100002F0CDFFDAE73B004A464146084805F0A7
:10232000B5FC01246442200005B0C0BCB946B046EB
:10233000F0BDC046004005403F420F0030B20010E3
:102340005CB2001030B583B014004D004A08022181
:102350002940069D019500932300FFF793FF03B0EA
:1023600030BD0000F0B5DE4657464E464546E0B566
:1023700083B005008A46904638239946814400265A
:102380002BE02C4F8023DB009B46B344C3452BD26C
:102390008024E400284908220831484605F0D0FA94
:1023A0004023EF5202330222EA526C640027AF64EA
:1023B00028004C3031005144220005F0C1FA2300BE
:1023C0001B33072293430132019749460091FF32A4
:1023D00002212800FFF756FF5E4646450AD2002E2E
:1023E000CFD080277F01CDE704231F43BFB24346F0
:1023F0009C1BCFE7104913221431484605F0A0FA80
:102400008322002301934B460093132352000021A3
:102410002800FFF737FFAB6B002B06D103B0F0BCF1
:10242000BB46B246A946A046F0BD044805F02EFCC6
:10243000F4E7C04602100000C4B3001088B20010D8
:10244000F0B5D6464F464646C0B582B007008A462C
:1024500014009946382398468044080008F08CF808
:102460000600451C2A005146404605F069FA4544DD
:102470002C70230A6B70230CAB70240EEC70731D50
:1024800008224946019141460091FF32022138005D
:10249000FFF7F8FE02B0E0BCBA46B146A846F0BD70
:1024A000F0B5CE46474680B583B005008846160095
:1024B000994607003837080008F05EF8441C3819C0
:1024C0003200494608F002F822004146380005F083
:1024D00037FAA31908220A9901910097FF320221C5
:1024E0002800FFF7CFFE03B0C0BCB946B046F0BD30
:1024F00070B582B00400383438254255160A0135CB
:102500004655160C01354655120E013542550193BC
:10251000009404230A000221FFF7B4FE02B070BD4C
:10252000F0B5D6464F464646C0B582B080468A468C
:1025300015001C00382343449946080008F01CF895
:102540000600471C3A005146484605F0F9F94F4449
:102550003D702B0A7B702B0CBB702D0EFD70721D15
:102560004A441470230A5370230C9370240ED470C1
:102570003300093308220A99019149460091FF323C
:1025800002214046FFF77EFE02B0E0BCBA46B146EB
:10259000A846F0BD70B582B004000D0006003836C4
:1025A0000D4914223C31300005F0CAF98322002382
:1025B000019300961433520000212000FFF762FEC1
:1025C000041E02D0200002B070BD06223100280097
:1025D00005F0B6F9F6E7C046C4B30010F0B5C6463C
:1025E00000B586B005000E00B94B9B6A4360FEF74C
:1025F0008BF9041E12D1FEF71BFEFEF736FE092CE6
:102600004ADC142200212800FEF744FEB14B984218
:1026100008D0012002F00CFE0134F0E7AE4805F0CE
:1026200005FB3CE0AD4B002200212800FEF7DEFE5A
:10263000002834D1002200212800FEF75FFE042389
:102640001D2200212800FEF743FF002827D19923EF
:10265000042200212800FEF73BFF00281FD1BE23E3
:10266000062200212800FEF707FF071E17D10823C6
:102670009B4A01212800FEF72BFF3C00092C6BDC54
:10268000974A01212800FEF789FE430611D4012054
:1026900002F0CEFD0134F1E7924805F0C7FA924806
:1026A00005F0C4FA06277F42380006B080BCB84661
:1026B000F0BD00238A4A01212800FEF709FF00220D
:1026C00001212800FFF7A0FA002202212800FFF7CD
:1026D0009BFA002202212800FFF7F7FA03230422C5
:1026E00082492800FFF7D4FA0023042280492800F9
:1026F000FFF7CEFA7F4B9846009300237E4A0021D5
:102700002800FFF71DFBC0227C4B009300239200A2
:102710007B492800FFF714FB7A4B04227A492800F2
:10272000FFF7B6FA002201212800FFF7CEFA0121B7
:102730002800FFF787FA3C00FA239B009C422EDA20
:10274000674A01212800FEF729FE03060AD401206A
:1027500002F06EFD0134EFE76C4805F067FA0627DA
:102760007F42A1E7F023042269492800FFF790FA8D
:102770002023684A01212800FEF7AAFE3C00FA2324
:102780009B009C4274DA082200212800FEF7B6FD67
:1027900083060AD4012002F04BFD0134EFE75E48C6
:1027A00005F044FA06277F427EE75C4C22000121B7
:1027B0002800FEF7F3FDC3B202200343DBB2220080
:1027C00001212800FEF784FE0823F02200212800C2
:1027D000FEF77EFE0223424A01212800FEF778FE22
:1027E0004F4A01212800FEF7D9FDC3B2C20745D5E3
:1027F0004C4C0F23220001212800FEF769FE002324
:10280000220001212800FEF763FE2200012128009A
:10281000FEF7C4FD042200212800FEF797FD83B2D5
:10282000C20734D400212800FFF759FBDB218902BD
:102830004144F62292002800FFF794FD0023002275
:1028400039492800FFF7FCFD002301223749280001
:10285000FFF7F6FD002E20D0002E00D124E7002344
:1028600000933300062232492800FFF719FE1BE7C8
:10287000304805F0DBF906277F4215E701221343B4
:10288000DBB2274A01212800FEF722FEB0E704222E
:1028900000212800FEF7F0FDC4E7274B1A00543250
:1028A0005B6D0293928802AB9A8004A92800FFF71F
:1028B00071FE002806D1062202A904A807F0E2FD55
:1028C0000028C9D104A9002002F04AFC04AEC3E7E5
:1028D00000400540ADBEEDFEF8B20010B3040200AA
:1028E0000E00010014B3001030B3001010400018A7
:1028F0004440001890B40010BE6B0300682404101C
:10290000FCFC0700C0003FFFFCFF070050B30010B5
:1029100024200018080001007CB300101E000100F4
:102920001F0001000F000100A4B20010B0B200109F
:10293000ACB3001094B30010C4B3001010B5002362
:102940000422A521FFF7D4FD10BD000000B583B01F
:10295000054BC31800220192009324231A3202214E
:10296000FFF790FC03B000BD1C08000000B583B069
:10297000130002290CD801228A40002B00D013003A
:10298000002100910449FFF7CBFD002003B000BDFA
:1029900001204042FAE7C046BCB3001010B5006801
:1029A00000F07EF9013843425841C0B210BD00002A
:1029B00010B582B002F002FC224B1B68002B19D02C
:1029C0002148FFF7EBFF002816D11F4A1F4BD35CAD
:1029D000002B15D11C4A1E4BD35C002B1AD11A4A6E
:1029E0001C4BD35C002B1CD11B4B1B68002B24D031
:1029F00002F02AFB02B010BD1348FFF737FBE4E7F3
:102A000010000023114A8354009300226921FFF72C
:102A100099FCDFE710000E4B0022C254FFF78EFF37
:102A2000DDE714000B4B0022E2542000FFF78EFF7D
:102A300086231B010122E250D6E701210248FFF75D
:102A40004EFAD5E7F0190020F81900206D080000B3
:102A50006F0800006E080000F419002010B5040093
:102A600001F094FE002917DB1CD0FA22920000230B
:102A700004F09CFB01006288134805F007F96168C7
:102A8000582915D88B00114A9B58002B10D01900DB
:102A90000F4805F0FBF80EE00E4B0F4A3F210F48A0
:102AA00003F0B8F9FA21890004F042FB0100E2E7E3
:102AB0000B4805F0EBF8A168E2682E23E35C0948B7
:102AC00005F0E4F810BDC04650270410E0280410BB
:102AD000A0B2001054B10010C828041070B100104A
:102AE0006427041068270410F0B585B0040002F0D4
:102AF00065FB294BE35C002B0BD0284B1B68002B9C
:102B00000DD000212000FFF7EAF90025280005B0CC
:102B1000F0BD234B234A9C21234803F07BF900217D
:102B2000200002F0BDFB0121200002F0B9FB1F4B89
:102B30000022E254D0252D0680263604AE611420F2
:102B400002F076FB6E61322002F072FB0021200061
:102B5000FFF744FD051ED9D1154BE1182000FFF702
:102B600019FD134BE15C134BE25C134BE35C134820
:102B7000205C134EA65D134FE45D02940196009015
:102B8000114805F083F8114B32221A601048034BAC
:102B9000186002F075FAB9E76C080000F01900201F
:102BA00074270410B828041090270410540800005B
:102BB000D7080000D8080000D9080000DA08000093
:102BC000DB080000DC080000E4270410F4190020F2
:102BD000B129001070B50400D0252D0680235B04B8
:102BE000AB6200220021182000F042FB8026360450
:102BF0006E6200220021172000F03AFBAE61210036
:102C00002000FFF759F900230C4AA3540C4AA350A3
:102C10000432A3500B4AA3540B4AA3540B4AA354A7
:102C20000B4A0321A1540B4AA3540B4AA3540B4A49
:102C300013600B4B0122E25470BDC04654080000E3
:102C40005C0800006D0800006E0800006F080000BE
:102C5000740800007508000076080000F0190020D4
:102C60006C08000010B5040002F094FA0B4B1B68CE
:102C7000002B10D00021200002F012FB01212000C7
:102C800002F00EFB2000FFF726F92000FFF7A2FF5D
:102C900002F08AFA10BD02F087FAFBE7F019002073
:102CA000D0231B065B681B0E0120184070470000F4
:102CB000014B32221A607047F419002070B50400ED
:102CC0000D00694BC358DB0712D46B68452B13D03A
:102CD0000B2B26D0172B34D0002B49D1AB68002BFF
:102CE00027D0032B3CD086231B010222E25020E098
:102CF0000800FFF7B3FEE8E75C4AA258012AE7D1D3
:102D0000AB68082B05D0002B13D1584B0222E250A0
:102D10000FE0574BE35829003031564AA0589847E6
:102D200007E00021200002F0BFFA86231B010022E9
:102D3000E25086231B01E2584F4B9A4200D189E0B2
:102D400070BDAB68002BF4D1EB68082BF1D1073BC9
:102D50004A4AA3544A4AA3544A4802F091F9E8E780
:102D6000EB68002BBFD186231B010322E250E0E772
:102D7000032B16D0062B35D0102B40D02E2BD8D1BC
:102D8000AB68062B57D0042B03D0082B01D00A2B9D
:102D900002D1EB680F2B56D086231B010422E25090
:102DA000C7E7AB68002B16D186231B01E2580F231F
:102DB0001340042B07D08622120180239B00A158C8
:102DC0000B43A350B5E70B339A430E3B1A438623BC
:102DD0001B01E250EFE7062BABD086231B01042238
:102DE000E250A6E7AB68002BA3D1EB68022BA0D181
:102DF000254B0122E254234802F042F999E7AB68DF
:102E0000002B96D16B88DB070FD52E23E95C0029B8
:102E100007D1862212018023DB00A1580B43A35067
:102E200087E7200002F03DFA83E72E23E95C2000CB
:102E300002F03AFA7DE78622120180231B01A15895
:102E40000B43A35075E70D4B0122E2540D4802F0ED
:102E500017F96EE786231B010122E25000212000B2
:102E600002F01FFA6CE7C046580800005C0800003A
:102E70006808000064080000010E00006E080000F1
:102E80006F080000B12900106D080000F8B50700B8
:102E90000D00160002F07EF93800FFF725FE041E33
:102EA00009D1320029003800FFF760FD040002F06C
:102EB0007BF92000F8BD02F077F9FAE70523CB563D
:102EC000002B01DB934211D1094B9C4660444342E5
:102ED00058418000074BC058097901238B40013BC2
:102EE0009340184043425841C0B270470020FCE76D
:102EF0000000D0AF8814002070B50A79202A19D8B4
:102F0000174B9C466044434258418000154BC458BF
:102F100001239340013B497949B2002910DB0800A5
:102F20002025AA1A914218DC8B401C4201D00120B6
:102F3000404270BD0C4B0D4A40210D4802F06AFF23
:102F40002020801A002805DB1A0082401442F0D0AD
:102F50000138F7E701204042EBE701204042E8E773
:102F60000000D0AF88140020442A0410602B041005
:102F7000702A041070B505000C001600FFF79EFFC4
:102F8000002801D0002007E0154802F0DDFF83197A
:102F900012339B005A510130237983420FD9237891
:102FA000617809021943A27812041143E3781B06E1
:102FB0000B4342009A5A530BE9D19219E7E70122D9
:102FC0009A401300013B074A944665446A425541C2
:102FD000B340054AAD00A9580B43AB5070BDC04685
:102FE000C42A04100000D0AF8814002010B5054B8F
:102FF0009C46604443425841800041180248FDF716
:103000009DFB10BD0000D0AFBD29002010B582B0DF
:103010000A4B9C466044434258418400E31C084AE2
:10302000009222000748FDF760FB844202DC001B8F
:1030300002B010BD01204042FAE7C0460000D0AF08
:10304000D82A0410BD29002070B504000E00FDF739
:103050001DFB050031002000FFF74EFF441C631EDE
:103060009C41E4B22800FDF71DFB200070BD00006C
:10307000F8B505000E00FDF709FB07003100280038
:10308000FFF73AFF041E09DB020031002800FFF7BA
:1030900071FF3800FDF706FB2000F8BD014802F083
:1030A00053FFC046C42A041070B504000B790125F3
:1030B0009D40013D9540FDF7E9FA0C4BE3185A425B
:1030C000534199000A4A8A5829001140A94206D161
:1030D0009B00AA4306495A50FDF7E4FA70BD054B20
:1030E000054A8A21054802F095FEC0460000D0AF8F
:1030F00088140020FC2A04104C2B0410702A0410A1
:10310000F0B5D6464F464646C0B507000E0090467D
:103110001D004B005A18D20082181100DC310968DA
:103120008A46CC32126891469B19DB00C833C3181B
:103130000433C02292011343802292021A6017E0E6
:10314000280003F0C7FF42018023DB04134374000F
:10315000A419E4003C192200DC3213604246C2404C
:1031600001231A400C4B1343D83423606B1E1D40BF
:10317000002DE5D171008B19DB00FB18DC335246C2
:103180001A608919C9007F18CC374B463B60E0BCF8
:10319000BA46B146A846F0BD80E00000F0B5C6468C
:1031A00000B506AC25784C006618F6008619370085
:1031B000DC373F68BC46CC363668B0466418E4005D
:1031C000C83404190434C026B60134438026B6023C
:1031D0002660002D01D01F2614E0002612E05401C5
:1031E000A0256D0525434C006418E4000419270050
:1031F000DC373D60114D3543D8342560053B053241
:103200001F242240052BEAD89B06520113434C0091
:103210006218D20082181500DC352B60074B1E4364
:10322000D832166063462B606118C9004018CC3054
:103230004346036080BCB846F0BDC04680E0000055
:1032400010B58300084A944663441C6840226240DB
:10325000C02414408022520113431C60C000034B61
:103260009C466044416010BD04C0014000400140E4
:1032700080000B4B9C46604400290DD00823002A97
:103280000CD004221343026853400C2213408022C6
:1032900052011043036070470023F0E70022F1E77A
:1032A00004C00140002909D08000094B9C466044BD
:1032B00080239B0118430223036070478000044B66
:1032C0009C466044C0239B01184302230360F4E73B
:1032D00004C0014070B5D0231B061B689D00094C3B
:1032E0002C59204207D19B002043064C18510D2039
:1032F00000F05AF970BD044B044ACC21044802F096
:1033000089FDC0466C270020802B0410542C04102B
:10331000AC2B041010B50400D0231B061B689B00C7
:103320000A4A9B5818420BD00D2000F057FAD023C0
:103330001B061B6805499B005A58A2435A5010BDF2
:10334000034B044AD621044802F064FD6C27002098
:10335000042C0410302C0410AC2B04100723034061
:103360009B00C00899403C308000014BC150704721
:1033700000400140F8B507000C0016001D00FFF7E3
:10338000EDFFFB089B00ED180720384080008440CB
:10339000002E04D080239B011D432C60F8BDC02368
:1033A0009B011D432C60F9E710B5D0231B061B6859
:1033B000002B03D0024BFFF7DDFF10BD014BFAE7F6
:1033C0003041014000410140002909D08000094BF3
:1033D0009C46604480239B01184340230360704750
:1033E0008000044B9C466044C0239B01184340234B
:1033F0000360F4E704C0014010B501238340D022EC
:103400001206936293610521FFF71AFF10BD0000B9
:10341000074B9B68103080001950BFF35F8FBFF3DC
:103420005F8F044B0021196082F310887047C046FB
:1034300000ED00E0240100D01F23181A704700009F
:1034400010B5091A081F0A4B9C466144094A91426B
:1034500008D8C30706D440104005400D064B18435A
:1034600080B210BD054B064AA321064802F0D2FCEB
:10347000FC070000FE0F000000E0FFFF882C041096
:103480000C2F0410B82C041010B5091A04394C087C
:10349000090B08D14905490D064A11430180064B25
:1034A0002343438010BD054B054AAB21054802F07C
:1034B000B1FCC04600F0FFFF00F8FFFF0C2D041028
:1034C000E02E0410B82C041001238340034A106836
:1034D0001840431E9841C0B27047C04600E100E06A
:1034E000002904D0034B1860034B18607047034B4E
:1034F0001860FBE780E200E000E100E080E100E02E
:1035000010B5012383401800FFF7EAFF10BD00004B
:1035100001238340014A13607047C04600E200E087
:10352000024B9B6810308000C058704700ED00E0EF
:1035300010B5FFF7F5FF002805D0054BC01A2F285E
:1035400003D8012010BD0020FCE70020FAE7C046A8
:10355000A40D002070B504000D00EFF3108672B6C4
:103560000C4B1B68002BFBD0BFF35F8F2000FFF7D5
:10357000D7FF094B984201D0A84205D1320029005B
:103580002000FFF745FF70BD044B054A8621054822
:1035900002F040FC240100D0CD0100101C2D0410CD
:1035A000402F0410B82C0410F0B5DE4657464E46A6
:1035B0004546E0B589B0814601911500EFF3108AC8
:1035C00072B6744B1B68002BFBD0BFF35F8F724B3E
:1035D0000027DF57002F40DB7C00E419A4006F4870
:1035E00024180622A2566C4B1A706D4B9A684B46F3
:1035F00010339B00D35898461E001B1A2F2B38D926
:10360000684B98452FD105AE674B33807B009B46B6
:10361000D8198000614B9846404402306349FFF757
:103620000FFF7080624BB380FF23B371F571019B74
:1036300007935F44BF0047440ECE0EC701231C43CF
:10364000A046524641464846FFF7E2FE09B0F0BCAC
:10365000BB46B246A946A046F0BD564B564AD721B6
:10366000564802F0D7FB564B534ADE21534802F02E
:10367000D1FBC04340440C2103F05AFD002912D174
:1036800001239E43B34633000026DA79AA4211D9BA
:103690000621595600290CDB4A00521892001E00E0
:1036A0003E4B9B18F1E7474B434AEA21434802F05F
:1036B000B1FB1E00002E3AD005AB434A1A80813A76
:1036C0005A800623F3560293002B17DA3F4805ABC6
:1036D0009B469880029A9A71DD71019A0792301D7B
:1036E0002100FFF7ADFEB080B7717B00DB199B00B6
:1036F0002A4FFF185B4607CB07C7A2E77800C0191F
:103700008000264BC0180430321DB388D90A1C290A
:1037100007D15B055915023149005118FFF790FE9A
:10372000D5E72B4B2B4AB121244802F073FB05AEA1
:103730001D4B33807B000293D8198000174A9046B6
:10374000020042440392901C1849FFF779FE7080F2
:10375000039A101D5946FFF773FEB0801E4B5A4660
:103760004146521A524153431B0DB371F571019AF0
:103770000792029B9C466744BF0047440ECE0EC78B
:10378000114B5A461380813B538001231C43A046B2
:1037900057E7C046240100D0BF290020A40D002017
:1037A00000ED00E0CD01001000A1FFFFD40D0020CE
:1037B00001BDFFFF542D0410282F0410B82C041055
:1037C0007C2D0410A42D04100148000001BD000050
:1037D000182E0410182F0410AAAA0000F0B5CE4627
:1037E000474680B583B006000D00EFF3108872B62F
:1037F000564B1B68002BFBD0BFF35F8F544B9A686E
:1038000034001034A300D758524B9F4207D0AF4228
:1038100000D198E00197504BFB1A2F2B09D9424653
:1038200039003000FFF7F4FD03B0C0BCB946B04624
:10383000F0BD3000FFF748FE814600213000FFF761
:103840005FFEBFF35F8FEFF30581002901D08C424B
:1038500011D10123019C9C430022A368AB4212D0EA
:103860000622A256002A0DDB53009B189B00220063
:10387000394CE418F1E73621384B394AFF313948E1
:1038800002F0C8FA2200AB4256D106256557002D3A
:1038900038DB6B005B199A002F4B9B189A68A2606B
:1038A000DA79E27106229A56A2719B795BB2002BFB
:1038B0000FDA2D48A0806B005B199B00264AD318B5
:1038C0002A4A11789971157049463000FFF718FEA1
:1038D000A5E7201D6B005B199B001F4A9B181A1D52
:1038E0009B88D90A1C2907D15B055B150233590057
:1038F0005118FFF7A5FDDDE71D4B1E4AB121194800
:1039000002F088FA002912D1002A0ED0FF23937109
:10391000194B9380154A1378A371184B0E49641AFA
:10392000644163431B0D1370CEE70A4FF2E7201D7D
:103930001349FFF7A9FDC7E76A21124B084AFF3177
:10394000084802F067FA034F69E7C046240100D037
:1039500000ED00E0CD010010A40D0020302E041079
:10396000F82E0410B82C041001BD0000BF2900205F
:10397000182E0410182F041001BDFFFFAAAA000082
:10398000DE0D0020642E041010B5032304009C43B8
:10399000064A9446644422681840C000FC338340C1
:1039A0009A43130081400B43236010BD00E400E004
:1039B00070B5012101432E4BCB1A2F2B28D8EFF3E2
:1039C0000583002B2BD0EFF3108C72B6294A1268B6
:1039D000002AFBD0BFF35F8F274A0400244D641BED
:1039E00064416243120D54B2244A92689B00D2583B
:1039F0008A421BD00022032A32D853009B189B0016
:103A00001B49CB189B795BB2A3421FD00132F2E76E
:103A1000C7211B4B1B4A49001B4802F0FBF99221AE
:103A20001A4B184AFF31184802F0F4F9134A926809
:103A30001749D150174B1A7882711C70BFF35F8FF2
:103A40000C4B00221A608CF3108870BD0D005300DF
:103A5000991889006918FF268E710F4A8A80E9E754
:103A6000D1210E4B074A4900074802F0D3F9C0465E
:103A7000A40D0020240100D0AAAA000000ED00E05F
:103A80006C2E0410C42E0410B82C0410942E0410B4
:103A9000CD010010BF29002001BDFFFFA02E0410A2
:103AA0000022044B02E0044902C30132072AFAD97A
:103AB0007047C04600E400E08080808010B5FFF7CA
:103AC000BBFC01000148FCF739FE10BDC5290020F0
:103AD00000B583B00100064B009305230022054882
:103AE000FCF703FE002801DB1F23181A03B000BDFA
:103AF000A82E0410C529002070B504000E00150082
:103B0000FCF74CFE0100200000F006F8A680E580DE
:103B1000BFF35F8F70BD0000024B9C46614489007B
:103B2000016070474000003410B50400FCF736FE19
:103B300001002000FFF7F0FFFF232371BFF35F8F29
:103B400010BD10B50400FCF729FE01002000FFF7AE
:103B5000E3FFFF23237100236371BFF35F8F10BD69
:103B6000034B9C46614489000160BFF35F8F70473F
:103B70004000003410B504000120FCF71DFE0100D8
:103B80002000FFF7EDFF10BD70B505000C00080028
:103B900000F0FCFE0949200000F03CFEFCF7FEFDB1
:103BA000074B9C466044800068602C75D0231B0640
:103BB0001B786B75A400034BE55070BDCD3E001023
:103BC000400000345C2700200A4B1A68EFF3108194
:103BD00072B61368002BFCD0BFF35F8F054B1B68D8
:103BE000BFF35F8F00221A6081F3108840BF00206E
:103BF000002170478029002010B5002922D00368D9
:103C00001B7B99421ED8174B9C466144090183686F
:103C10009C4661440C684968002A19D003681B7BE4
:103C20009A4215D883680F488446624412019A1854
:103C300010685368020001208B4201D80ED000208A
:103C4000C0B210BD084B094A3C21094802F0E2F815
:103C5000054B064A3C21064802F0DCF8A242EFD8A8
:103C6000EDE7C046FFFFFF0FF43004106C33041083
:103C7000A430041010B500291ED0037B99421BD834
:103C80004B005B18033B0468A4466344002919D029
:103C9000002A1DD0914221D0002A25D0047BA242C7
:103CA00022D80468500080180338201881701978D1
:103CB00000291FD11A7010BD104B114A68211148FC
:103CC00002F0A8F8104B114A6F310E4802F0A2F82A
:103CD0000F4B0E4A70210B4802F09CF80D4B0B4A1B
:103CE0007121084802F096F8044B054A68210548FE
:103CF00002F090F841701A70DDE7C04618310410E8
:103D0000D83304103431041094310410B433041047
:103D1000A0310410AC31041070B506000D00140081
:103D2000002914D0002A14D08068736898470028AE
:103D300006D0220029003000FFF79CFF280007E092
:103D40002A0021003000FFF795FF200000E010005E
:103D500070BD0800FCE70000F0B583B005000092DC
:103D600001930AAB1C780BAB1F78002C26D003689C
:103D70005A7B944207D10123002B19D1002C3BD14F
:103D8000200003B0F0BD002C0CD01A7B944209D85F
:103D90001A6863001B19033BD3189B78002BEBD0E8
:103DA0000123E9E73E4B3F4A68213F4802F032F8E1
:103DB0003E4B3F4A67213F4802F02CF803689C7B4A
:103DC000002CDBD012D01A7B94420FD8620012195B
:103DD000033A19688C46624451789973002900D1DE
:103DE000D9730023937053701370C7E72C4B2D4A7F
:103DF00068212D4802F00EF8002C3AD02B681B7B6E
:103E00009C4236D82C4BE3181B01AA6894466344A5
:103E1000009A1A60019A5A60089A9A60099ADA60C0
:103E20002E68002C2BD030D0337B9C422DD86300E1
:103E30001B19033B32689446634400229A705A70FF
:103E40001A70717B22003000FFF766FF70738442A6
:103E500000D095E7287D009A019B00F023FD061E07
:103E600001D0002F17D00C9B002B00D188E71E70CB
:103E700086E7124B124A3C210E4801F0CBFF114B52
:103E8000114AA521084801F0C5FF054B054A6821E4
:103E9000054801F0BFFF2868210000F03BFFE2E782
:103EA00018310410D833041034310410C431041014
:103EB000E4330410A4300410FFFFFF0FF4300410AB
:103EC0006C330410A0300410C8330410F0B5DE4683
:103ED00057464E464546E0B58BB0099000230893FF
:103EE0008200B54BD658370052E0B44BB44A3F215C
:103EF000B44801F08FFFB44BB44A3C21B44801F000
:103F000089FF002901D1002869D10021404600F035
:103F1000F7FEA04219D12A686B6806920793AB6836
:103F20009846EB689A464346002B14D0002C18D0D4
:103F30003B681B7B9C4214D8631EFA68D35C0893D1
:103F40001B0218433861002015E0A24BA24A8E21C3
:103F50009F4801F05FFFA14B9F4A92219C4801F0CE
:103F600059FF994B9E4A4121994801F053FF002384
:103F70009A46984600207B68BFF35F8F00221A6044
:103F800086F310884346002B32D1002800D10CE183
:103F900000F0FCFB02000B1EA7DB002000210690B6
:103FA00007917868EFF3108672B601680029FCD09B
:103FB000BFF35F8F396888464C7B002CD7D09AD0EE
:103FC000097B8C4297D8874965182D01B9688C46C2
:103FD000654428686968801A9941002991DD2A683A
:103FE0006B68099800F05EFC00239A469846C2E789
:103FF000089B1B022343994651461800C047050001
:104000000E007A68EFF3108B72B6136859424B4179
:10401000D9B2002BF9D1BFF35F8F002E1EDB002E2B
:1040200046DD3B69002B47D04B456DD100F0AEFB20
:1040300002000B1E6EDB52197341002B70DB002B4C
:1040400072DB0021049101310391029451460191E8
:10405000414600913800FFF77FFE4CE03B69002BA2
:10406000DDD04B4514D1069A079B521BB341002B60
:1040700014DB002B16DB0021049101310391029423
:1040800051460191414600913800FFF765FE32E04C
:10409000554B514AA1214E4801F0BCFE012252422B
:1040A000524BE6E7454B464A3F21464801F0B2FEF7
:1040B000002E01D1002DB4D13B68002C50D05A7B8A
:1040C000944237D1012100294AD1DA7B002A4DD10F
:1040D0009A7B002A03D1DA7B002A5AD19C73DC73C5
:1040E000002C5CD03B681B7B9C4258D8FA68013C92
:1040F000135D0133135500233B617A68BFF35F8F73
:1041000013608BF3108843E7374B334AA4213048C0
:1041100001F080FE294B2A4A3F212A4801F07AFE0D
:1041200001225242314B8AE7244B254A3F21254840
:1041300001F070FE002C0DD01A7B94420AD8620068
:104140001219033A1868844662449278002ABAD059
:104150000121B8E7264B274A6821274801F05AFE7B
:10416000264B274AF621244801F054FE002A0AD0A3
:10417000197B8A4207D851008A18033A19688C467D
:1041800062445470A4E71A4B1A4A68211A4801F095
:1041900041FE1C4B1A4AFB21174801F03BFE0A4B1B
:1041A0000F4A41210A4801F035FE0BB0F0BCBB4676
:1041B000B246A946A046F0BD5C27002054B10010CD
:1041C0003833041070B10010F43004106C33041054
:1041D000A4300410EC3104105033041004320410E5
:1041E00090330410FFFFFF0F10320410FFFFFF7F1A
:1041F00018310410D8330410343104104C32041038
:10420000A43304107032041010B50C4B5B68002B03
:1042100004D00A210A48FFF77FFC10BD074C230099
:10422000084A1021206800F07BFC032000F0A2FA6D
:1042300003212000FFF7A8FCEBE7C046EC0D0020AF
:1042400080290020F93B001010B5064B5B68002B5D
:1042500001D0044810BD044B044A5E21044801F01B
:10426000D9FDC046EC0D00208432041078330410D0
:10427000A4300410F0B5DE4657464E464546E0B53C
:104280008BB0804616001F00149B9A46159B9946DA
:1042900016AB1B789B461F2302AA94466344002258
:1042A0001A702BE0002809D042461268127B904217
:1042B00004D8421E4146C9688A5C41E0404B414AED
:1042C0004121414801F0A6FD07984CE0361BAF4163
:1042D000002F07DB002F11DA3C4B3D4A3F213D48C0
:1042E00001F098FD012676423B4FF3E7374B384A01
:1042F0003F21384801F08EFD002F4FDB43465A68BE
:10430000EFF3108472B6136859424B41D9B207914A
:10431000002BF8D1BFF35F8F1F3302AA944663448A
:1043200004930023039302934B4601935346009357
:1043300032003B004046FFF70FFD031EB2D10200E2
:1043400041464968BFF35F8F00250D6084F31088F4
:10435000002B29D01F2302A98C4663441B78002B15
:10436000B2D112021043002B20D05B46002B1DD08F
:104370004946D04704000D0003000B431DD000291F
:10438000A4DB00F003FA06000F1EAFDB36196F4105
:10439000002FB1DA012676420F4FADE70B4B0C4AE6
:1043A0003F210C4801F036FD012040420BB0F0BC2B
:1043B000BB46B246A946A046F0BD0798F6E7C04600
:1043C000F430041090330410A430041054B10010E1
:1043D0003833041070B10010FFFFFF7FF8B5040000
:1043E0004268EFF3108572B6136858424341D8B261
:1043F000002BF9D1BFF35F8FCBB22268567BB3425B
:104400001BD10120002848D0206988422BD0090AFE
:10441000C9B2002B2ED02068007B83422AD8581EB8
:10442000E668305C88422BD000206368BFF35F8F62
:1044300000221A6085F31088F8BD002B0DD0167B82
:10444000B3420AD85E00F618033E1768BC466644BD
:10445000B678002ED6D00120D4E7134B134A68213A
:10446000134801F0D7FC9521124B134A4900134819
:1044700001F0D0FC124B134A4121104801F0CAFC54
:104480001900100000F046FC0028CED132210E4B5E
:10449000094AFF31094801F0BDFC23698B42C4D1B0
:1044A00000232361C1E7C04618310410D83304103B
:1044B00034310410A832041020330410A430041046
:1044C000F430041090330410CC320410407D704757
:1044D000F0B587B006000F00EFF30583002B1FD166
:1044E00006246442E517A4197D418D4202D803D108
:1044F000844201D900240025002D14DB0494059585
:1045000000F044F902000B1E13DBA41A9D41002D9C
:1045100017DC14D03000390000F044F907B0F0BDCA
:10452000234801F011FD234B234A3F21234801F08A
:1045300071FC204B204A3F21204801F06BFC002CED
:10454000E8D0FFF781FE0023029301931C4B0093F8
:10455000049A059BFFF78EFE002818DADAE700239D
:1045600000E00023002BD5D1164B1A68EFF3108121
:1045700072B61368002BFCD0BFF35F8F114B1B6822
:10458000BFF35F8F00221A6081F3108820BF049967
:10459000059A0D4B5B6A9A42E3D80B48806A8842C1
:1045A00003D29A42DBD00123DCE70123DAE7C046DD
:1045B000D032041054B100103833041070B1001020
:1045C000C93B0010802900200040054070B5040060
:1045D0000D0000F0DBF802000B1E0ADB20002900B2
:1045E0008018594100290ADB00290CDBFFF770FF16
:1045F00070BD084B084A3F21084801F00BFC012020
:1046000040420749F0E7034B034A3F21034801F0CA
:1046100001FCC04654B100103833041070B10010D2
:10462000FFFFFF7F10B5FA2292000023002103F064
:1046300015F9FFF7CBFF10BD70B584B005000C0075
:10464000EFF30583002B1ED1FFF7FEFD002302933D
:104650000193224B00932A002300FFF70BFE061E56
:1046600023DD20BFFFF7F0FD3100FFF7B7FE1C4B45
:104670005B6A9C422DD81A4A926AAA422CD29C426A
:1046800025D0012026E0164B5B6A994209D8144ACE
:10469000926A824207D2994201D001201AE000209A
:1046A00018E0002016E0012014E00D4B5B6A9C42EC
:1046B00009D80B4A926AAA4207D29C4201D0012033
:1046C00008E0002006E0002004E0012002E00020D5
:1046D00000E0002004B070BD0120FBE7C93B0010E2
:1046E0000040054070B5EFF305801038EFF3108CF3
:1046F00072B61A4B1B68002BFBD0BFF35F8F0122F1
:104700001300834016494B6316490B60164909781C
:104710000C00C440224214D0114A546A8200134D46
:104720005259944206D38200114C125999430E4BB0
:10473000197007E00A4A031D9B00995899500022FE
:1047400000E00022BFF35F8F044B002119608CF35F
:104750001088002A00D0904770BDC046280100D0C4
:10476000004005403C700540C42900208C290020F1
:104770009014002010B50100024A0348FBF79CFF8B
:1047800010BDC04608340410BE290020044B5B6AEB
:10479000034A906A1900536A9942F9D17047C0469A
:1047A00000400540084B5B6A01E0074B5B6A8B42A7
:1047B000FBD301E0044B5B6A8B4203D1024B9B6A43
:1047C0008342F7D37047C0460040054070B50400EF
:1047D0000D00FFF7DBFF02000B002000290080180E
:1047E00059418B4202D804D1824202D90120404271
:1047F000C117002902DBFFF7D5FF70BD024B034A4A
:104800003F21034801F006FB54B10010C4340410EA
:1048100070B1001070B504000D00EFF3108672B691
:104820001B4B1B68002BFBD0BFF35F8F002D1CD0F0
:104830002000FEF775FE174B83420BD019002000B5
:10484000FEF788FE01212000FEF75AFE0123A34057
:10485000114A1360A400114BE550BFF35F8F0C4B5E
:1048600000221A6086F3108870BDA2000B4B002155
:10487000D1500122A2400A490B7893430B7005499D
:104880002000FEF7ABFF00212000FEF739FEE4E731
:10489000280100D0E5460010386005409014002043
:1048A000C4290020F0B5DE4600B584B00400150030
:1048B00001921E000293FFF769FF03958E4202D812
:1048C0004ED185424CD9EFF3108B72B6274B1B6843
:1048D000002BFBD0BFF35F8F254A17780125A54039
:1048E000EBB23B431370234B5D63221D9200019991
:1048F000D150A2002049029850501B6A2B4212D17D
:104900001C4B1B6C2B4208D00020BFF35F8F174B52
:1049100000221A608BF3108823E0184B184AC52137
:10492000184801F077FAFFF731FF8E4214D802D110
:10493000039B834210D80E4B1B78BB420ED00D4B0D
:104940001D625D631F2004400123A3400E4A1360D3
:10495000074B1F701E38D8E70020D6E70120D4E7A8
:10496000012004B080BCBB46F0BDC046280100D089
:10497000C4290020004005408C2900202C3404105C
:10498000A83404105034041080E200E0EFF3108CDF
:1049900072B60B4B1B68002BFBD0BFF35F8F01235C
:1049A0008340084A136208490A789A430A70BFF3A1
:1049B0005F8F034B00221A608CF310887047C0464B
:1049C000280100D000400540C429002010B500296E
:1049D0001ED0037B99421BD84B005B18033B046835
:1049E000A4466344002919D0002A1DD0914221D049
:1049F000002A25D0047BA24222D8046850008018E7
:104A0000033820188170197800291FD11A7010BD41
:104A1000104B114A6821114801F0FCF9104B114A62
:104A20006F310E4801F0F6F90F4B0E4A70210B481A
:104A300001F0F0F90D4B0B4A7121084801F0EAF939
:104A4000044B054A6821054801F0E4F941701A70E9
:104A5000DDE7C04618310410E0350410343104108D
:104A600094310410CC350410A0310410AC31041082
:104A700070B506000D001400002914D0002A14D0CF
:104A8000806873689847002806D02200290030000B
:104A9000FFF79CFF280007E02A0021003000FFF705
:104AA00095FF200000E0100070BD0800FCE700004A
:104AB00010B50023437301338373037BC373012356
:104AC000027B9A4214D9002B0CD0027B934209D866
:104AD0005A00D218033A01688C4662440133DBB2B3
:104AE0005370EDE70B4B0C4A68210C4801F092F92A
:104AF000002A09D0924207D8016853009A18033A55
:104B00008A180023537010BD024B034A68210348E2
:104B100001F080F918310410E0350410343104102C
:104B200010B5017342608360FFF7C2FF10BD000043
:104B300070B50400081E00D170BD002934D0237B5D
:104B4000994231D84B005B18033B2268944663447A
:104B50005A78002AF0D02DD0237B9A422AD85300CD
:104B60009B18033B21688C4663445D780021597093
:104B7000002825D0237B984222D843001B18033BF2
:104B800021688C4663440021597001002000FFF722
:104B90006FFF060029002000FFF7CAFF0200310066
:104BA0002000FFF765FFC7E7084B094A682109485D
:104BB00001F030F9054B064A6821064801F02AF950
:104BC000024B034A6821034801F024F9183104100C
:104BD000E03504103431041070B505000C001600E7
:104BE00000292FD034D0037B994231D84B005B1879
:104BF000033B0268944663445A78002A2ED19A787F
:104C0000002A31D11978FFF793FF0300002E0AD054
:104C1000EA7B002A2ED1AA7B002A03D1EA7B002A54
:104C20003BD1AC73EC73002B3DD1002C4FD02B7BD0
:104C30009C424CD82B6861000C19033C1C190023C2
:104C4000637070BD254B264A3821264801F0E2F8F2
:104C5000254B264A6821264801F0DCF8254B204ADE
:104C60003A21204801F0D6F8234B1D4A3B211D482C
:104C700001F0D0F8002A0AD0297B8A4207D85100D7
:104C80008A18033A29688C4662445470C3E7164B6D
:104C9000164A6821164801F0BDF8184B104A422107
:104CA000104801F0B7F8002B0BD02A7B934208D8AC
:104CB00043001B18033B2A689446634400229A7001
:104CC000B3E7094B094A6821094801F0A3F8064BEC
:104CD000064A6821064801F09DF8C046DC340410FD
:104CE000B8350410E434041018310410E035041011
:104CF00034310410343504105C3504107032041063
:104D000070B504000A00457B2900FFF765FF60735A
:104D1000280070BD70B50400002967D0437B8B422A
:104D20000ED0002911D0037B99420ED84B005B189E
:104D3000033B0268D0188378002B0CD1002056E08A
:104D40000121FFF7DDFF012051E0294B294A6821AD
:104D5000294801F05FF8002B20D0227B93421DD818
:104D60005A00D318033B2268D2182568EB5C8B42AB
:104D70001AD0002B1BD0227B934218D85A00D3188C
:104D8000033B2268D21853788B4216D0002BF0D107
:104D90001A4B1B4A6B211B4801F03CF8144B154A77
:104DA0006821154801F036F84378137007E0104B7E
:104DB000104A6821104801F02DF843785370002301
:104DC0008370437001222000FFF706FF0200617B21
:104DD000814205D02000FFF74BFE6073012006E002
:104DE000094B074A7121074801F014F8002070BDF3
:104DF00018310410E035041034310410A02E0410D2
:104E0000A0350410E43404108035041010B50100FE
:104E10000148FBF793FC10BDB629002000B583B014
:104E20000100044B00930B2300220348FBF75DFCB9
:104E300003B000BDEC350410B629002010B50C4BB2
:104E40001B68834207D10B4B99420AD103685B6A06
:104E50000949984710BD094B094A6421094800F0E7
:104E6000D9FF094B064A6521064800F0D3FFC0462A
:104E7000EC190020200E0020140E00200C36041027
:104E8000DC3704102C3604109036041010B50200E4
:104E900002211820FEF788FA10BD000010B5D023BB
:104EA0001B061A680C4B1B689B7E9A420ED1802011
:104EB00040220A494004FEF70DFA0120FFF7E6FF01
:104EC00001210D20FEF71CFB002010BD044B054AFC
:104ED0003521054800F09EFFEC190020ED4E001032
:104EE000B0360410083804102C36041010B5D02346
:104EF0001B061B68002B04D0084BDB6A9B0702D4FF
:104F000010BD074BF9E70020FFF7C0FF054B1868FD
:104F100003685B6A04499847F2E7C04630410140A4
:104F200000410140EC190020140E002010B5D023E0
:104F30001B061A680A4B1B689B7E9A4209D1802087
:104F400008494004FEF7E6F90020FFF79FFF002024
:104F500010BD054B054A3F21054800F05BFFC046E8
:104F6000EC190020ED4E0010B0360410B0370410DC
:104F70002C36041010B5014800F0E6FFF03604109E
:104F800010B50400D0231B061A68234B1B689B7EB8
:104F90009A4215D1214B1B68002B10D0204A126871
:104FA000002A02D0013A1E490A6098471C4B1B6830
:104FB000002B0BD123689B691A492000984710BD2C
:104FC000194B1A4A54211A4800F024FFFFF7DEFB60
:104FD00002000B1E0FDB1748002112184B41002B5B
:104FE0000FDB002B11DB0F498A60CB6023685B6904
:104FF00020009847E3E7104B104A3F21104800F08B
:1050000009FF012252420F4BEBE70B4B0B4A3F21AA
:105010000B4800F0FFFEC046EC190020F0190020FC
:10502000F4190020200E0020B0360410F8370410C8
:105030002C36041050C3000054B10010C4370410C3
:1050400070B10010FFFFFF7F10B5D0231B061A6858
:10505000074B1B689B7E9A4203D10120FFF716FF86
:1050600010BD044B044A4821044800F0D3FEC0465A
:10507000EC190020B0360410983704102C360410B8
:1050800010B5084B1B68834206D1074B18680368AC
:105090005B6A0649984710BD054B064A4E210648F3
:1050A00000F0B8FEF0190020EC190020140E0020CA
:1050B00010370410703704102C36041010B504009B
:1050C0000848FDF787FD084B1C6023681B69002218
:1050D0000649200098472368DB6905492000984766
:1050E000012010BDF8190020EC1900209D4E001081
:1050F000140E002010B504000F4B1B68834215D11D
:1051000003689B690D49984723681B6A0C49200076
:10511000984723681B6900220A49200098470A48DB
:10512000FDF7A0FD044B00221A6010BD074B084A92
:105130007421084800F06EFEEC190020200E0020BB
:10514000140E00202D4F0010F81900200C3604100A
:105150005C3704102C36041010B500F00DFF000071
:1051600010B582B00C000A4802F060FD6846FBF7FB
:1051700027FA06226B46991C200002F0E1FB2378F7
:1051800001229343237002221343237002B010BD07
:105190002437041010B5034B186803685B68984700
:1051A00010BDC046EC19002010B5034B1868036809
:1051B0009B68984710BDC046EC19002010B5034B02
:1051C00018680368DB68984710BDC046EC190020DA
:1051D00070B5124B1E6804000025FFF7D7FA0200D5
:1051E0000B1E0ADB12196B41002B0CDB002B0EDBB4
:1051F0003168096B3000884770BD094B094A3F216F
:10520000094800F007FE01225242084BEEE7044B2A
:10521000044A3F21044800F0FDFDC046EC1900207F
:1052200054B10010C437041070B10010FFFFFF7FAD
:10523000F8B50600154B1F68FFF7A8FA04000D1E0D
:1052400013DBFA22920000233000002102F006FB5B
:1052500022002B0012184B41002B0CDB002B0EDB25
:105260003968C96A38008847F8BD094B094A3F21A7
:10527000094800F0CFFD01225242084BEEE7044BF3
:10528000044A3F21044800F0C5FDC046EC19002047
:1052900054B10010C437041070B10010FFFFFF7F3D
:1052A000704710B5FFF766FE10B5FFF763FE10B547
:1052B000FFF760FE10B5303005F002FA10BD10B5F2
:1052C00004004423C05CFEF723F92000383005F0C9
:1052D000BFF910BD10B5080045230022CA54FFF7DE
:1052E000EEFF0020002110BD10B501230B72FFF767
:1052F000E6FF10BD10B5030030335B79002B09D0F9
:1053000030300423C356D0221206127852B29A4289
:1053100000D110BD014800F017FEC04684B2001055
:10532000D0B586B00400FFF7E5FFA27ED0231B06B0
:105330001B689A4235D0314B314AF721314800F091
:1053400069FD314B314A3F21314800F063FD0029AE
:1053500027D1002836D124E0236C002B01DC06B0D5
:10536000D0BD216C206AFFF739F800232364F6E7EB
:10537000236C002B3DDCA662E76245230122E25448
:10538000002302930194234B009332003B00206AD8
:10539000FEF770FF2064236C002BE0DC4523002225
:1053A000E254210004A800F065FA049E059FFFF76F
:1053B000EDF902000B1EC4DB30003900801A994160
:1053C0000029C4DD144A1368526873407A401343BD
:1053D000C2D04523E35C002BCAD032003B00A06A58
:1053E000E16A121A8B41002BB9DCC1D1002ABFD06F
:1053F000B5E7216C206AFEF7F1FFBCE7183804100E
:10540000303A04104038041054B10010183A041017
:1054100070B10010D55200100034041010B5040013
:10542000030030335B79012B04D02000303005F0CD
:1054300077F910BDFFF774FFF7E770B504000D00B2
:105440001600303005F03CF93000A8470500200078
:10545000FFF7E4FF280070BD10B5FFF7DFFF10BDB8
:1054600070B504004423C05C002812D0D0231B0672
:105470001B68A27E9A420DD10021FEF741F8442517
:10548000605D0749FEF7AAF9605DFEF717FB002390
:10549000635570BD034B044AB021044800F0BAFCC8
:1054A00009550010BC380410AC3904104038041001
:1054B00070B50400D0231B061B68827E9A4212D16D
:1054C000FFF7CEFF236C002B13DC250030352800BE
:1054D00005F0F6F8280005F023F948220021200005
:1054E00002F028FA70BD054B054AE621054800F098
:1054F00091FC216C206AFEF771FFE6E7E4380410A6
:10550000C03904104038041070B5EFF305832A3B0E
:10551000052B19D89B00154A9C58002C13D0A27E4D
:10552000D0231B061B689A4215D125003035002177
:10553000280005F0B5F8002805D06B79012B11D0B3
:10554000280005F0EDF870BD8E21094B094A49008D
:10555000094800F05FFC2021084B064AFF3106484D
:1055600000F058FC2000FFF7DBFEE9E7A414002060
:105570000C39041090390410403804101838041005
:1055800010B5383005F0F4F810BD10B51000190052
:10559000EFF30583002B02D0FFF704F910BDFEF7EF
:1055A00097FFFBE770B504000D00303005F088F878
:1055B0002900200000F0E0F805002000FFF72EFF92
:1055C000280070BD70B504000D00303005F078F88B
:1055D0002900200000F0C2F805002000FFF71EFFA0
:1055E000280070BD70B504000D00303005F068F87B
:1055F0002900200000F0A4F805002000FFF70EFFAE
:10560000280070BD70B504000D00303005F058F86A
:105610002900200000F086F805002000FFF7FEFEBC
:10562000280070BD70B505000C00D0231B061B6858
:10563000827E9A421BD10020FEF74AFA031E22DB2B
:10564000C0B24422A8541A3B052B16D89B000F4A1F
:105650009D500F49FDF77EFF4426A85D0121FDF70F
:105660004FFFA85D2100FEF78FF9012070BD094BA7
:10567000094AA121094800F0CDFB094B064AA621A1
:10568000064800F0C7FB0020F0E7C046A414002045
:1056900009550010BC3804107C390410403804103F
:1056A0000C390410FF23037000234360704700008F
:1056B00070B504000D004822002102F03BF9154BA3
:1056C000236003232383D0231B061B68A3766B6808
:1056D000002B15D02362A67E206AFEF7F7FE8642D5
:1056E00012D12000383001220121FEF705FA2000F6
:1056F0003030FEF726FA29782000FFF793FF70BDBF
:10570000FEF7A2FD2062E6E7034B044AD7210448D6
:1057100000F080FB443A04103C390410EC390410CA
:1057200040380410083000E018000368002B03D054
:105730008B42F9D1002002E001600B60012070472C
:10574000083000E018000368002B05D08B42F9D127
:105750000B680360012000E000207047043000E087
:1057600018000368002B03D08B42F9D1002002E01F
:1057700001600B6001207047043000E018000368EE
:10578000002B05D08B42F9D10B680360012000E0AB
:1057900000207047F8B506008068002833D0FEF777
:1057A000F5FF002906DB04000D0008239C46B444E5
:1057B00000220CE0154B164A3F21164800F02AFB48
:1057C000154B164A4221164800F024FB9C466346BE
:1057D0001B68002B12D0200029009E68DF68801B08
:1057E000B9410029F2DB34003D000E490A684968DE
:1057F000724079400A43E3D06246E7E7002A03D0CB
:10580000106803681360F8BD1000FCE754B1001085
:10581000083B041070B100107C3A0410203B0410C7
:10582000A03A041000340410F0B583B0104B5C684B
:105830001B6800930194836804E0DC689B68009314
:1058400001940B00002B0CD01968009C019D9E68F0
:10585000DF68A41BBD41002DEFDCF2D1002CECD1A0
:10586000EFE7009B019C0361446103B0F0BDC046BB
:105870000034041070B506000D0002E04B682800EB
:1058800098472800FFF786FF011EF7D16C6800E0FB
:105890002468002C09D0237A002BF9D0002323722E
:1058A0002100280063689847F2E72800FFF7BCFF53
:1058B0002B696C6933607460300070BD70B5040092
:1058C0000D00062000F07EF9C000290001F030FC38
:1058D000C60908D00E4B9E4217D87F2318400130CE
:1058E0003500460800E001256562A6622C34802060
:1058F0008001044300232360062000F063F9800048
:10590000A901891901F014FC70BD0026014DEBE7D7
:10591000FEFF0000FFFF0000002909D00A22064B0D
:105920009C466044434258414000044BC252704779
:1059300080225200F3E7C0460080FCBF9C29002073
:1059400070B505000C00062000F03CF9002829D0B5
:10595000164B9D4227D08022D203154B1A60154B5F
:105960001A60154B9B6811009943FAD10021280059
:10597000FFF7D2FF21002800FFF7A0FF2C002C34F6
:10598000E96A60224A406E2111408022520122437E
:1059900011600A4B2B6380239B01234310221A6062
:1059A0000323AB6470BD80221204D6E7008003405D
:1059B00000E0004000F0004000C000400103000093
:1059C000F8B5DE4657464E464546E0B505000F00A1
:1059D00092460A9A93424ED31A0E91461E020A9A92
:1059E00000233000494601F0E1FB80466C00641959
:1059F000A4002F4B9C4664446368834200D26060DD
:105A00002B1FDBB29B46012B3BD9C0239B012343B9
:105A1000802212011A60AB00264A9958002905D04D
:105A2000506901F085FB01300138FDD153465A0120
:105A300023685A40E0231A4080235B0123431A6005
:105A40005A46012A28D980239B0123438022120130
:105A50001A6043466360424600233000494601F025
:105A6000A5FBAD00134B58510120F0BCBB46B2461C
:105A7000A946A046F8BD104B104A2D21104800F051
:105A8000C9F9012FC1D1C0239B01234303221A600E
:105A9000A368DB07FCD5C9E72168794003220A40E7
:105AA0001A60A2680123BB401342FAD0CBE7C0467C
:105AB00000800040C4190020503B0410C03B04107B
:105AC000643B041030B583B00C2000F017F9FAF7EE
:105AD000D3FD00280DD0002304E099002D4A2E4864
