:020000041000EA
:1000000000B5324B212058609868022188439860DF
:10001000D860186158612E4B002199600221596106
:100020000121F02299502B49196001219960352056
:1000300000F044F80222904214D00621196600F024
:1000400034F8196E01211966002018661A6600F04E
:100050002CF8196E196E196E052000F02FF8012189
:100060000842F9D1002199601B49196000215960AB
:100070001A491B48016001219960EB211966A021F2
:10008000196600F012F800219960164914480160C1
:100090000121996001BC002800D000471248134993
:1000A000086003C880F30888084703B5996A0420EC
:1000B0000142FBD001200142F8D103BD02B5186610
:1000C0001866FFF7F2FF186E186E02BD00000240BE
:1000D000000000180000070000035F00212200005C
:1000E000F4000018222000A00001001008ED00E03C
:1000F00000000000000000000000000074B24E7A12
:1001000000200420F7010010C3010010C5010010F9
:10011000C1010010C1010010C1010010C101001097
:10012000C1010010C1010010C1010010C701001081
:10013000C1010010C1010010C9010010CB01001065
:10014000CD010010CD010010CD010010CD01001037
:10015000CD010010CD010010CD010010CD01001027
:10016000CD010010CD010010CD010010CD01001017
:10017000CD010010CD010010CD010010CD01001007
:10018000CD010010CD010010CD010010CD010010F7
:10019000CD010010CD010010CD010010CD010010E7
:1001A000CD010010CD010010CD010010CD010010D7
:1001B000CD010010CD010010CD010010CD010010C7
:1001C00000BE00BE00BE00BE00BE00BEEFF3058054
:1001D000103800BEF2EB8871A8260410D426041053
:1001E0003402001090A31AE700201F49086006C8D7
:1001F00081F3088810471D48006800282FD10DA4FE
:100200000ECC002902D000F012F8F9E71849194A7B
:10021000002000E001C19142FCD1174988471749ED
:1002200088471749884700BEFDE701C901C29A42C5
:10023000FBD37047D4260410C00000209811002082
:10024000AC3704100000042000000420AC37041078
:10025000001004200010042000000000704709482E
:1002600000F090FB0047000008ED00E0000000D027
:10027000981100208C2C0020DD5F0010310300104D
:10028000D16000105756000006005250ABB36053C7
:100290002424041006005250861C03023424041047
:1002A000060052505422A29D4024041005005250D2
:1002B000DE65F468AC370410F8B5C04610B5064CDE
:1002C0002378002B07D1054B002B02D0044800E017
:1002D00000BF0123237010BDE813002000000000C0
:1002E00068A80010044B10B5002B03D00349044844
:1002F00000E000BF10BDC04600000000EC1300206D
:1003000068A8001070B5051E11DD00240121002031
:1003100000F01AF9FA2004F021FC0021002000F07E
:1003200013F90134FA2004F019FCA542EED170BD96
:10033000F8B5DE4657464E464546E0B507F0E8FFBD
:1003400000F012F91A24002800D0CDE020001F216F
:1003500003F0F4FC20000022002103F007FD200040
:100360000021013403F08AFD1E2CEFD10222644BE0
:100370001A600AF05BF9634B03201A68624B534022
:10038000624A1340624A13600022624B1A61E02203
:100390001B68D2011340604A1360FFF7B3FF5F4B45
:1003A0005F4D98460823994607F0BAFF01210400E3
:1003B000002000F0C9F8FA2004F0D0FB0021002052
:1003C00000F0C2F8FA2004F0C9FBFF231C40532CB4
:1003D00041D0732CE8D1012004F07AFFC102030060
:1003E0004846504A9B010A404F4944461143444AFB
:1003F0001060A0224D48D2059A1810606420546005
:100400009060D1604A4A80219446490463441A6846
:100410000A42FCD14A46474B3E491A6080225200AC
:100420000B681342FCD08B68134206D18021394BF4
:100430004900DA689A680A42FBD0FA26B6004644B8
:100440002178280007F058FF01343B2007F066FEB2
:10045000B442F5D1A8E7334BFA269B46324B052729
:100460009A46B6004644012004F032FF5B46C202C1
:100470001A40534649461A43214B1960A021830173
:10048000C9052A485918086040464860FA2080008B
:100490008860CA60264A80219446490463441A68E9
:1004A0000A42FCD14A46234B1A491A608022520064
:1004B0000B681342FCD08B68134206D18021154B88
:1004C0004900DA689A680A42FBD04446217828003D
:1004D00007F012FF01343B2007F020FEA642F5D1C1
:1004E000013F002FBFD15FE7134807F005FF012050
:1004F0004042F0BCBB46B246A946A046F8BDC04645
:1005000000E0044008C004400B0000010F00000F91
:1005100008D0044000C0044000D0044088190020E6
:1005200068A80010FD7F00FF210012000CC00440ED
:100530001000005000F0044070A80010014B18603B
:100540007047C0466018002010B50A00010002483C
:1005500003F018FA10BDC046B81D0020014B186802
:100560007047C0466018002010B582B0FFF7F6FF54
:10057000002807D004F054FF03000020002B12D005
:1005800002B010BD684605F087F9114C694620009D
:1005900005F088F9002804D02000FFF7CFFF2000E5
:1005A000E8E70238ECE7FFF7D9FF040004F054FF56
:1005B000074B9C4202D002204042E1E72368200022
:1005C0005B6B98470020FFF7B9FF02204042D7E756
:1005D0009811002010B5024800F0E0F810BDC046A8
:1005E000382B002010B50822014907F07FFC10BD10
:1005F000382B002030B54B1E012900D1A7E0664AF8
:1006000011780D112C0030349F2900D9A2E004701C
:10061000012B00D1BEE00F21147821400C003034B2
:10062000092900DD98E04470022B00D1B2E0547833
:100630002511290030319F2C00D990E08170032BC7
:1006400000D1A7E00F2121400C003034092900DD42
:1006500087E0C470042B00D19CE094782511290018
:1006600030319F2C00D97FE00171052B00D191E042
:100670000F2121400C003034092900DD76E044715F
:10068000062B00D186E0D4782511290030319F2C2B
:1006900000D96EE08171072B00D17BE00F21214052
:1006A0000C003034092966DCC471082B00D171E0DC
:1006B00014792511290030319F2C5FD80172092B44
:1006C00068D00F2121400C003034092958DC4472D5
:1006D0000A2B5FD054792511290030319F2C52D834
:1006E00081720B2B56D00F2121400C003034092988
:1006F0004BDCC4720C2B4DD094792511290030317C
:100700009F2C00D9073101730D2B43D00F212140BD
:100710000C003034092901DD37310C0044730E2BF5
:1007200038D0D1790C11220030329F2900D90732FC
:1007300082730F2B2ED00F220A4011003731092A65
:1007400001DC30321100C173102B23D01030002394
:10075000037030BD07345AE737310C0063E70731C7
:100760006CE737310C0074E707317DE737310C0057
:1007700085E707318EE737310C0095E707319DE7B4
:1007800037310C00A3E70731AAE737310C00C472F8
:100790000C2BB1D1C018DAE7382B002030B500257A
:1007A00089B004000922002101A8009507F098FBF8
:1007B0000922002105A8049507F092FB4B236A4605
:1007C0006846137004A90D2209F0BEFF1521082206
:1007D0002000694407F08AFB09B030BD024B18685D
:1007E0008007C00F7047C04600C00640EFF310807E
:1007F00072B6034A1368002BFCD0BFF35F8F7047BB
:100800002C0100D0BFF35F8F0022024B1A6080F3EF
:10081000108870472C0100D070B5EFF3108C72B6C1
:100820000D4D2B68002BFCD0BFF35F8F0724CB0846
:10083000C618C05C01230C40A3401C0004400342C6
:1008400007D103433370BFF35F8F2C608CF31088A4
:1008500070BD100005F040FC2C0100D0F8B54746F3
:10086000CE46884680B5EFF3108C72B6214D2C68C9
:10087000002CFCD0BFF35F8F9A422CD8D4080727F6
:10088000055D061901241740BC402C421FD00721EA
:100890000127894609E0D408055D06194C46390050
:1008A0001440A1400C00294211D001329342F2D2EF
:1008B00001204042BFF35F8F00220E4B1A608CF381
:1008C000108800280FDBC0BCB946B046F8BD2C43E9
:1008D00010003470EEE7BFF35F8F00232B608CF3C2
:1008E0001088012040424346002BECD0089805F0C8
:1008F000F3FBC0462C0100D030B5EFF3108C72B67C
:100900000A4C2368002BFCD0BFF35F8F0723012222
:10091000CD0819408A40435D93434355BFF35F8F31
:10092000002323608CF3108830BDC0462C0100D01A
:100930000021044B044ABFF35F8F02C39342FAD1F4
:100940007047C046000100D0800100D0044A1078F2
:10095000431CDBB2172B00D9102313707047C0461D
:100960006010002000B5054B83B0010000931822F1
:100970001F230348FFF772FF03B000BD84A80010D7
:10098000801D0020142310B50100188804331B8833
:10099000984710BD162310B50100188802331B8834
:1009A000984710BDF8B54746CE4680B50F1E19D002
:1009B00014239946043304000025012698464B462B
:1009C0001888434621681B88984701C4431E9841F4
:1009D000013540420640AF42F1D13000C0BCB946BB
:1009E000B046F8BD0126F8E710B5052005F030FA4D
:1009F000030C64200349584306F0A4FE0338FDD2DB
:100A000010BDC0469A3B0000F0B54646D6464F465C
:100A1000C0B5644E050082B03100634803F032F87F
:100A2000002809D13100614803F02CF8002800D1DA
:100A3000B0E006225D4801E007225B488427FF23DF
:100A40005B4C3F010021EC5120602372E371227165
:100A500002F0FAFF40B2A071002800DA9DE03100F8
:100A6000206803F043F840B2421D60711203C001D8
:100A7000104330234F4AC8270240924601224E4875
:100A8000BC46016880278B434C49BF020B6003685A
:100A90001000984308602068802301009B013831D2
:100AA0000B438021490419600621B84661569146DE
:100AB0004B005B18DB00C3189C44674642463A6013
:100AC000CC2294469C446246574617601A00C027C1
:100AD000D032BF0217603A4ADC331A604B461D22FF
:100AE000009303F0D3F81820217903F027F90122AD
:100AF0000021182003F03AF90121182003F04EF9E3
:100B00000622A256002053009B182268DB00944660
:100B10002C4A6344D8331A6004F0DAFBE0710020F9
:100B200004F0D6FBE27943B223727F2A08D8002072
:100B3000002B05DB02B0E0BCBA46B146A846F0BDCA
:100B400084231B01EC58002C24D006216156002977
:100B50000CDB0522A256531C05D03100206803F09F
:100B600029F806216156206802F05EFF0720205612
:100B7000002803DB04F0A4FBFF23E37108202056C8
:100B8000002803DB04F09CFBFF2323728423002254
:100B90001B01EA5006204042CCE7EC59002CD4D18E
:100BA000F8E7C046BCA800100000305000002050FC
:100BB0007C190020FFFFFF9F78C0014078D00140E2
:100BC00018771C2401E0000084231B0170B5C45871
:100BD0000500002C1CD00621615600290CDB0522E3
:100BE000A256531C05D01249206802F0E3FF0621EB
:100BF0006156206802F018FF0720205600280DDA01
:100C000008202056002804DA842300221B01EA5021
:100C100070BD04F055FBFF232372F5E704F050FB91
:100C2000FF230820E37120560028EDDBF1E7C046E2
:100C3000BCA80010F0B54E464546DE465746E0B526
:100C400087B0884616000293002900D1BAE08423B9
:100C50001B01C4581820217903F070F81D20217958
:100C600003F06CF8012200211D2003F07FF8D0234F
:100C700080221B0692049A61029B002B00D0BBE0ED
:100C800006210122615691468A40206803689343F9
:100C900003600523E3569C464B005B18DB00C51838
:100CA000CC352A68D0339246624601321703039747
:100CB000D74FC318BB4657465A4617403A00039FC2
:100CC00017433A006746FF013A432A6080225201E7
:100CD0001343802212061A601A60802306255B04E3
:100CE0001A0002F081FF4A46655721682B1D9A4081
:100CF0009C4680239B010B431A6008229246AA441B
:100D000050464A4682401A60F300AA008A18013B06
:100D100013616B005B19DB00BE48CB18D833186039
:100D200002981061BC4A1A601F22607902401A6062
:100D30000723E356A0209B464B465A469340B74AAA
:100D4000C00583505B4680229F01B54B5204F818C2
:100D500003681342FCD15B46B24ADB02914200D1E8
:100D600051E1B14AB60813405246D2031343AF4A89
:100D70001343A022D205914642464F443A60624650
:100D8000900008187860BE60FB6001232A001800FC
:100D900018329040AB4088600200086803430B6043
:100DA0008B681A42FCD006210122615620688A40D5
:100DB000036893430360002318220093013302F079
:100DC00065FF03E1002B00D11FE184231B01C45800
:100DD0001820217902F0B2FF1D20217902F0AEFF28
:100DE000012200211D2002F0C1FFD02380221B061A
:100DF00092049A61029B984606210122615691460F
:100E00008A4020680368934303600523E3569C46A9
:100E10004B005B18DB00C518CC352A68D0339246EE
:100E20006246053217030397794FC318BB465746EE
:100E30005A4617403A00039F17433A006746FF019E
:100E40003A432A60802252011343802212061A601C
:100E50001A6080235B041A0002F0C6FE0621484691
:100E6000615623680A1D03929040802292011A4322
:100E70001060082082468A4448465546A8401060C3
:100E8000F20088001818013A02614A005218D20094
:100E9000604D9A18D8321560109D029FAD1BED0071
:100EA000013D05615C4810601F2065792840106095
:100EB0000722A25694464A4660468240A020C005BA
:100EC00081464D4655482A50624692019346049207
:100ED0008022534D52045D4428681042FCD1082200
:100EE000A2564D4693460122584682404B482A500E
:100EF0005A469201914605928022494D52044D4432
:100F000028681042FCD1624646480297D2028342CA
:100F100000D174E00C20814689445546424FED03D0
:100F20003A402A43414D049F1543039AAA4695002F
:100F3000A022D20594466744BC463A004746176053
:100F40005A1990466246474657606746B008B860EF
:100F500002005046F8605846334FC00238404F46B2
:100F6000FF033843324F10353843109F5D19BF08D7
:100F7000BA1AA027FF05B8469446059A029F424434
:100F80001560BD19556065469560D06001228A40A4
:100F9000186802431A600722264B80219C46A256FD
:100FA00049049201624413680B42FCD10822214B90
:100FB00080219C46A25649049201624413680B4268
:100FC000FCD138000021320006F08AFF062161566C
:100FD00023684A005218D2009B18174AD8331A6067
:100FE000D02380221B0692045A61FFF7FDFC0020EB
:100FF00007B0F0BCBB46B246A946A046F0BD039878
:101000008A46814689E7AA46ABE605204042EFE7DB
:101010007F00FEFF206000004060000044040000EC
:101020000C00005000002050FD7F00FF1900400020
:10103000290040001000005003A0000010B5172048
:1010400002F030FFD024802324061B04002201215B
:101050006362172002F08AFE182002F023FF80232B
:101060005B0463621920A36102F01CFF80239B04D0
:101070006362636110BDC04670B5D024802524062C
:101080002D04A561142003F069FD6561FA2003F0C9
:1010900065FD182002F006FF80235B04A36270BD8B
:1010A000002300B585B003930A4BD2021A400823EF
:1010B00009070A4308490093114302AB49BA0422C5
:1010C00002910021FFF7B6FD002801D1039840BA34
:1010D00005B000BD00F8FF0F0400004010B586B059
:1010E000012916D0154BD2021A40082309070A43DA
:1010F000134903AC0A430392009304222300002106
:10110000FFF798FD0123002801D19B00E05806B0AD
:1011100010BD0A4BD2021A400A4B03AC1A430C23EF
:1011200003920093042223000021FFF783FD00288F
:10113000EDD102239B00E058E9E7C04600F8FF0F1D
:10114000040000400800005010B586B0012916D0F8
:10115000154BD2021A40082309070A43134903AC6E
:101160000A4303920093042223000021FFF762FD4B
:101170000123002801D19B00E05806B010BD0A4BA6
:10118000D2021A400A4B03AC1A430C230392009379
:10119000042223000021FFF74DFD0028EDD102239A
:1011A0009B00E058E9E7C04600F8FF0F020000404E
:1011B0000600005010B586B0012916D0154BD2029A
:1011C0001A40082309070A43134903AC0A43039250
:1011D0000093042223000021FFF72CFD01230028A7
:1011E00001D19B00E05806B010BD0A4BD2021A4054
:1011F0000A4B03AC1A430C230392009304222300EE
:101200000021FFF717FD0028EDD102239B00E058D5
:10121000E9E7C04600F8FF0F01000040050000505C
:10122000F0B55BBAD6464F464646C0B584B0039388
:101230008423684CD202224009070A431B016649F5
:10124000C458114349BA02911820217902F076FD61
:101250001D20217902F072FD012200211D2002F0E3
:1012600085FDD023802206211B0692049A6101226B
:10127000615690468A402068584E036802AD9343F9
:1012800003600523E3569C464B005B18DB00C71840
:10129000CC373A68D0339146624601321203924607
:1012A0004A461640524632436646F60132433A6099
:1012B0008022C31852011343802212061A601A605A
:1012C000802306265B041A0002F08EFC4146A657D6
:1012D0008023371DB94022689B0113431960082100
:1012E0008C46B44441466046814019603F23B100BA
:1012F00051180B6173009B19DB003948D318D833A0
:10130000186000200861374919601F216079014089
:1013100019600723E356A0209946434649468B406F
:101320003149C00543504B469B01984680212F48C8
:101330004904404403680B42FCD14B462C49DB0274
:101340008A4244D02B4902200B406146C9030B431B
:101350002949BF000B43A021C9054144D7190D609D
:101360004F608860CB60012331001800183188403D
:10137000B3409060010010680343136093680B4210
:10138000FCD006210122615620688A4003689343FD
:101390000360002318220093013302F077FC06213A
:1013A000615623684A005218D2009B18134AD8335A
:1013B0001A60D02380221B0692045A61FFF714FBA7
:1013C000002004B0E0BCBA46B146A846F0BDB44621
:1013D000B8E7C04600F8FF0F040000C07F00FEFF22
:1013E0002060000040600000440400000C00005039
:1013F00000002050FD7F00FF1900400003A0000006
:10140000F0B5D6464F464646C0B56F4CD202224094
:101410000C0722436D4C84B0224302AD02926B60F4
:1014200001290AD108246A4944506A4942506A4A4B
:101430008350852382681B01C25084231B01C4583A
:101440001820217902F07AFC1D20217902F076FC27
:10145000012200211D2002F089FCD02380220621D8
:101460001B0692049A610122615690468A402068C8
:101470005A4E0368934303600523E3569C464B0092
:101480005B18DB00C718CC373A68D0339146624608
:101490000132120392464A4616405246324366468D
:1014A000F60132433A608022C3185201134380226E
:1014B00012061A601A60802306265B041A0002F0E6
:1014C00093FB4146A6578023371DB94022689B01F4
:1014D0001343196008218C46B4444146604681405C
:1014E00019603F23B10051180B6173009B19DB0099
:1014F0003B48D318D8331860002008613949196077
:101500001F216079014019600723E356A020994606
:10151000434649468B403449C00543504B469B01E6
:101520009846802131484904404403680B42FCD16D
:101530004B462F49DB028A4244D02E4902200B4001
:101540006146C9030B432C49BF000B43A021C905C9
:101550004144D7190D604F608860CB600123310092
:10156000180018318840B3409060010010680343B0
:10157000136093680B42FCD006210122615620685B
:101580008A400368934303600023182200930133C9
:1015900002F07CFB0621615623684A005218D200F3
:1015A0009B18164AD8331A60D02380221B06920457
:1015B0005A61FFF719FA002004B0E0BCBA46B14600
:1015C000A846F0BDB446B8E700F8FF0F040000C01D
:1015D0004C08000044080000480800007F00FEFF9F
:1015E0002060000040600000440400000C00005037
:1015F00000002050FD7F00FF1900400003A0000004
:10160000F0B5D6464F464646C0B56F4CD202224092
:101610000C0722436D4C84B0224302AD02926B60F2
:1016200001290AD108246A4944506A4942506A4A49
:101630008350852382681B01C25084231B01C45838
:101640001820217902F07AFB1D20217902F076FB27
:10165000012200211D2002F089FBD02380220621D7
:101660001B0692049A610122615690468A402068C6
:101670005A4E0368934303600523E3569C464B0090
:101680005B18DB00C718CC373A68D0339146624606
:101690000132120392464A4616405246324366468B
:1016A000F60132433A608022C3185201134380226C
:1016B00012061A601A60802306265B041A0002F0E4
:1016C00093FA4146A6578023371DB94022689B01F3
:1016D0001343196008218C46B4444146604681405A
:1016E00019603F23B10051180B6173009B19DB0097
:1016F0003B48D318D8331860002008613949196075
:101700001F216079014019600723E356A020994604
:10171000434649468B403449C00543504B469B01E4
:101720009846802131484904404403680B42FCD16B
:101730004B462F49DB028A4244D02E4902200B40FF
:101740006146C9030B432C49BF000B43A021C905C7
:101750004144D7190D604F608860CB600123310090
:10176000180018318840B3409060010010680343AE
:10177000136093680B42FCD0062101226156206859
:101780008A400368934303600023182200930133C7
:1017900002F07CFA0621615623684A005218D200F2
:1017A0009B18164AD8331A60D02380221B06920455
:1017B0005A61FFF719F9002004B0E0BCBA46B146FF
:1017C000A846F0BDB446B8E700F8FF0F020000C01D
:1017D0004C08000044080000480800007F00FEFF9D
:1017E0002060000040600000440400000C00005035
:1017F00000002050FD7F00FF1900400003A0000002
:10180000F0B5D6464F464646C0B56F4CD202224090
:101810000C0722436D4C84B0224302AD02926B60F0
:1018200001290AD108246A4944506A4942506A4A47
:101830008350852382681B01C25084231B01C45836
:101840001820217902F07AFA1D20217902F076FA27
:10185000012200211D2002F089FAD02380220621D6
:101860001B0692049A610122615690468A402068C4
:101870005A4E0368934303600523E3569C464B008E
:101880005B18DB00C718CC373A68D0339146624604
:101890000132120392464A46164052463243664689
:1018A000F60132433A608022C3185201134380226A
:1018B00012061A601A60802306265B041A0002F0E2
:1018C00093F94146A6578023371DB94022689B01F2
:1018D0001343196008218C46B44441466046814058
:1018E00019603F23B10051180B6173009B19DB0095
:1018F0003B48D318D8331860002008613949196073
:101900001F216079014019600723E356A020994602
:10191000434649468B403449C00543504B469B01E2
:101920009846802131484904404403680B42FCD169
:101930004B462F49DB028A4244D02E4902200B40FD
:101940006146C9030B432C49BF000B43A021C905C5
:101950004144D7190D604F608860CB60012331008E
:10196000180018318840B3409060010010680343AC
:10197000136093680B42FCD0062101226156206857
:101980008A400368934303600023182200930133C5
:1019900002F07CF90621615623684A005218D200F1
:1019A0009B18164AD8331A60D02380221B06920453
:1019B0005A61FFF719F8002004B0E0BCBA46B146FE
:1019C000A846F0BDB446B8E700F8FF0F010000C01C
:1019D0004C08000044080000480800007F00FEFF9B
:1019E0002060000040600000440400000C00005033
:1019F00000002050FD7F00FF1900400003A0000000
:101A0000F0B5C64600B504001D0082B001292ED0F5
:101A10001F0018230120984600261A4BD2021A40B4
:101A200009073A430A4380210430C90580000A436C
:101A30002018426003224346E91C9143043189196E
:101A4000009120000021E3180132FFF7F3F8061E91
:101A500013D12100089B1C31994203D02A001800A1
:101A600006F044FA300002B080BCB846F0BD1F1D3D
:101A70001423002098460426CFE70100024806F010
:101A80003BFCEFE700F8FF0FA0A80010F0B54E46B2
:101A90004546DE46574691469846DA1C0323E0B594
:101AA0009A4389B005000E000392022924D0280031
:101AB000129B1C3098423FD01900434636071E4304
:101AC0004B46244ADF0217403E43C0273F063E43B1
:101AD0004246AE6106F00AFA29000023039A280064
:101AE000043218310093FFF7A5F809B0F0BCBB46EB
:101AF000B246A946A046F0BD174B20279B460823B7
:101B0000164C9A4601E0013C10D35B4605935346C0
:101B1000042200930021280005ABFFF78BF8002872
:101B200000D106980742EED0002CC0D10C4806F038
:101B300041FB06204042D8E74B46DF024346054AB8
:101B4000360717401E433E43C0273F063E43AE6163
:101B5000C2E7C04600F8FF0F04400040E703000062
:101B6000BCAA0010836870B5CC0B0500E403A34247
:101B70000BD063401A0E19D1FF22120413420CD16C
:101B8000FF221202134201D1AC6070BD0121280076
:101B90000A4A230AFFF734FEF6E7230C0121280046
:101BA000074AFFF72DFEAB686340E9E7230E0121EA
:101BB000044AFFF725FEAB686340DDE70A00010039
:101BC0000B0001000C000100F0B5C646033083088D
:101BD0009C4600B58E1E002B1DD00B0033435B07C7
:101BE00054D16346013B0A2B50D9C308984642465C
:101BF00030000B00D2008F1830CB30C09F42FBD199
:101C00004346B4185F008A18BC4504D05388108836
:101C10001B040343236008000B888A1D5BBA738092
:101C20008B1C1B680A301BBA7360126812BAB26050
:101C3000006800BAF060452B03D0300080BCB84685
:101C4000F0BD082AF9D10B000A000C00B232AE3305
:101C50001B8810682E3425691A18AA4222D83A31F6
:101C6000C918081881424AD20027002504E0DD2A5D
:101C70001CD0C91888422CD94B780233CA1890421C
:101C8000F7D30A78302AF2D10D00F2E7634632002A
:101C900098003018938854881B04234308C282425A
:101CA000F8D1B8E701235B42B360C6E78A1C9046CF
:101CB0008A78002ADDD142465278502AD9D142464C
:101CC0009278F22AD5D14246D278012AD1D10F009A
:101CD000CFE7002D10D006230422002F0AD0A28BBC
:101CE000D20601D5012213438422B15CB1520432E1
:101CF000B354A2E71300F2E702230022EDE700232A
:101D0000EDE7C046F8B5CE4647460500894680B5A2
:101D1000002932D001230121204AFFF771FD012360
:101D2000012128001D4AFFF76BFD03230327984676
:101D3000012640240BE0012003F0F2FB013C3300BC
:101D400001212800154AFFF75BFD002C10D001216E
:101D50002800124AFFF72EFA0028ECDB3B00034074
:101D60004345E8D1FF28E6D0C0BCB946B046F8BD2F
:101D700049460B4806F0C0FAF6E700230121074A5E
:101D8000FFF73EFD002301212800044AFFF738FD3C
:101D90000023012798460026CBE7C0461F0001001C
:101DA000D0A80010F0B5D6464F464646C0B5C37C15
:101DB00005000F00924682B0002B04D1006801F0AC
:101DC000B9FC002865D0280001F0BAFCAB7C002BE0
:101DD00005D101212800FFF795FF0123AB74EB7CAF
:101DE000002B64D0FA24A40002E0013C002C50D067
:101DF000082200212800FFF771F9431CF5D0C30524
:101E000045D5C02203035B0D591ED200914200D379
:101E1000B7E0820700D5B4E02C001C340022022178
:101E200028000094FFF7ECFD002828D1AB8BEA8B4B
:101E3000002B2AD00121E97466498C4619005140D3
:101E4000614500D0A4E0D24392B2934200D0A6E014
:101E50000B2B00D8A9E02422AA5CAA732122A95C3A
:101E6000123A0A40022A17D90C2B00D1A9E0012A04
:101E70005BD0022A36D0002A47D00B20404202B065
:101E8000E0BCBA46B146A846F0BD002AD2D1002334
:101E9000EB7401204042F2E72521695C8C466646DE
:101EA000697B711AC9B21429DED86E73DCE704228B
:101EB00000212800FFF748F983B29846464B0004FA
:101EC00099461B88040C434502D0862323424DD1FA
:101ED0004346002B4FD14B4642461A80A30600D5FD
:101EE00080E7D6E7102B69D92322A95C022061186C
:101EF000CA78920004328A18141B1C1B8B78DB07EB
:101F00001C4353463C601A60B9E71B2B5FD9233250
:101F1000AA5C2D8AA21851898D424CD11032141B13
:101F20001C1B53463C601A60A9E7102B4CD9232296
:101F3000AA5CA218D178890004315218117B141BB5
:101F40001B1B882934D1517B6C2931D1D17C0029CC
:101F500028D1117D102925D1517D182922D1183B76
:101F60003B605346183201201A6088E721001B4865
:101F700006F0C2F9ACE7042200212800FFF740FB7D
:101F8000A9E7012301212800154AFFF739FC7EE764
:101F90001900144806F0B0F9012040426FE7022012
:101FA00040426CE70A20404269E70320404266E76E
:101FB0000920404263E70620404260E70720404294
:101FC0005DE7042040425AE70820404257E70520D9
:101FD000404254E7FFFF00007C2C0020F4A80010D2
:101FE0000D00010020A90010F0B5DE4657464E4610
:101FF00045460400E0B585B09A468946934601F00F
:102000009FFBA37C002B05D101212000FFF77AFE66
:102010000123A374A37B002B24D02C4E2C4FB36A36
:1020200098460EE0A17B002903D1207B637B83428D
:102030001CD14346ED1ABD423FD8FA20800003F080
:1020400055FA200003AA02A9B56AFFF7ABFE0128E2
:10205000E8D103990298FFF7B7FD0100200001F0D5
:1020600075FBDFE7207B637B8342D6D05B4651461E
:102070000C339AB20A80D24308714A8052464946CC
:102080005171002251468A71494602394D426941D7
:10209000554649000C310130E9712A816A810221DB
:1020A0002073002220000095FFF7F0FC05B0F0BC83
:1020B000BB46B246A946A046F0BD637B227B0548DD
:1020C00006F01AF901204042F0E7C0460040054002
:1020D00040420F004CA90010F0B5454657464E4609
:1020E000DE4692461A0098468023E0B51C32050071
:1020F000894683B01B019A421ED8524682624246EC
:102100001204038A120CC2620D9A01339BB21203AD
:1021100003820A431B0413430363002342464363C1
:102120000C99383005F0E2FE2B00424600212800D1
:102130001C331032FFF758FF274E284AB76AB36A9C
:10214000DB1B93422ED8264B9B4610E0022820D062
:10215000002803DB0100584606F0CEF8FA20800084
:1021600003F0C4F9B36A1D4ADB1B93421AD86946CF
:10217000280001AAFFF716FE041E23D00128E5D18E
:1021800001990098FFF720FD0100280001F0DEFA18
:10219000E4E70099019B4A0028685208C90F03F040
:1021A000EFF9DBE743465246494601240D4806F065
:1021B000A3F86442200003B0F0BCBB46B246A94677
:1021C000A046F0BD009A424500D9424601990C98BC
:1021D00008F042FBEEE7C046004005403F420F00DA
:1021E00070A900109CA90010F0B5454657464E4610
:1021F000DE4692461A0098468023E0B51C32050060
:10220000894683B01B019A421BD85246038A8262D8
:1022100001339BB2038242461B040B43036300233A
:102220001204120CC262436342460C99383005F026
:102230005DFE2B004246002128001C331032FFF7C0
:10224000D3FE274E274AB76AB36ADB1B93422ED8C8
:10225000254B9B4610E0022820D0002803DB01001C
:10226000584606F049F8FA20800003F03FF9B36AB7
:102270001C4ADB1B93421AD86946280001AAFFF7C3
:1022800091FD041E23D00128E5D101990098FFF7A4
:102290009BFC0100280001F059FAE4E70099019B3A
:1022A0004A0028685208C90F03F06AF9DBE7434681
:1022B0005246494601240D4806F01EF864422000AB
:1022C00003B0F0BCBB46B246A946A046F0BD009A9A
:1022D000424500D9424601990C9808F0BDFAEEE754
:1022E000004005403F420F0070A900109CA900105B
:1022F000F8B5CE46474604000D0080B5012900D14F
:10230000D4E1D04B90279846FF01C02641462000DB
:10231000FFF728FC3A0001212000FEF74BFFA368DD
:102320007605B34210D073401A0E00D0DBE0FF22D6
:102330001204134200D0E3E0FF221202134200D045
:10234000EEE0C0235B05A36041462000FFF70AFCD6
:102350003A0001212000FEF72DFFC022A36852059C
:1023600006009146934210D053401A0E00D093E1DC
:10237000FF221204134200D082E1FF221202134214
:1023800000D075E1C0235B05A360F30700D495E19D
:10239000012D00D18FE1AC4DAC4E31002000FFF794
:1023A000E1FB03232A0001212000FFF729FAC022C4
:1023B000A36852059146934210D053401A0E00D0A4
:1023C0004CE1FF221204134200D02EE1FF22120240
:1023D000134200D021E1C0235B05A360310020003F
:1023E000FFF7C0FB2A0001212000FEF7E3FEC02218
:1023F000A36852059146934210D053401A0E00D064
:1024000001E1FF221204134200D0F0E0FF22120289
:10241000134200D0E3E0C0235B05A36041462000E7
:10242000FFF7A0FB3A00C027002301212000FFF79F
:10243000E7F9A3687F05BB4210D07B401A0E00D09D
:10244000C4E0FF221204134200D0B3E0FF221202C4
:10245000134200D0A6E0C0235B05A360C027012083
:1024600003F05EF831002000FFF77CFB01232A0017
:1024700001212000FFF7C4F9A3687F05BB420FD0FC
:102480007B401A0E00D084E0FF221204134200D0D9
:1024900073E0FF221202134267D1C0235B05A360E1
:1024A00031002000FFF75EFB2A00C025012120003B
:1024B000FEF780FEA3686D05AB420DD06B401A0E8F
:1024C0004AD1FF22120413423AD1FF2212021342D0
:1024D0002ED1C0235B05A360012003F021F8C0BC0E
:1024E000B946B046F8BD1823594A01212000FFF72C
:1024F00087F9FF22A36812047340134200D11BE73F
:10250000C023544A5B0101212000FFF779F9C02361
:10251000A2685B055340FF221202134200D110E76C
:10252000C023012120004C4A5B03FFF769F908E74B
:10253000C02301212000484A5B03FFF761F9C8E787
:10254000C023444A5B0101212000FFF759F9C02351
:10255000A2685B055340B8E71823012120003C4ADC
:10256000FFF74EF9A3686B40ABE7C02301212000C1
:10257000394A5B03FFF744F98FE7C023354A5B0113
:1025800001212000FFF73CF9C023A2685B055340FE
:102590007FE71823012120002D4AFFF731F9A368B6
:1025A0007B4071E7C023012120002B4A5B03FFF72A
:1025B00027F950E7C023274A5B0101212000FFF7DC
:1025C0001FF9C023A2685B0553403FE71823012190
:1025D00020001F4AFFF714F9A3687B4031E7C023AE
:1025E000012120001C4A5B03FFF70AF913E7C0230F
:1025F000184A5B0101212000FFF702F9C023A268FD
:102600005B05534002E71823114A01212000FFF720
:10261000F7F84B46A2685340F3E6C023012120009F
:102620000D4A5B03FFF7ECF8D5E6C023094A5B01CE
:1026300001212000FFF7E4F8C023A2685B055340A6
:10264000C4E6C046004810180844000008441018AA
:102650000C0001000B0001000A0001001823194AB8
:1026600001212000FFF7CCF84B46A2685340A8E6B2
:10267000C02301212000144A5B03FFF7C1F881E663
:10268000C023124A5B0101212000FFF7B9F8C023E3
:10269000A2685B05534070E618230A4A0121200016
:1026A000FFF7AEF84B46A268534061E6E027084BBF
:1026B000BF01984629E6074D074E6EE6074805F02C
:1026C00079FD65E60C0001000A0001000B00010025
:1026D000003810180834000008341018C8A9001079
:1026E00080225200828184220023120101608360D3
:1026F000837303618350704710B5FEF765FA10BD10
:1027000030B50400174D83B06946200001AAFFF7D9
:1027100049FB0100431C10D0031DF5D0012817D040
:1027200002280CD0280005F0E7FD6946200001AA28
:10273000FFF738FB0100431CEED103B030BD009918
:10274000019B4A0020685208C90F02F019FFDBE71D
:1027500001990098FFF738FA0100200000F0F6FF19
:10276000D2E7C046E4A9001030B50224150083B0BA
:102770004A0849002140069C009301942B00FFF772
:10278000ABFC03B030BDC04610B50400002909D031
:10279000837C002B00D110BD002300218374FFF740
:1027A000B1FAF8E700F0CCFFA37C002BF3D10121B4
:1027B0002000FFF7A7FA0123A374ECE7F0B54E461B
:1027C000DE4657464546E0B5BC4B87B09B6A0400E1
:1027D00043608946FEF718F9002812D1FEF72EFC57
:1027E0000A25FEF749FCB64E142200212000FEF710
:1027F00057FCB04213D00120013D02F091FE002DA4
:10280000F2D1B04805F0D6FC06235B42984640461C
:1028100007B0F0BCBB46B246A946A046F0BD0022B8
:1028200000212000A84BFEF7FBFC0028E9D1002284
:1028300000212000FEF752FC04231D22002120006D
:10284000FEF7DEFF0028DCD19923042200212000BE
:10285000FEF7D6FF0028D4D1BE2306220021200097
:10286000FEF7CEFE8046031ECBD101212000974A01
:102870000833FEF7C5FF0A25402601212000934AB0
:10288000FEF798FC06420CD10120013D02F048FE03
:10289000002DF2D18E4805F08DFC06235B42984650
:1028A000B5E70023894A01212000FEF7A9FF200097
:1028B0008849FFF757F9E022C02501212000920145
:1028C000FEF778FCA3686D05AB4213D06B401A0E7F
:1028D00001D000F010FDFF221204134201D000F0DD
:1028E000FDFCFF221202134201D000F0EEFCC023D7
:1028F0005B05A36020007749FFF734F9E02201214E
:1029000020009201FEF756FCC026A368050076055C
:10291000B34213D073401A0E01D000F0CCFCFF225A
:102920001204134201D000F0B9FCFF22120213423C
:1029300001D000F0AAFCC0235B05A360EB0701D423
:1029400000F070FD20006449FFF70CF99022C025CB
:1029500001212000D201FEF72DFCA3686D05AB42DA
:1029600013D06B401A0E01D000F085FCFF22120438
:10297000134201D000F072FCFF221202134201D078
:1029800000F063FCC0235B05A36020005249FFF701
:10299000E9F8902201212000D201FEF70BFCC026AD
:1029A000A36805007605B34213D073401A0E01D018
:1029B00000F041FCFF221204134201D000F02EFC73
:1029C000FF221202134201D000F01FFCC0235B055E
:1029D000A360EB0701D400F02FFDC02502212000E9
:1029E000FFF786FCA3686D05AB4212D06B401A0E50
:1029F00001D000F000FCFF221204134201D000F0CD
:102A0000EDFBFF221202134200D0DFE3C0235B057F
:102A1000A360C025032301212000304AFEF7F0FC0B
:102A2000A3686D05AB4210D06B401A0E00D0C4E312
:102A3000FF221204134200D0B3E3FF22120213421A
:102A400000D0A6E3C0235B05A360C02500230121BD
:102A50002000234AFEF7D4FCA3686D05AB4210D0DA
:102A60006B401A0E00D08BE3FF221204134200D0F9
:102A70007AE3FF221202134200D050E3C0235B0529
:102A8000A360184B184A9B46184B5B449E5A1B3A4E
:102A9000FF3A964201DB00F0CAFC154A9B5C002B12
:102AA00001D000F0C4FC502E01DC00F0C0FC114B42
:102AB000114F50259A465F4425E0C046004005402E
:102AC000ADBEEDFE08AA0010B30402000E00010026
:102AD00070AA0010003810180048101810C000002C
:102AE00044C0000084AB00100E0300009E68030089
:102AF0000D03000028AA0010AB6B03000135AE42A5
:102B000001DC00F094FC09225146781B07F0D8FD47
:102B10000028F3D140235B425B4400279A463D00E6
:102B2000A368EE0B4037F6039E420ED073401A0E98
:102B300000D026E2FF221204134200D02EE2FF2230
:102B40001202134200D015E2A66053466A04DB1954
:102B50000093012140232000520CFEF797FF00282C
:102B600003D1DB239B029F42D9D1C0239B000026C7
:102B70009A46794F794D0DE0FEF7F4FF6A04002381
:102B800001212000520C0097FEF780FF002814D18D
:102B9000403540374036290020005645ECD8FEF736
:102BA000E1FF6A04402301212000520C0097FEF748
:102BB0006DFF002801D15645EAD1F025A368ED024A
:102BC000AB4210D06B401A0E00D09FE2FF221204DD
:102BD000134200D08FE2FF221202134200D082E2A1
:102BE000F023DB02A360C0255D4B012120005D4A7C
:102BF000FEF706FCA3686D05AB4210D06B401A0EC1
:102C000000D067E2FF221204134200D056E2FF22F6
:102C10001202134200D049E2C0235B05A3600121E8
:102C20002000FFF765FB20004F49FEF79BFF0121C5
:102C300020004E4AFEF7BEFAC026A36805007605BE
:102C4000B34210D073401A0E00D026E2FF221204C5
:102C5000134200D015E2FF221202134200D008E214
:102C6000C0235B05A36003202840012802D0404810
:102C700005F0A0FA20003F49FEF774FFE022012191
:102C800020009201FEF796FAC026A368050076059B
:102C9000B34210D073401A0E00D0E1E1FF221204BB
:102CA000134200D0D0E1FF221202134200D0C3E150
:102CB000C0235B05A360EB0700D5B9E1FA258026A8
:102CC000AD0006E00120013D02F02AFC002D00D1FC
:102CD00069E301212000284AFEF76CFA0642F1D090
:102CE000C025A3686D05AB4210D06B401A0E00D012
:102CF00050E3FF221204134200D03FE3FF221202EE
:102D0000134200D032E3C0235B05A360C025F0234B
:102D100001212000194AFEF773FBA3686D05AB4241
:102D200010D06B401A0E00D017E3FF22120413429A
:102D300000D006E3FF221202134200D0F9E2C023C2
:102D40005B05A360FA252023012120000C4AFEF731
:102D500057FD2026AD001CE05C1B0410FCFC0700A6
:102D6000C0003FFFFCFF00000834101808340000CA
:102D70005CAA0010003810180E00010024A000000A
:102D8000080001000120013D02F0CAFB002D00D126
:102D900011E3082200212000FEF7A0F90642F1D03D
:102DA0000121E34A2000FEF705FAC3B20220012107
:102DB0000343DF4A2000FEF723FD0823F022002111
:102DC0002000FEF71DFD02230121DA4A2000FEF754
:102DD00017FD01212000D84AFEF7ECF9C30700D403
:102DE0009EE20F230121D54A2000FEF709FD0023B2
:102DF0000121D24A2000FEF703FD0121CF4A200025
:102E0000FEF7D8F9042200212000FEF79DF9C30740
:102E100000D57EE2C025A3686D05AB4210D06B40A3
:102E20001A0E00D0FBE0FF221204134200D0EAE0A9
:102E3000FF221202134200D0DDE0C0235B05A36035
:102E4000C02501212000BE4AFEF748F9A3686D05A0
:102E5000AB4210D06B401A0E00D0C3E0FF22120428
:102E6000134200D0B2E0FF221202134200D0A5E0CC
:102E7000C0235B05A360200000F062FCA37C002B54
:102E800000D194E0AF4F25003900383508220831D1
:102E9000280005F02BF8AC4BF622DB212364200040
:102EA0000023920089026264A36459444C3005F007
:102EB0001DF8FC2308229B000221FF322000009510
:102EC000FFF792F9390013221431280005F00EF8AB
:102ED000832213230021200000955200FFF784F97C
:102EE000A36B002B00D010E20B229849280004F0BD
:102EF000FDFF002643230822E6540133E654013344
:102F0000E65401330221E654FF32373B200001969C
:102F10000095FFF7E1F806228D49280004F0E6FF4E
:102F20003E230122E25408220133E6540133E654E1
:102F30000133E6540221373B200001960095FF3211
:102F4000FFF7CAF84B46002B00D13CE2200049466F
:102F50000622463007F080FC0E2228007D4904F04E
:102F6000C5FF08221423022120000095FF32FFF73D
:102F70003BF94CE401212000774A330AFEF740FC7C
:102F8000E2E50023754A01212000FEF739FCFF220B
:102F9000A36812047340134200D1D0E5330C012121
:102FA00020006F4AFEF72CFCA3687340C7E501219F
:102FB0002000FEF7A7FE0123A37463E7C0230121CD
:102FC0002000654A5B03FEF71BFC51E7C023644AFF
:102FD0005B0101212000FEF713FCC023A2685B0502
:102FE000534040E71823012120005C4AFEF708FC0B
:102FF000A3686B4032E7C02301212000564A5B03DF
:10300000FEF7FEFB19E7C023554A5B0101212000B2
:10301000FEF7F6FBC023A2685B05534008E71823C0
:10302000012120004D4AFEF7EBFBA3686B40FAE656
:103030004C4805F0BFF841E6C02301212000464A74
:103040005B03FEF7DDFB33E6C023454A5B0101214C
:103050002000FEF7D5FBC023A2685B05534022E6A3
:103060001823012120003D4AFEF7CAFBA3687340E4
:1030700014E6C02301212000374A5B03FEF7C0FBA2
:10308000EEE5C023364A5B0101212000FEF7B8FBC4
:10309000C023A2685B055340DDE518230121200011
:1030A0002E4AFEF7ADFBA3687340CFE5C023012194
:1030B0002000294A5B03FEF7A3FBADE5C023284AA5
:1030C0005B0101212000FEF79BFBC023A2685B058A
:1030D00053409CE5182301212000204AFEF790FB75
:1030E000A3686B408EE5F023012120001A4ADB0023
:1030F000FEF786FB74E50723194A01212000FEF73D
:103100007FFBF023A268DB02534064E5002301212A
:103110002000124AFEF774FBA3686B4056E5C023FB
:10312000012120000C4A5B03FEF76AFBA6E4C046BF
:103130001E0001000E0001001F0001000F00010031
:103140000885000010AB001006100200E4AA001071
:10315000F0AA0010F8AA00100A0001000C000100FB
:103160000B0001005CAA0010C023B64A5B010121DC
:103170002000FEF745FBC023A2685B05534078E4BE
:10318000182301212000B04AFEF73AFBA3686B40E8
:103190006AE4C02301212000AC4A5B03FEF730FB48
:1031A00050E4C023A74A5B0101212000FEF728FB61
:1031B000C023A2685B0553403FE41823012120008F
:1031C000A14AFEF71DFBA3686B4031E4C023012137
:1031D00020009E4A5B03FEF713FB17E4C023994AC5
:1031E0005B0101212000FEF70BFBC023A2685B05F9
:1031F0005340FFF706FC182301212000924AFEF7F6
:10320000FFFAA3686B40FFF7F6FBC0230121200003
:103210008E4A5B03FEF7F4FAFFF7D8FBC023894A16
:103220005B0101212000FEF7EBFAC023A2685B05D9
:103230005340FFF7C5FB182301212000824AFEF707
:10324000DFFAA3687340FFF7B5FBC023012120001C
:103250007E4A5B03FEF7D4FAFFF794FBC023794A5A
:103260005B0101212000FEF7CBFAC023A2685B05B9
:103270005340FFF781FB182301212000724AFEF71B
:10328000BFFAA3686B40FFF771FBC0230121200048
:103290006E4A5B03FEF7B4FAFFF74DFBC023694AA1
:1032A0005B0101212000FEF7ABFAC023A2685B0599
:1032B0005340FFF73AFB182301212000624AFEF732
:1032C0009FFAA3687340FFF72AFBC0230121200067
:1032D0005E4A5B03FEF794FAFFF709FBC023594AE5
:1032E0005B0101212000FEF78BFAC023A2685B0579
:1032F0005340FFF7F6FA182301212000524AFEF747
:103300007FFAA3686B40FFF7E6FA514804F0F4FF38
:10331000EAE583B2042200212000FEF771F979E585
:10332000C3B20120012103434A4A2000FEF768FA94
:1033300057E5C02301212000444A5B03FEF760FAF1
:10334000FDE4C0233F4A5B0101212000FEF758FA4B
:10335000C023A2685B055340ECE418230121200040
:10336000394AFEF74DFAA3686B40DEE4C023012121
:103370002000364A5B03FEF743FAC4E4C023314A17
:103380005B0101212000FEF73BFAC023A2685B0528
:103390005340B3E41823012120002B4AFEF730FAF2
:1033A000A3686B40A5E42C4804F004FF06235B42AD
:1033B0009846FFF72CFA294804F0FCFE06235B42EE
:1033C0009846FFF724FA6A463900BB6A3031049305
:1033D000BB8D28009382142204F088FD83221423DD
:1033E0000021200000955200FEF7FEFE002806D0C6
:1033F000002002A902F052F802AB9946A6E5062287
:10340000290002A804F072FD029B049A934203D0A3
:1034100000239846FFF7FBF96B469A899B8A9A42EC
:10342000F6D1E5E70E4804F0C5FEFFF78BFA0D482C
:1034300004F0C0FEFFF799FB094804F0BBFEFFF75C
:10344000CCFAC0460B0001000C0001000A0001008C
:10345000CCAA00101F0001009CAA0010B4AA001002
:10346000C8A9001034AA001070B506000D000E495E
:103470003836040082B014223031300004F036FDBA
:10348000832220001423002100965200FEF7ACFE98
:10349000041E02D0200002B070BD062231002800B8
:1034A00004F024FDF6E7C04610AB001038230422D8
:1034B00000B5C254002335328354013283540132A3
:1034C0008354030083B038330093022104236A320B
:1034D000FEF78AFE03B000BD00B5054B83B0C318EC
:1034E00000931A2224230221FEF77EFE03B000BDC2
:1034F0001C080000F0B5040083B002292BD801237A
:103500008B40002A24D10027DDB22600383608225D
:103510001249300004F0EAFC40234122E554002324
:10352000A3540132A3540132A3540132A7540132EF
:10353000A3540132A3540132A354082202212000D3
:1035400000961033FF32FEF74FFE002003B0F0BDAF
:10355000DFB23D00D9E701204042F7E708AB001099
:1035600010B5006800F0E6F8013843425841C0B297
:1035700010BDC04610B5284B82B01B68002B17D079
:10358000264C2000FFF7ECFF00283DD1244BE25CE5
:10359000002A2CD1234BE25C002A1ED1224BE25C94
:1035A000002A0CD1214B1B68002B03D001F024FF13
:1035B00002B010BD01212000FFF7E6F8F6E7002277
:1035C0002000E254FFF788FF862301221B01E2500E
:1035D000164B1B68002BE9D1ECE700222000E254D7
:1035E000FFF764FF104BE25C002ADBD0E7E7002224
:1035F0006921E254200000230092FFF7B5F8094B3F
:10360000E25C002ACAD0E8E72000FFF779F8044B13
:10361000E25C002ABED0EAE7B01D0020B81D002001
:103620006D0800006F0800006E080000B41D002047
:1036300070B58023D025802604002D065B04AB6284
:10364000360400220021182000F090FB6E62002258
:103650000021172000F08AFBAE6121002000FFF757
:103660003FF800230321084AA354084AA350043218
:10367000A350074AA152074AA354074A13600122E4
:10368000064BE25070BDC046540800005C080000C4
:103690007408000076080000B01D00206C080000CF
:1036A000F8B5040001F00EFF1C4E3368002B31D03A
:1036B0000021200001F056FF0121200001F052FFFF
:1036C0002000FFF719F8D025802380275B042D0602
:1036D000AB620022002118203F0400F047FB0022CB
:1036E000002117206F6200F041FB21002000AF6134
:1036F000FEF7F6FF00230321094A3360A354094A69
:10370000A3500432A350084AA152084AA3540122EC
:10371000074BE25001F0E0FEF8BDC046B01D0020AE
:10372000540800005C0800007408000076080000DF
:103730006C080000D0231B065868C001C00F7047FA
:103740003222014B1A607047B41D0020804B70B5C7
:10375000C35805000C00DB072ED46368452B1BD033
:103760000B2B54D0172B0CD0002B00D06FE0A3688C
:10377000002B65D186231B01EB58764A93423DD03E
:1037800070BDA368002BF5D1E368082BF2D10222AB
:10379000714BFF32EA5269E0704BEA58012AE9D1D5
:1037A000A268082A00D1B0E0002AE3D10222EA5040
:1037B00086231B01EB58E0E701F090FA00292FD097
:1037C000FA220023920003F0FBFF628801006448A4
:1037D00004F092FD616858292ED8624B8A00D358B4
:1037E000002B29D01900604804F086FD2E23E268E2
:1037F000E35CA1685D4804F07FFDAEE7862301220B
:103800001B0100212800EA5001F0AEFEB8E70021BC
:10381000280001F0AFFE862300221B01EA50AFE72B
:10382000FA21890003F08EFF628801004C4804F001
:1038300063FD61685829D0D94D4804F05DFDD5E796
:10384000032B5BD0862302221B01EA5098E7032B4F
:1038500010D0062B24D1A368002B00D08AE7E368A0
:10386000022B00D086E7434B0122EA54424801F084
:10387000CBFD7FE7A368002B27D186231B01EA58E5
:103880000F2319001140042903D19A431300012288
:103890001A4380239B00134386221201AB506CE72E
:1038A000102B1AD1A368002B00D063E76388DB07D5
:1038B0003ED52E23E15C002943D1862280231201CC
:1038C000A958DB000B43AB5057E7062B00D151E75B
:1038D000862304221B01EA5052E72E2B00D049E731
:1038E000A368062B1CD0042B03D002229343082B81
:1038F000EED1E3680F2BEBD1174BB5E7E268002A56
:10390000A0D186221201AB503AE721001B4B303187
:10391000E8581B4BEB58984786231B01EB582CE7C4
:10392000862280231201A9581B010B43AB5024E7C8
:103930002E232800E15C01F01DFE86231B01EB58BD
:103940001BE7280001F010FE86231B01EB5814E74B
:1039500058080000010E00006E0800005C0800001E
:10396000441E04100C1F0410581E0410601E041086
:103970005C1E04106D08000075350010640800001E
:1039800068080000F8B54746CE46040080B5884672
:10399000160001F097FD1F4F00213D682000002D0B
:1039A0000ED0FEF7F1FE320041462000FFF7A2FDE7
:1039B000050001F091FD2800C0BCB946B046F8BD35
:1039C00001F0D0FD0121200001F0CCFD124B1420AC
:1039D000E5548023D0251B0499462D06AB6101F0E8
:1039E0009FFD4B4632206B6101F09AFD00212000C3
:1039F000FEF7E4FE051EDCD1084B2000E118FFF7BE
:103A000033FD3222064B07481A60386001F0FCFC97
:103A1000C9E7C046B01D002054080000D7080000C8
:103A2000B41D002075350010054B10B59C46604450
:103A300043425841800041180248FCF75DFF10BD29
:103A40000000D0AF812C00200B4B10B59C46604489
:103A500043425841094A840082B00092084822003B
:103A6000E31CFCF7FBFE844202DC001B02B010BD2D
:103A700001204042FAE7C0460000D0AF7020041099
:103A8000812C002070B50E000400FCF7AFFE154B32
:103A900001229C46644463425C41134BA400E558F8
:103AA000052134792023A2407156013A1B1B0029BD
:103AB0000BDB994214DC8A4014002C4063425C41C9
:103AC000E4B2FCF79FFE200070BD002B02DA07E095
:103AD000013B05D3110099400D42F9D10124F0E7D3
:103AE0000024EEE70000D0AF48180020F0B5D6461D
:103AF0004F4646468846C0B505240600FCF776FECC
:103B000043461F791C57284B8146F01843425841C1
:103B1000264B9A4683009C4653466246985801229B
:103B20002023BA40DB1B013A002C32DB9C422DDC07
:103B3000A2401500104229D1002F1AD043465A78CE
:103B400019781202114342469B78D2781B040B432A
:103B500012061A439046002241465300C95A4B0BA5
:103B600000D10919131912339B0001329951974260
:103B7000F2D85346624605439D504846FCF742FE44
:103B80002000E0BCBA46B146A846F0BD084802F0A5
:103B9000A3FA002B02DAF9E7013BF7D315009D40A9
:103BA0001C000542F8D1C7E70000D0AF481800203C
:103BB0009420041070B501250B7904009D40013D4F
:103BC0009540FCF713FE064B06499C46644463424D
:103BD0005C41A4006258AA436250FCF713FE70BD1A
:103BE0000000D0AF48180020F0B5DE4657464E46DC
:103BF00045468B46E0B51C0085B04B0003935B4403
:103C0000DB00C5182F00DC3716003A6884460092A6
:103C10002A00CC321268CC330192C0226344920154
:103C200013438022920202901A60002C18D0802345
:103C3000DB049A4601239946134BD8359846200059
:103C400003F052FD5246430113433B6033004A46A2
:103C5000C3401340424613432B60631E1C40EED109
:103C6000029B03989C465844C00060440300009A9D
:103C7000DC331A60019BCC30036005B0F0BCBB465E
:103C8000B246A946A046F0BD80E00000F0B5574618
:103C90004E464546DE468946E0B583B00CA90D7810
:103CA0004946490088464944C9004618370034004F
:103CB000DC3701903868CC3483462068C0248246C3
:103CC0000198CC318446A401614421438024A4029C
:103CD0000C60691E8D411F216D420D4016498C46B6
:103CE0006544052B0ED9A02149058C461F21D836E5
:103CF0006046540104430532053B3C600A40356090
:103D0000052BF5D8414652019B0613434944019ABD
:103D1000C90050180200DC3213600300D8331D6064
:103D20005B4613605346CC30036003B0F0BCBB4627
:103D3000B246A946A046F0BD80E00000094A8300D3
:103D400094464022634410B51C68C0006240C02401
:103D500014408022520113431C60034B9C46604474
:103D6000416010BD04C00140004001400A4B80008A
:103D70009C4604236044002901D00C230821002A1A
:103D800000D10B00026853400C221A4080235B01D3
:103D9000184302607047C04604C00140084B8000D1
:103DA0009C466044002905D080239B0118430223D0
:103DB00003607047C0239B01184302230360F8E7A8
:103DC00004C00140D0231B061B6830B50500581EF7
:103DD00083410F485C42844607203023284023401B
:103DE0008000EC08814020000A4D3C306344800094
:103DF000A40041511B19002A04D0802292011343D0
:103E0000196030BDC022920113431960F9E7C04622
:103E10000041014000400140D023F0B5C6460400F7
:103E20001B0698461B680C4F9B00F8580D001600A7
:103E300000B5044209D1044332002900FC500D2092
:103E400000F0B0F880BCB846F0BD02F05DF9434622
:103E50001B689B00F858EEE7302B002010B50400DB
:103E60000D2000F093F9D0231B061B6802499B002C
:103E70005A58A2435A5010BD302B0020084B8000E6
:103E80009C466044002905D080239B0118434023B1
:103E900003607047C0239B01184340230360F8E789
:103EA00004C001400123D022834012069362936133
:103EB000094A83009446402263441968C0004A407E
:103EC000C02111408022520113431960034B9C46CC
:103ED000052360444360704704C001400040014036
:103EE00001238340002904D0034A1360034A13606E
:103EF0007047034A1360FBE780E200E000E100E066
:103F000080E100E001238340014A13607047C0460E
:103F100000E200E0084B10309B688000C358002B83
:103F200007D0064A00209B1A2F229A424041C0B275
:103F300070470020FCE7C04600ED00E06410002060
:103F4000024B10309B688000C058704700ED00E0C5
:103F500070B50D00EFF3108672B60F4A1368002B90
:103F6000FCD0BFF35F8F0D4B10309B6884001B5952
:103F70000B4A934203D09D4201D002F0C5F8074B93
:103F80009B681D51BFF35F8FBFF35F8F0022024B11
:103F90001A6086F3108870BD240100D000ED00E0A7
:103FA000CD010010F0B557464E46DE464546E0B519
:103FB00085B0060002911700EFF3108B72B6674AC6
:103FC0001368002BFCD0BFF35F8F0025644B5D5757
:103FD0009A46002D00DAA4E06B00624C03935B1953
:103FE0009B009846A146C1444B4652469B791036E9
:103FF00013705D4BB2009B68019299580B1B2F2BDD
:1040000034D95A4B994200D0A4E0039B584A9C46AD
:10401000584B6544AD006353434602336519E418B9
:10402000554B0121043B1B1B1B055B0D13436B8090
:10403000524BEF71AB80FF23AB71029BAB604B46E1
:104040000B431900484B019A9B689950BFF35F8F4F
:10405000BFF35F8F0022414B1A608BF3108805B0CD
:10406000F0BCBB46B246A946A046F0BD01200A00FE
:104070008243D379BB422FD845464E461300404970
:104080001B1B5B415943090D3A4B63533A4B0235B5
:104090006519043B5B1B1B05354D5B0D2B43738082
:1040A0000426B446E0444444131F1B1B4C46A17134
:1040B00002991B05A16049465B0D2B43A380314B40
:1040C000E77101431360BDE75800C0188000201855
:1040D000C679BE422BD902000623D356002BF3DA51
:1040E000101D82462848804604267642B446E144A4
:1040F00050464E46361A3005400D824656461C48FC
:10410000957106439680039A944665441D4AAD0016
:10411000641922604246A371029BA280E771A360EA
:1041200090E701F0F1FF002553465D5754E7101D5D
:10413000824690884005001584464046D444664631
:1041400004302018301AE0260005400D36023043B6
:104150008046C9E701F0D8FF57E7C046240100D0E8
:10416000832C00206410002000ED00E0CD01001041
:1041700000E0FFFF00A1FFFF9410002001BDFFFF42
:10418000AAAA00000148804701BD0000F0B5DE4644
:1041900057464E464546E0B50C0083B0EFF3108914
:1041A00072B6584A1368002BFCD0BFF35F8F564B92
:1041B0009A68030010339F00D559544A904695429F
:1041C00032D0A54243D0524EAA1B2F2A2CD801220E
:1041D0008240924651464F4A126811400191514621
:1041E0004D4A1160BFF35F8FEFF305829346002ABB
:1041F00033D101232A009A4393689C4208D177E087
:104200004B005B189B00F3189968A1422AD01A0052
:10421000062151560029F3DA019B002B19D0524692
:104220003E4B1A603B4B1A60374B9B68DD51BFF326
:104230005F8FBFF35F8F0022324B1A6089F31088C3
:1042400003B0F0BCBB46B246A946A046F0BD15007F
:10425000EAE75246304B1A60E6E79342C9D001F0D4
:1042600053FFC6E706215956002921DB4A005018A2
:10427000800034188046A0689860E079D8710620E4
:1042800020569871002824DBA488F01A64052415B0
:1042900044440019E0240005400D24022043988086
:1042A00052181F4B9200B6181A781970B271B3E702
:1042B000594600290FD1FF3191711A49918018494F
:1042C0000A789A71184A9B1B5B415A43120D0A7077
:1042D000A2E71648E3E7164A1649D21A083A5002EE
:1042E000400D01439980144952080A43DA8093E74C
:1042F0000621515613000029B8DA5A46002AEAD19D
:104300004546DCE7240100D000ED00E0CD010010BF
:104310006410002000E100E080E100E080E200E0C5
:10432000832C002001BDFFFFAAAA000001BD0000F0
:104330009E10002000F0FFFF00F8FFFF032310B5E0
:104340000400074A18409446C0009C43FC33834055
:104350006444226881409A4313000B43236010BDDC
:1043600000E400E070B5EFF3058101240443EFF3AE
:10437000108C72B6214A1368002BFCD0BFF35F8FFC
:104380001F4B05001F4AED1A6D416A43120D1E4D69
:104390008900AE6852B27658A6421CD00621595602
:1043A00091421CD012215956914222D01E215956B9
:1043B000914220D02A2159560324914210D0134B08
:1043C00019781A708171BFF35F8F00220B4B1A604E
:1043D0008CF3108870BDAB680D4C5C50EFE7002487
:1043E0006100091989005B18FF21997109499980B9
:1043F000E5E70124F4E70224F2E7C046240100D0F7
:1044000064100020AAAA000000ED00E0832C002028
:10441000CD01001001BDFFFF054B064A1360064A9F
:10442000136053609360D36013615361936170476D
:104430008080808000E400E004E400E01F2110B5EB
:10444000091A0248FCF758FA10BDC046882C002013
:1044500000B5074B83B001000093002205230548F7
:10446000FCF7FCF9002801DB1F23181A03B000BD7C
:10447000A8200410882C002070B504000E00150040
:10448000FCF764FA0100200000F006F8A680E58041
:10449000BFF35F8F70BDC046024B9C4661448900EC
:1044A000016070474000003410B50400FCF74EFA7C
:1044B00001002000FFF7F0FFFF232371BFF35F8FA0
:1044C00010BDC04610B50400FCF740FA0100200002
:1044D000FFF7E2FFFF23A380BFF35F8F10BDC0464D
:1044E00010B504000120FCF73DFA044B9C466044E3
:1044F00080002060BFF35F8F10BDC04640000034D5
:10450000034B9C46614489000160BFF35F8F704795
:104510004000003483680B4810B58446614462440F
:10452000090112019A18591854684B6801209C42DD
:1045300001D802D00020C0B210BD12680B689A42A8
:10454000F9D8F7E7FFFFFF0F0A4B1968EFF3108068
:1045500072B60A68002AFCD0BFF35F8F1B68BFF3F6
:104560005F8F00221A6080F3108840BF0020002176
:104570007047C046442C0020F8B557464E46454685
:10458000DE46E0B599460CAB1C780DAB1B780600F7
:1045900090469A460768002C11D1BC7B002C42D073
:1045A00065003B682D19033D59194B78BB73002BEF
:1045B00000D1FB7300238B704B700B7004E065001F
:1045C0003B682D19033D5919B2682A4B944642465F
:1045D000E3181B0163441A604A465A600A9A9A60BB
:1045E0000B9ADA6000238B704B700B707B7B9B46C1
:1045F000002B2BD022005946B8687B6898473A6850
:10460000002816D05B4658465B005B445519033BB7
:10461000A870D118D35C002B00D06B705B460C7077
:104620007B73A34513D0F0BCBB46B246A946A04657
:10463000F8BD5B465B005B44033BD3189C7051198B
:10464000525D002A00D05A705B460B707C73424664
:104650004B46307D00F0CCFB051E06D05346002BA8
:1046600003D12100306800F0EDFD0E9B002BDAD065
:104670001D70D8E7FFFFFF0FF0B5DE4657464E46E8
:1046800045460023E0B58BB00893664B8200D458B2
:1046900000239B46099000F021FB626806000F0092
:1046A000EFF3108572B61368002BFCD0BFF35F8F59
:1046B00023689C465B7B9946002B68D0A2685A4BC6
:1046C00090464B441B01984443461A685B681000AF
:1046D0001900801BB941002963DD099800F088FBAF
:1046E00000230022984600230692079300239A464F
:1046F0006368BFF35F8F5A461A6085F3108853468C
:10470000002B08D10028C6D10BB0F0BCBB46B24686
:10471000A946A046F0BD089B414618024B461843E7
:10472000D047626806000F00EFF3108572B6136879
:10473000002BFCD0BFF35F8F002F4FDB33003B43D8
:1047400002D02369002B60D12368D97B002907D0D0
:104750004A00521819688C4649466244033A51701F
:104760009A7B002A01D14A469A734A46DA734B462D
:10477000E168013BCA5C0132CA545B46236163684D
:10478000BFF35F8F5A461A6085F3108883E70023D2
:1047900000229846002306920793002300209A46A1
:1047A000A6E7002901D1002897D10021604600F03A
:1047B000C7FC43461A685B680692079343469B68AA
:1047C0009A464346DB689846E3684B44013B1B78B6
:1047D00008931B0203432361002089E72369002B10
:1047E000B2D0069A079B921BBB41002B15DB5946A2
:1047F000049101210391494602914146019151469C
:1048000020000091FFF7B8FEB7E700F067FA32002A
:104810003B0012184B41002BE9DA0122034B5242B4
:10482000E5E7C046202B0020FFFFFF0FFFFFFF7FC3
:1048300010B5144C6368002B04D00A211248FFF70E
:104840002BFE10BD2300114A1021206800F092FBBE
:10485000032000F037FA032000F03AFB03200C4954
:1048600000F080FAFCF772F80A4B9C46032323758C
:10487000D0231B061B6860446375074B8000606093
:10488000DC60DAE7AC100020442C00201545001055
:104890007946001040000034202B0020004870476B
:1048A000AC100020F0B557464E464546DE46E0B512
:1048B00085B0019310AB1B780600039300239A4642
:1048C000984600927268EFF3108972B61368002B55
:1048D000FCD0BFF35F8F3568AC7B002C49D06700FC
:1048E0002B683F19033FDB195A78AA73002A00D1BD
:1048F000EA73B168484A8C4600980199A2181201DF
:104900006244106051600E9991600F99D1604246E7
:104910009A705A701A706B7B9B46002B45D0220010
:104920001900A8686B6898472A68002830D05B4651
:1049300058465B005B44D719033BB870D118D35C71
:10494000002B00D07B705B460C706B735C452DD0E8
:10495000F3681B19013B18787368BFF35F8F4246F9
:104960001A6089F310885346002B2CD10002204393
:1049700007E07368BFF35F8F1C6089F31088012024
:10498000404205B0F0BCBB46B246A946A046F0BDC9
:104990005B465B005B44033BD3189C70D119D25D2E
:1049A000002A00D05A705B460B706C73307D009A01
:1049B000019B00F01DFA82460028C9D02100306812
:1049C00000F040FCC4E7039B002B23D00E9B00208B
:1049D0000F999847030004000D000B431AD00029DB
:1049E0000ADA009A019B121BAB4100920193002B43
:1049F0000ADB039B9A4665E700F070F924184D41E5
:104A000000940195002DF4DA0123044C5B420093DD
:104A10000194EEE70020B4E7FFFFFF0FFFFFFF7FE9
:104A200070B542680400EFF3108572B61368002B6E
:104A3000FCD0BFF35F8F2068CEB2437BB3420AD075
:104A4000FF230B405A00D318026894466344033B8B
:104A50009B78002B13D0E268FF2394460B406344FD
:104A6000013B0A0A1978D2B291420ED00020636845
:104A7000BFF35F8F00221A6085F3108870BD226932
:104A80008A42F3D100202361F1E7310000F0DAFB24
:104A9000EDE7C046407D7047F0B504000D000626E6
:104AA0007642F717C64636196F4100B584B08F427B
:104AB00014D811D000F012F932003B00121A8B41C9
:104AC000002B15DC002B3ED02000290000F03AF925
:104AD00004B080BCB846F0BD8642EBD90026002762
:104AE00000F0FCF832003B00121A8B41002BE9DD8C
:104AF000002302930193154B3200009314483B00AE
:104B0000FFF7D0FE0028DFDB00239846BC46114AA1
:104B1000114F7B6A9C4504D8B96A8E42D4D99C4512
:104B2000D2D11168EFF3108072B60B68002BFCD065
:104B3000BFF35F8F1368BFF35F8F4146196080F347
:104B4000108820BFE5E7002ABED0D1E74945001014
:104B5000AC100020442C00200040054070B5060039
:104B600000F0BCF8FA2204000D0000233000002100
:104B7000920003F05FF900196941002902DBFFF799
:104B80008BFF70BD012001494042F8E7FFFFFF7F26
:104B900070B5EFF3058305000C0084B0002B0AD03C
:104BA000164A0020536A9C4203D8926A0130AA42F6
:104BB0001FD304B070BD124E02930193114B02003B
:104BC000009330000B00FFF76DFE011EE8DD20BFF3
:104BD0003000FFF725FF094B0020596A8C42E8D8C6
:104BE0009B6A0130AB42E4D2641A631E9C41E0B27E
:104BF000DFE7E41A631E9C41E0B2DAE700400540BB
:104C0000AC10002049450010F0B5EFF30582D64600
:104C10004F4646461000C0B51038EFF3108872B604
:104C2000214C2368002BFCD0BFF35F8F01231900B8
:104C300081401E4D1F006963AA461D4D29601D4D10
:104C40002E78AC463500C5402F402B4209D1BFF32A
:104C50005F8F276088F31088E0BCBA46B146A8464B
:104C6000F0BD5346144D5F6A83005D59AF420ED3C9
:104C7000124A8E439B5862461670BFF35F8F002224
:104C8000226088F31088002BE6D09847E4E70C4BAD
:104C900092009C46624413681360BFF35F8F002349
:104CA000236088F31088D7E7280100D00040054032
:104CB0003C700540872C0020502C0020501800200C
:104CC000D03F054010B50100024A0348FBF7A4FDA0
:104CD00010BDC046D0200410822C0020034B596A1E
:104CE0000A00986A596A8A42FAD170470040054022
:104CF00070B504000D00124A536A1900966A536A8F
:104D00008B42FAD13000190024184D41AB4211D822
:104D10000ED02B000A494A6A9A42FCD307D1084AAE
:104D200002E0516A994202D1916AA142F9D370BD61
:104D3000A642EED9012301246442E5175B42E9E76C
:104D400000400540064A536A9942FCD807D1044BFB
:104D500002E05A6A914202D19A6A8242F9D37047BC
:104D60000040054070B504000D00EFF3108672B6E8
:104D70001A4A1368002BFCD0BFF35F8F002D1BD0A5
:104D80002000FFF7DDF8164981420AD02000FFF726
:104D9000DFF801212000FFF7A3F80123A340114A07
:104DA0001360114BA400E550BFF35F8F00220B4B43
:104DB0001A6086F3108870BD0B4BA200D5500122FB
:104DC000A2400A4920000B7893430B700449FFF777
:104DD000DDF900212000FFF783F8E5E7280100D086
:104DE000094C00103860054050180020872C002026
:104DF000F0B54F46D6464646C0B507002F4C616A0F
:104E00000D00A66A616AA942FAD18B4208D805D082
:104E10000120E0BCBA46B146A846F0BDB242F7D97F
:104E2000EFF3108A72B6264801680029FCD0BFF360
:104E30005F8F0125BD402349204C8846097889466B
:104E40002943C9B28C46414660460870391D1E4848
:104E5000890065630A51B9000B50216A002029427C
:104E600019D0616A0800A66A616A8142FAD18B4250
:104E700019D801D1B24216D8CC451DD00F4B1F20F6
:104E80001D625D6301230740BB40104A1E3813605A
:104E900043464A461A70BFF35F8F0022084B1A60E0
:104EA0008AF31088B5E70020BFF35F8F0022044B20
:104EB0001A608AF31088ACE70120ECE70040054057
:104EC000280100D0872C0020502C002080E200E038
:104ED000EFF3108C72B60A490B68002BFCD0BFF3BD
:104EE0005F8F01238340074A0748136202789A4381
:104EF0000270BFF35F8F00230B608CF31088704744
:104F0000280100D000400540872C002070B5050026
:104F100014001600002915D00C00002A12D0806859
:104F20006B689847296800280ED073009B196200AF
:104F3000033B1219CB18033A9C7088188A5C002A2C
:104F400015D10670200070BD63001B197200033B71
:104F50009219CB18033A9E7088188A5C002A02D1F5
:104F600004703400EEE75A7004703400EAE75A70B7
:104F70000670E7E730B583600023CCB2437301339A
:104F8000047342608373C4730D000068012C06D95A
:104F9000421C0133DBB2137003329C42F9D1FF2172
:104FA00029404B005918002340180338437030BD86
:104FB000F8B5CE46474606000C0080B5002907D05C
:104FC0004D0003686D18033D5A195778002F04D11E
:104FD0002000C0BCB946B046F8BD7900C9190339F4
:104FE0008846434459788946002159705170736846
:104FF0003A002100806898473368002814D0424660
:105000009A18947059195B5D002B00D053700F7083
:10501000270049463000FFF7CBFF3900020030007F
:10502000FFF774FF0400D3E7424641465D19AF70B5
:105030009A185B5C002B00D06B701470E9E7C046D7
:10504000F0B557464546DE464E46E0B50D006B00CE
:1050500001685B19DF1E0400C85D83B00192CA19A4
:10506000002850D043001B18033BCB185E78B44691
:10507000002E1AD1019E002E42D0E67B002E04D0D5
:1050800073009B19CB18033B5D70A37B002B00D1F1
:10509000A573E57300282FD10023537003B0F0BC33
:1050A000BB46B246A946A046F0BD72006244033A30
:1050B00089184A78904600224A7091465A70010039
:1050C00032002000FFF722FF43468246002B07D024
:1050D0005B0021684344033BCB185A78002A16D161
:1050E000424651462000FFF711FF2168019BCA1973
:1050F000002BC2D10028CFD043001B18033BCB1894
:1051000000219970C8E7019B002BB6D1C4E750007D
:105110008018033809184878834648464870587004
:1051200041462000FFF7F2FE594680462000FFF777
:105130003FFF414602002000FFF7E8FE8046CFE730
:10514000F0B557464546DE464E46E0B583B0019180
:10515000457B04006B0000685B19DF1EC15DC2194E
:10516000002952D04B005B18033BC3185E78B4464D
:10517000002E1CD1019E002E44D0E67B002E04D0D0
:1051800073009B19C318033B5D70A37B002B00D1F8
:10519000A573E573002931D1002328005370617392
:1051A00003B0F0BCBB46B246A946A046F0BD7200B3
:1051B0006244033A80184278904600224270914639
:1051C0005A7020003200FFF7A1FE43468246002BB2
:1051D00007D05B0021684344033BCB185A78002A70
:1051E00017D1424651462000FFF790FE019B010077
:1051F0002068C219002BC0D10029CDD04B005B180C
:10520000033BC31800209870C6E7019B002BB4D164
:10521000C2E750008018033809184878834648468A
:105220004870587041462000FFF770FE594680468E
:105230002000FFF7BDFE414602002000FFF766FE9A
:105240008046CEE770B5040000292CD0437B8B420A
:105250002ED0056848004018033828188278002AA4
:1052600021D053009B18033BEA5CEE188A4202D11E
:105270001BE0002A08D053009B18033BEB185A7818
:105280008A42F6D142785A7000230122837043701B
:105290002000FFF7D5FE617B02002000FFF736FEFD
:1052A0006073012000E0002070BD43783370EBE7AD
:1052B00001221900FFF7C4FE60730120F4E7C04625
:1052C00010B501000148FBF717FB10BD7A2C002038
:1052D00000B5054B83B00100009300220B23034867
:1052E000FBF7BCFA03B000BDF42004107A2C0020B8
:1052F00010B5036801495B6A984710BDD4100020BF
:10530000802010B5402207494004FEF785FD0122A8
:1053100002211820FEF756FD0D200121FEF7E0FDC9
:10532000002010BD49530010802010B505494004ED
:10533000FEF794FD182000220221FEF743FD002015
:1053400010BDC04649530010D0231B061B6810B582
:105350005A1E93415A4230231340094A94466344EB
:10536000DB6A9B0700D410BD002202211820FEF743
:1053700029FD044B0449186803685B6A9847F2E703
:1053800000410140AC1D0020D4100020154B70B529
:105390001B680400002B0ED0134D2A68002A01D090
:1053A000013A2A6098472B68002B05D1236820001A
:1053B0009B690E49984770BDFFF790FC00230C4A8B
:1053C00080185941002908DB084B22689860D96091
:1053D0005269190020009047EDE70120054940423D
:1053E000F2E7C046B01D0020B41D0020E0100020F0
:1053F00050C30000FFFFFF7F10B5012202211820DB
:10540000FEF7E0FC10BDC046034B10B51868034919
:1054100003685B6A984710BDAC1D0020D4100020C3
:1054200010B504000848FEF703F9084B00221C6081
:10543000236820001B690649984723682000DB6920
:1054400004499847012010BDB81D0020AC1D002064
:1054500001530010D410002010B5040003680A495D
:105460009B699847236820001B6A0849984723686E
:1054700000221B690649200098470648FEF710F9EC
:105480000022054B1A6010BDE0100020D41000204F
:1054900029530010B81D0020AC1D002010B582B0AB
:1054A00068460C00FBF79EF86B460622991C20000C
:1054B00002F01CFD01222378934302221343237040
:1054C00002B010BD034B10B5186803685B689847BD
:1054D00010BDC046AC1D0020034B10B51868036812
:1054E0009B68984710BDC046AC1D002070B50400F5
:1054F000094B1D68FFF7F2FB2200002312184B41F5
:10550000002B04DB29682800096B884770BD012245
:10551000024B5242F6E7C046AC1D0020FFFFFF7F62
:10552000F8B50E4B06001F68FFF7D8FBFA220400FF
:105530000D00002392003000002102F07BFC0200ED
:105540000B0012196B41002B04DB39683800C96A63
:105550008847F8BD0122024B5242F6E7AC1D0020FD
:10556000FFFFFF7F7047C04610B5014800F0B4FD53
:105570001421041010B5014800F0AEFD14210410F0
:1055800010B5014800F0A8FD1421041010B530300A
:1055900005F002F910BDC0460022452310B50C00ED
:1055A000CA54013BC85CFEF7ADFC2000383005F062
:1055B000C3F80020002110BD012310B504000B72B8
:1055C0004333C05CFEF79EFC2000383005F0B4F891
:1055D00010BDC046F0B5CE46474680B52D4B87B0CE
:1055E0001A685B68040005932B4B90464525994645
:1055F000200000F0EBF906000F00FFF76FFB320010
:105600003B00121A8B41002B29DD46452DD0635DEE
:10561000002B08D0A06AE16A32003B00121A8B41CD
:10562000002B28DC33D0236C002B03DD216C206A97
:10563000FFF7F6F90123A662E762635500230293A0
:105640004B4632000093206A3B000194FFF72AF991
:105650002064236C002B0EDC00236355C8E7002B6D
:10566000C6D1002AC4D04645D1D1059B9F42CED198
:10567000236C002B04DC07B0C0BCB946B046F0BDBB
:10568000216C206AFFF7CCF900232364F3E7002A9A
:10569000C9D0F0E7C820041099550010F8B50600ED
:1056A00017003036040030000D0005F075F83800A2
:1056B000A84773790500012B04D0300005F09CF851
:1056C0002800F8BD2000FFF785FFF6E770B54425F8
:1056D0000400405D002814D1236C002B03DD216CF5
:1056E000206AFFF79DF925003035280005F054F8B1
:1056F000280005F081F848220021200002F0F0FB8C
:1057000070BD0021FEF7ECFB605D0449FEF73EFD35
:10571000605DFEF793FE00236355DDE7215700101F
:105720000D4AEFF305832A3B9B0070B59C58002C73
:105730000DD0250030350021280005F01DF8002887
:1057400005D06B79012B03D0280005F055F870BD0A
:105750002000FFF73FFFF7E76418002010B538304E
:1057600005F072F810BDC0461900EFF30583100074
:1057700010B5002B02D0FFF7E5FA10BDFFF78CF94A
:10578000FBE7C04610B530304379002B08D0D0235A
:1057900000221B069A560423C3569A4200D110BD1C
:1057A000014800F099FCC0463421041010B50400F3
:1057B00030346379012B03D0200005F01DF810BDB3
:1057C000FFF708FFF8E7C04670B506000D000400BB
:1057D0003036300004F0E0FF2900200000F0E2F84D
:1057E00073790500012B04D0300005F005F828007E
:1057F00070BD2000FFF7EEFEF6E7C04670B506006C
:105800000D0004003036300004F0C6FF29002000EF
:1058100000F0A2F873790500012B04D0300004F0E9
:10582000EBFF280070BD2000FFF7D4FEF6E7C0466E
:1058300070B506000D0004003036300004F0ACFFF7
:105840002900200000F09CF873790500012B04D09A
:10585000300004F0D1FF280070BD2000FFF7BAFE31
:10586000F6E7C04670B506000D0004003036300083
:1058700004F092FF2900200000F05AF87379050027
:10588000012B04D0300004F0B7FF280070BD2000C9
:10589000FFF7A0FEF6E7C046FF2303700023436036
:1058A0007047C04670B504000D004422002104304A
:1058B00002F016FB1B4B236003232383D0231B061C
:1058C0001B68A3766B68002B28D02362200001227E
:1058D00001213830FEF7D0FD20003030FEF7F2FD18
:1058E00000202E78FEF7B4FD03000020002B14DB0F
:1058F0001A0044250C491A3A9200FF3054501840BF
:1059000063550A49FEF724FB0121605DFEF7E8FAC2
:10591000605D3100FEF712FD012070BDFEF7BEFF95
:105920002062D3E75421041064180020215700108E
:10593000020083680832002B04D107E01A001B68BC
:10594000002B03D09942F9D1002003E0002301206D
:1059500011600B607047C0468368002B08D09942E5
:1059600002D107E0994207D01A001B68002BF9D139
:1059700000207047020008320B6801201360F8E72E
:105980004368021D002B04D107E01A001B68002B9E
:1059900003D09942F9D1002003E0002301201160D7
:1059A0000B6070474368002B08D0994202D107E092
:1059B000994206D01A001B68002BF9D100207047CD
:1059C000021D0B6801201360F9E7C046F8B5474691
:1059D000CE468368804680B5002B29D008234344F7
:1059E0009946FFF77BF943469E6804000D00002EA0
:1059F00058D000234F469C46B268F3682000290027
:105A0000801A9941002902DB14001D00BC463700B2
:105A10003668002EF0D16346002B43D0196840460B
:105A20000A681A604B68984743469B68002BD8D198
:105A300043465C68002C31D00025237A002B29D006
:105A4000210063682572404698472468002CF4D1F1
:105A5000174B1868596843469E68002E04D112E01F
:105A600020002900002E0ED0330002009C68DD6863
:105A70000B00121BAB413668002BF1DCF2D1002A7F
:105A8000EED1002EF0D1434618615961C0BCB94631
:105A9000B046F8BD2468002CCFD1D9E7044B186874
:105AA0005968F0E743465C68002CC5D1D0E7C04692
:105AB000C8200410F8B5040006200D0000F0C8F955
:105AC000002844D02A4B2B49E21853425A418023E4
:105AD000DB039C469205284B62441A60274B1A60F0
